:100000003FC059C058C057C056C055C054C053C057
:1000100052C02BC250C04FC04EC04DC04CC04BC090
:100020004AC049C048C000000000000000000003B2
:100030000406000000000000000001020408102077
:10004000408001020408102001020408102004046A
:100050000404040404040202020202020303030370
:1000600003030000000036003300300000000000F1
:100070003800350032000000000037003400310045
:1000800011241FBECFE5D4E0DEBFCDBF10E0A0E657
:10009000B0E0E8ECF0E102C005900D92AC36B1079B
:1000A000D9F720E0ACE6B0E001C01D92A937B20755
:1000B000E1F7C5D107C8A4CF009719F060E070E060
:1000C00061C380E00895CF93DF93EC01888199812B
:1000D000F3DF682F70E08B8187D21D821C82DF9155
:1000E000CF910895CF93DF93EC0160E070E08B81B6
:1000F0007BD281E090E09D838C83DF91CF91089546
:10010000CF92DF92EF92FF920F931F93CF93DF93E3
:10011000C62EF42E88E090E0A7D1EC011DD30C2D63
:1001200010E001501109B801660F771FCE0115D3F9
:10013000DD24DA94DF0CEE24E394CE1490F06D2DE0
:10014000CE0130D38E2D90E0801791073CF46F2DB7
:10015000FE9C600D11246150CE0144D3E394DF0C6A
:10016000ECCFCE01DF91CF911F910F91FF90EF90D7
:10017000DF90CF900895CF93DF93EC016B834423FE
:1001800029F0E42F413118F0E0E101C0E1E06E2FE9
:1001900070E080E091E03AD5462F6A836E2FCE0161
:1001A000AFDF99838883CE01DF91CF919BCF1F93DF
:1001B000CF93DF93EB01209739F0CB0139D3182F80
:1001C000682FCE010FD301C010E0812FDF91CF91B6
:1001D0001F9108951F93CF93DF93EC0112E060E02D
:1001E00070E08B8101D264E670E080E090E0B7D1EE
:1001F0008881998161DF682F70E08B81F5D164E699
:1002000070E080E090E0ABD1115049F7DF91CF91E1
:100210001F910895CF93DF93EC0168817981C7DF47
:10022000682F70E08B81E0D18881998145DF90E073
:100230002A8130E0215031098217930729F0888103
:1002400099813ADF8F3F21F4CE01DF91CF91C2CF68
:10025000DF91CF910895CF92DF92EF92FF920F93AB
:10026000CF93DF9300D01F92CDB7DEB76C018AE643
:1002700090E0F601918380838CE090E02B834A83A9
:100280006983F2D07C014A8169813ED0F601F38214
:10029000E282F701D386C28686E090E0E5D07C0159
:1002A000402F2B81622F67DFF601F582E4820F90E9
:1002B0000F900F90DF91CF910F91FF90EF90DF9013
:1002C000CF900895EC018A819B81B1D0FCCFFC01D5
:1002D00084819581FC0124813581232B09F49ACFF7
:1002E0000895FC0184819581FC0124813581232BB3
:1002F00009F4F8CEE8CE6115710521F06130710581
:1003000011F00895E4CFEDCFEF92FF920F931F937A
:10031000CF93DF9300D0CDB7DEB77C0184E290E0CD
:100320004A836983A1D08C014A8169819BD2F701FC
:1003300011830083128213821482158281E090E07F
:10034000918780871386128682E090E09783868368
:100350000F900F90DF91CF911F910F91FF90EF9031
:100360000895CF93DF93EC018A859B85009781F0F8
:100370006E817F816230710559F0DC01ED91FC9155
:100380000190F081E02D099582E090E09F838E83BB
:10039000DF91CF9108950F931F93CF93DF93EC01DB
:1003A0006EE1888199817FD3683522E072078105EB
:1003B000910560F088859985892BA1F1A0D06A8389
:1003C0007B838C839D83198618862CC0693C7105BC
:1003D0008105910538F588859985019719F18FD0A8
:1003E0000A811B812C813D81601B710B820B930B59
:1003F0006A837B838C839D83653F21E0720781053F
:10040000910518F41F821E8209C06C3D754081055C
:10041000910520F081E090E09F838E8381E090E061
:1004200099878887DF91CF911F910F910895CF937E
:10043000DF93EC01B0DFCE01DF91CF9192CF0F932C
:10044000CF93DF93B1D086E090E00ED0EC0108E0CE
:1004500029E044E063E0FFDECE0134DF80E090E09D
:10046000DF91CF910F91089506C51F920F920FB69D
:100470000F9211242F933F938F939F93AF93BF932A
:1004800080916D0090916E00A0916F00B09170000E
:1004900030916C0026E0230F2D3720F40296A11D29
:1004A000B11D05C029E8230F0396A11DB11D20939E
:1004B0006C0080936D0090936E00A0936F00B093DA
:1004C00070008091710090917200A0917300B091C2
:1004D00074000196A11DB11D80937100909372006C
:1004E000A0937300B0937400BF91AF919F918F91CF
:1004F0003F912F910F900FBE0F901F9018952FB71F
:10050000F89460916D0070916E0080916F009091F1
:1005100070002FBF08953FB7F894809171009091BB
:100520007200A0917300B091740022B708B600FE6B
:1005300005C02F3F19F00196A11DB11D3FBF6627D1
:10054000782F892F9A2F620F711D811D911D43E015
:10055000660F771F881F991F4A95D1F70895CF928C
:10056000DF92EF92FF92CF93DF936B017C01D3DF99
:10057000EB01C114D104E104F10479F0ECD0CBDF3C
:100580006C1B7D0B683E7340A0F381E0C81AD10854
:10059000E108F108C851DC4FECCFDF91CF91FF901B
:1005A000EF90DF90CF900895789483B7826083BFF7
:1005B00083B7816083BF89B7816089BF1EBC8EB558
:1005C00082608EBD8EB581608EBD8FB581608FBD1E
:1005D00085B5846085BD85B5806485BD329A319AC4
:1005E0003098379A1AB808951F93CF93DF93182F36
:1005F000EB0161E042D0209711F460E004C0CF3FEE
:10060000D10531F461E0812FDF91CF911F916EC050
:10061000E12FF0E0EA5DFF4FE491E43051F0E63085
:1006200071F0E33089F48FB580688FBDDBBDCABD42
:100630000FC08FB580628FBDD9BDC8BD09C085B55B
:10064000806285BDC3BD04C0C038D105DCF6D5CFFE
:10065000DF91CF911F910895843039F0863049F0B1
:10066000833051F48FB58F7702C08FB58F7D8FBDEA
:10067000089585B58F7D85BD0895CF93DF9390E074
:10068000FC01E65CFF4F2491FC01E25BFF4F84918B
:10069000882349F190E0880F991FFC01EA58FF4F29
:1006A000A591B49184599F4FFC01C591D4919FB7F6
:1006B000611108C0F8948C91209582238C938881D5
:1006C00082230AC0623051F4F8948C91322F309515
:1006D00083238C938881822B888304C0F8948C9127
:1006E000822B8C939FBFDF91CF9108950F931F931F
:1006F000CF93DF931F92CDB7DEB7282F30E0F901FB
:10070000EA5DFF4F8491F901E65CFF4F1491F90116
:10071000E25BFF4F04910023C1F0882319F0698345
:100720009BDF6981E02FF0E0EE0FFF1FE459FF4FE0
:10073000A591B4919FB7F8948C91611103C0109565
:10074000812301C0812B8C939FBF0F90DF91CF91AC
:100750001F910F910895089508950F931F93CF93BC
:10076000DF93EC018B01CB0186D3998388831B83B4
:100770000A831D821C821F821E82DF91CF911F91EE
:100780000F910895FC01CB0124813581820F931FC5
:100790006281738127D20190F081E02DE80FF91F6B
:1007A00080810895CF93FC01C62F468157816281D5
:1007B00073814617570790F484819581840F951FA4
:1007C00011D2A081B181A80FB91FCC9386819781E6
:1007D00001969783868381E090E002C080E090E0FC
:1007E000CF910895FC01262F6281738186819781C4
:1007F00086179707D0F484819581009719F4CB016F
:10080000019702C00197EED195838483A081B181C5
:1008100084819581A80FB91F2C93868197810196B9
:100820009783868381E090E0089580E090E00895CA
:10083000FC01268137812115310591F08481958154
:10084000820F931F019762817381CCD1A081B18106
:10085000A80FB91F8C912150310937832683089541
:1008600080E008950F931F93CF93DF93EC0181E015
:1008700090E09983888386E391E09F838E8300EFE5
:100880001AEB24E030E0088719872A873B8700E2CB
:100890001EE420E030E00C871D872E873F876431FF
:1008A00020F08FEF9FEF99838883443120F08FEF02
:1008B0009FEF99838883262F30E0F901E65CFF4F94
:1008C000E491E88FF901E25BFF4F249130E0220FC1
:1008D000331FF901EA58FF4F659174917A8F698F40
:1008E00024593F4FF901259134913C8F2B8F842F50
:1008F00090E0FC01E65CFF4FE491ED8FFC01E25BD0
:10090000FF4F849190E0880F991FFC01EA58FF4F38
:10091000259134913F8F2E8FFC01EE59FF4F259189
:10092000349139A328A384599F4FFC018591949158
:100930009BA38AA3F894E98DFA8D8081988D892BE9
:10094000808378944FEF5FEF6FEF7FE04A835B83A4
:100950006C837D83D4DD688B798B8A8B9B8BDF9155
:10096000CF911F910F9108950F931F93FC01F8945D
:10097000A38DB48D9C91808D809589238C93A68DB9
:10098000B78D9C91858D809589238C93A2A1B3A16D
:100990009C91858D809589238C93A68DB78D8C91A4
:1009A000958D892B8C93A68DB78D9C91858D809587
:1009B00089238C93A38DB48D8C91908D892B8C93EE
:1009C0007894A0A1B1A1958D8C91892344895589F2
:1009D000668977890085118522853385811106C056
:1009E000401751076207730708F440C00417150742
:1009F00026073707C0F1F894A2A1B3A18C91958D79
:100A0000892B8C93A68DB78D8C91958D892B8C938A
:100A1000A68DB78D9C91858D809589238C93A2A1FD
:100A2000B3A19C91858D809589238C93A38DB48DE2
:100A30009C91808D809589238C937894A0A1B1A1FD
:100A4000958D8C918923448955896689778900859C
:100A5000118522853385882391F04017510762075D
:100A60007307A8F00CC08EEF9FEF1AC04F5F5F4F67
:100A70006F4F7F4F448B558B668B778BA5CF40177D
:100A800051076207730778F781E090E009C04F5F74
:100A90005F4F6F4F7F4F448B558B668B778BD1CFDA
:100AA0001F910F910895CF92DF92EF92FF920F93D3
:100AB0001F93CF93DF931F92CDB7DEB78C01FC015C
:100AC000148A158A168A178A662341F080819181DB
:100AD00097FF08C06FEF7FEFCB017AC060E070E056
:100AE000CB0176C0F12CC80169833EDF698197FD97
:100AF0005AC0F394F612F7CF02DDF801C088D1880E
:100B0000E288F3886C197D098E099F09C484D58415
:100B1000E684F784C616D706E806F90630F5C488D9
:100B2000D588E688F7886281738184819581C616AD
:100B3000D706E806F90629F0C61AD70AE80AF90A1C
:100B400003C0C12CD12C7601A5D02DEC3CEC4CEC93
:100B50005DE32ED16ED0AB01662757FD6095762FF1
:100B6000C416D506E606F70618F1F80184899589BA
:100B7000A689B789C280D380E480F5808C159D0555
:100B8000AE05BF0520F482839383A483B583F80167
:100B9000C280D380E480F580BC01CD016C197D0951
:100BA0008E099F0915C06EEF7FEF8FEF9FEF10C08A
:100BB0004FEF5FEF6FEF7FE0F80142835383648371
:100BC00075839DDCF801608B718B828B938BCDCF0D
:100BD0000F90DF91CF911F910F91FF90EF90DF90D9
:100BE000CF900895AA1BBB1B51E107C0AA1FBB1FD2
:100BF000A617B70710F0A61BB70B881F991F5A95A9
:100C0000A9F780959095BC01CD01089597FB072E1B
:100C100016F4009406D077FD08D0E4DF07FC05D079
:100C20003EF4909581959F4F0895709561957F4F03
:100C3000089504D06894B111B5C0089598D088F093
:100C40009F5790F0B92F9927B751A0F0D1F0660FB8
:100C5000771F881F991F1AF0BA95C9F712C0B130D3
:100C600081F09FD0B1E008959CC0672F782F88272E
:100C7000B85F39F0B93FCCF3869577956795B39512
:100C8000D9F73EF490958095709561957F4F8F4F81
:100C90009F4F0895E89409C097FB3EF49095809586
:100CA000709561957F4F8F4F9F4F9923A9F0F92F32
:100CB00096E9BB279395F695879577956795B795B0
:100CC000F111F8CFFAF4BB0F11F460FF1BC06F5F96
:100CD0007F4F8F4F9F4F16C0882311F096E911C0A8
:100CE000772321F09EE8872F762F05C0662371F0C9
:100CF00096E8862F70E060E02AF09A95660F771FDD
:100D0000881FDAF7880F9695879597F9089597F9D0
:100D10009F6780E870E060E008959FEF80EC0895A1
:100D200000240A94161617061806090608950024CA
:100D30000A9412161306140605060895092E039444
:100D4000000C11F4882352F0BB0F40F4BF2B11F4B8
:100D500060FF04C06F5F7F4F8F4F9F4F089557FD17
:100D60009058440F551F59F05F3F71F04795880F19
:100D700097FB991F61F09F3F79F0879508951216B0
:100D800013061406551FF2CF4695F1DF08C016165C
:100D900017061806991FF1CF86957105610508940D
:100DA0000895E894BB2766277727CB0197F9089524
:100DB0000BD0C4CFB5DF28F0BADF18F0952309F0C7
:100DC000A6CFABCF1124EECFCADFA0F3959FD1F30E
:100DD000950F50E0551F629FF001729FBB27F00DE9
:100DE000B11D639FAA27F00DB11DAA1F649F66273E
:100DF000B00DA11D661F829F2227B00DA11D621F8D
:100E0000739FB00DA11D621F839FA00D611D221F46
:100E1000749F3327A00D611D231F849F600D211D2A
:100E2000822F762F6A2F11249F5750408AF0E1F0CD
:100E300088234AF0EE0FFF1FBB1F661F771F881F16
:100E400091505040A9F79E3F510570F060CFAACF56
:100E50005F3FECF3983EDCF3869577956795B79501
:100E6000F795E7959F5FC1F7FE2B880F911D96952B
:100E7000879597F90895CF93DF938230910510F409
:100E800082E090E0E0917700F091780020E030E09F
:100E9000A0E0B0E0309739F14081518148175907FF
:100EA000B8F04817590771F482819381109729F09F
:100EB00013969C938E9312972CC0909378008093F6
:100EC000770027C02115310531F04217530718F07C
:100ED000A901DB0101C0EF019A01BD01DF01028020
:100EE000F381E02DD7CF21153105F9F0281B390BFF
:100EF0002430310580F48A819B816115710521F0D0
:100F0000FB019383828304C09093780080937700E1
:100F1000FE01329644C0FE01E20FF31F81939193CC
:100F200022503109398328833AC0209175003091CD
:100F30007600232B41F420916200309163003093BE
:100F4000760020937500209160003091610021159A
:100F5000310541F42DB73EB74091640050916500D2
:100F6000241B350BE0917500F0917600E217F30732
:100F7000A0F42E1B3F0B2817390778F0AC014E5F09
:100F80005F4F2417350748F04E0F5F1F50937600D0
:100F9000409375008193919302C0E0E0F0E0CF01AF
:100FA000DF91CF910895CF93DF93009709F487C025
:100FB000FC01329713821282C0917700D0917800A1
:100FC000209781F420813181280F391F809175008D
:100FD000909176008217930779F5F0937600E0936D
:100FE00075006DC0DE0120E030E0AE17BF0750F4A1
:100FF00012964D915C9113979D014115510509F190
:10100000DA01F3CFB383A28340815181840F951F0E
:101010008A179B0771F48D919C911197840F951FEE
:1010200002969183808312968D919C91139793835E
:1010300082832115310529F4F0937800E09377003D
:101040003EC0D9011396FC93EE9312974D915D919A
:10105000A40FB51FEA17FB0779F480819181840FF3
:10106000951F0296D90111969C938E93828193814C
:1010700013969C938E931297E0E0F0E08A819B8117
:10108000009719F0FE01EC01F9CFCE0102962881FC
:101090003981820F931F20917500309176002817B7
:1010A000390769F4309729F410927800109277008C
:1010B00002C013821282D0937600C0937500DF9134
:0810C000CF910895F894FFCFD1
:0C10C800000079008000000000007B01A7
:00000001FF
