:1000000031C100000C946A240C94912453C1000067
:1000100051C100004FC100000C9423240C94901790
:1000200049C1000047C1000045C1000043C10000B4
:1000300041C100003FC100003DC100003BC10000C4
:100040000C948A0F37C1000035C1000033C1000095
:1000500031C100002FC100002DC100002BC10000E4
:1000600029C1000027C100007B226368616E6E65B4
:100070006C223A25642C226B6579223A256C757DB9
:10008000002564005D002C002564005B004F4E00DD
:100090004F4646004F4E005B25645D0025640022FC
:1000A000257322006E6F64654255494C445F544984
:1000B0004D450022256420646179732025322E325B
:1000C000643A25322E32643A25322E3264220022DE
:1000D00025322E32642F25322E32642F25642D25B1
:1000E000322E32643A25322E32643A25322E326470
:1000F00022004F4E004F4646004F4E007B226322A7
:100100003A25642C2273223A25642C2261223A2556
:10011000642C2272223A25642C2274223A256C75B2
:100120007D007B226E6F6465223A222573222C2289
:1001300074797065223A25642C2273746174757326
:10014000223A25642C2274696D65223A256C752C3F
:10015000226576656E74223A25642C22736F75725F
:100160006365223A25642C2264617461223A257306
:100170007D005B256C755D00FB01F601F001EA0175
:10018000E101DB01D401CC01C401BC01B501B00126
:10019000A7019E01960167657462617474006C73B7
:1001A000616C61726D7300736574616C61726D0076
:1001B0006461746500757074696D65007365746E53
:1001C000616D65006765746E616D65006672656579
:1001D0006D656D00616C6C6F666600616C6C6F6E56
:1001E000006368746F67676C6500676574636800B7
:1001F0007365746368006C736368006368636F752C
:100200006E740000000008000201000003040700F3
:1002100000000000000000010204081020408001DE
:10022000020408102001020408102004040404043D
:100230000404040202020202020303030303030094
:1002400000000023002600290000000000250028EF
:10025000002B0000000000240027002A0000100FDF
:1002600047232B0F11241FBECFEFD8E0DEBFCDBF39
:1002700011E0A0E0B1E0EEEDF9E502C005900D92CD
:10028000A436B107D9F723E0A4E6B1E001C01D927E
:10029000A23BB207E1F712E0C2E6D2E004C0229727
:1002A000FE010E948425CE35D107C9F70E947B0F3D
:1002B0000C94E32CA5CEFC012191CF01222351F017
:1002C000332727FD3095205331092A30310598F323
:1002D00080E0089581E00895CF93DF93C82FD0E0A8
:1002E000E0916C01F0916D010384F485E02DEC0F39
:1002F000FD1F80810E94171161E0892B09F060E0E9
:10030000E0916C01F0916D010384F485E02DEC0F18
:10031000FD1F8081DF91CF910C94E2100F931F930A
:10032000CF93DF93EC0188859985892B19F40E947E
:10033000E00F02C00E94D40F0C811D812E813F81ED
:10034000601B710B820B930B609570958095909557
:10035000662797FD6395772788279927862FDF9152
:10036000CF911F910F910895CF93DF93EC01888572
:100370009985892B19F40E94E00F02C00E94D40FC6
:100380006C837D838E839F83DF91CF9108958F92BD
:100390009F92AF92BF92CF92EF920F931F93CF9302
:1003A000DF93EC018FED91E09B838A838EED91E0EA
:1003B0009D838C836E834F8328870987CA86BC867A
:1003C000AB861D861E861F86188A01E010E01E8BF4
:1003D0000D8B0E94D40F8D849E84AF84B888680DE5
:1003E000791D8A1D9B1D698B7A8B8B8B9C8B1F8A39
:1003F000188E198E1A8E18A30F8F0E94D40F0F8992
:10040000188D298D3A8D600F711F821F931F6B8F7E
:100410007C8F8D8F9E8F19A26E2D70E0CE018996F4
:100420000E9475171BA61AA61CA6FE01E95BFF4FCA
:1004300011821082329610823996108211821282B5
:1004400013823496108231961082D0936D01C0933E
:100450006C0124E0C29EC00111240E94860F9BA75C
:100460008AA7DF91CF911F910F91EF90CF90BF900E
:10047000AF909F908F9008958F929F92AF92BF926E
:10048000CF92DF92EF92FF920F931F93CF93DF9360
:10049000EC01FC01E95AFF4F81E0808360E08EE0CF
:1004A0000E94E210CE010E940C17812C912CA12CED
:1004B000B12CC12CD12CEE24E394F12C00E010E0FF
:1004C00020E030E041E050E065E070E08DEA93E04C
:1004D0000E944A23DF91CF911F910F91FF90EF90DF
:1004E000DF90CF90BF90AF909F908F900895AF9284
:1004F000BF92CF92EF920F931F93CF93DF93CDB71D
:10050000DEB761970FB6F894DEBF0FBECDBF5C01BA
:1005100081E1E1E3F1E0DE01119601900D928A950F
:10052000E1F745E0C42E58E0E52E00E0F501208516
:1005300041856781C5010E94611540E1BE016F5F81
:100540007F4FC5010E941717C50189960E947A172F
:1005500020EA3FE040E050E068EB7BE080E090E0A4
:100560000E945F0FF501658776878787908B81E012
:1005700090E0968B858B0E94D40FF501058516853A
:1005800027853089600F711F821F931F618B728BCB
:10059000838B948BC5010D96E7DE61960FB6F894B8
:1005A000DEBF0FBECDBFDF91CF911F910F91EF90B6
:1005B000CF90BF90AF9008958F929F92AF92BF92CD
:1005C000CF92DF92EF92FF920F931F93CF93DF931F
:1005D000EC01FC01E95AFF4F108261E08EE00E94BD
:1005E000E210812C912CA12CB12CCC24C394D12CC1
:1005F000EE24E394F12C00E010E020E030E041E054
:1006000050E060E070E08DEA93E00E944A23CE0162
:100610000E940E17CE01DF91CF911F910F91FF9095
:10062000EF90DF90CF90BF90AF909F908F905FCF73
:10063000CF93DF93EC018A8524E0829FC0011124CF
:100640000196F894F999FECF0E94E72B78948E34A6
:1006500079F0CE01C79620E1FC0111922A95E9F7C5
:100660004FE050E064EA70E0DF91CF910C945F2995
:100670006A85F4E06F9FB00111246E5F7F4FF8949C
:10068000F999FECFCE01C79620E1FC0111922A957F
:10069000E9F74FE050E00E94D72B7894DF91CF919B
:1006A00008958F929F92AF92BF92CF92DF92EF9276
:1006B000FF920F931F93CF93DF93CDB7DEB72E97A3
:1006C0000FB6F894DEBF0FBECDBF8C018091CA017A
:1006D00081110DC00E94D40F60936801709369016D
:1006E00080936A0190936B0181E08093CA01075D5A
:1006F0001F4FBE016F5F7F4FC8010E94B91D892B3C
:10070000F1F10E94D40FC0906801D0906901E0908F
:100710006A01F0906B016C197D098E099F098D802B
:100720009E80AF80B884603273408105910560F58A
:100730008091640190916501A0916601B09167017B
:1007400088169906AA06BB06F9F4C12CD12CE12C17
:10075000F12C8092640190926501A0926601B092A2
:100760006701C8010E942E180E94D40F609368018F
:100770007093690180936A0190936B0108C0C12C4A
:10078000D12CE12CF12C03C064017501E2CFB6013C
:10079000C7012E960FB6F894DEBF0FBECDBFDF9116
:1007A000CF911F910F91FF90EF90DF90CF90BF906E
:1007B000AF909F908F9008958F929F92AF92BF922B
:1007C000CF92DF92EF920F93CF93DF93CDB7DEB747
:1007D000C75AD1090FB6F894DEBF0FBECDBF6C016A
:1007E0000D969CDD882309F480C01A8219820E942C
:1007F000D40F4B015C010E94451FD6011A964C9103
:100800001A97440F440F9A962D913C919B97F601AD
:10081000F79611F4E2E4F1E0D60117965C91A3E0BB
:10082000EC96AFAFEC97ED965FAFED97A1E0B0E03F
:10083000C357DF4FB983A883CD58D040C156DF4F8F
:100840004883CF59D040C056DF4F688379838A836D
:100850009B83C05AD040CC55DF4F88829982AA82B0
:10086000BB82C45AD04080E1ABE7B0E0AC0FBD1F03
:10087000129601900D928A95E1F72115310549F004
:1008800050E0B9018BE790E08C0F9D1F44960E94C9
:100890008F298DE2FE01E558FF4FDE01139601908E
:1008A0000D928A95E1F7ECE0EE2E00E02AE7AE012A
:1008B0004F5F5F4FF6016681C6010E94BE16D601EA
:1008C00051964D915D916D917C9154971D968D91AE
:1008D0009D910D90BC91A02D480F591F6A1F7B1F41
:1008E000F601418B528B638B748BC955DF4F0FB66A
:1008F000F894DEBF0FBECDBFDF91CF910F91EF9087
:10090000DF90CF90BF90AF909F908F9008958F927F
:100910009F92AF92BF92CF92DF92EF92FF920F938E
:100920001F93CF93DF93CDB7DEB7C65FD1090FB664
:10093000F894DEBF0FBECDBF5C01962E872E6E01F0
:100940008BE7C80ED11C88E7F60111928A95E9F76A
:10095000CB50DF4F2883C55FD040CA50DF4F38836C
:10096000C65FD040CD50DF4F4883C35FD040CC50EE
:10097000DF4F5883C45FD0400E94451FF501F796B2
:10098000CB50DF4F2881C55FD040CA50DF4F388140
:10099000C65FD040CD50DF4F4881C35FD040CC50C0
:1009A000DF4F5881C45FD040309711F4E2E4F1E0AA
:1009B0001F930F933F932F935F934F939F938F9327
:1009C0007F936F938F929F921F9281E08F93FF93FB
:1009D000EF9382E291E09F938F93DF92CF920E94F8
:1009E000F529FA82E98288E7F601DE011396019083
:1009F0000D928A95E1F7FCE0EF2E00E02AE7AE01C8
:100A00004F5F5F4FF5016681C5010E94BE160FB6AC
:100A1000F894DEBF0FBECDBFCA50DF4F0FB6F894BB
:100A2000DEBF0FBECDBFDF91CF911F910F91FF9021
:100A3000EF90DF90CF90BF90AF909F908F900895F0
:100A4000CF92DF92EF92FF920F931F93CF93DF939A
:100A5000CDB7DEB7A9970FB6F894DEBF0FBECDBFF6
:100A60006C01E0916C01F0916D01E85AFF4F8381B8
:100A70008F9382818F9381818F9380818F9342E7BF
:100A800051E05F934F938E010F5F1F4F1F930F93A2
:100A90000E94F529A8E0EA2EF12C96014EE050E0E4
:100AA00060E070E080916C0190916D0130DF0FB6D5
:100AB000F894DEBF0FBECDBFA9960FB6F894DEBF87
:100AC0000FBECDBFDF91CF911F910F91FF90EF909F
:100AD000DF90CF900895CF92DF92EF92FF920F9325
:100AE0001F93CF93DF93CDB7DEB7A9970FB6F894D6
:100AF000DEBF0FBECDBF6C0140916C0150916D0106
:100B0000FA01E45BFF4F83818F9382818F93818110
:100B10008F9380818F93349680811F928F93379724
:100B200080811F928F93329680811F928F9331978D
:100B300080811F928F934CEF50E05F934F938E0113
:100B40000F5F1F4F1F930F930E94F529B8E0EB2E04
:100B5000F12C96014DE050E060E070E080916C0176
:100B600090916D01D4DE0FB6F894DEBF0FBECDBFFD
:100B7000A9960FB6F894DEBF0FBECDBFDF91CF911F
:100B80001F910F91FF90EF90DF90CF9008952F92DB
:100B90003F924F925F926F927F928F929F92AF920D
:100BA000BF92CF92DF92EF92FF920F931F93CF935A
:100BB000DF93CDB7DEB7A9970FB6F894DEBF0FBEAF
:100BC000CDBF1C010E94D40F28EE33E040E050E07E
:100BD0000E94EE2449015A011CE3C12ED12CE12CC4
:100BE000F12CCA01B901A70196010E94EE24290146
:100BF0003A01CA01B901A70196010E94EE246901D8
:100C00007A01C90168E170E00E94C724FB01ACE3EE
:100C1000B0E0A30192010E943B25A5019401261B8F
:100C2000370B480B590B1F922F932CE32C9DC001BF
:100C30002D9D900D1124481A590A610871081F92C0
:100C40004F9228E12E9FC0012F9F900D1124C81AAA
:100C5000D90ADD24DF92CF92FF93EF9383EB90E0EC
:100C60009F938F938E010F5F1F4F1F930F930E94CF
:100C7000F52988E0E82EF12C910147E050E060E092
:100C800070E080916C0190916D0141DE0FB6F89497
:100C9000DEBF0FBECDBFA9960FB6F894DEBF0FBE64
:100CA000CDBFDF91CF911F910F91FF90EF90DF901B
:100CB000CF90BF90AF909F908F907F906F905F90FC
:100CC0004F903F902F900895CF92DF92EF92FF9236
:100CD0000F931F93CF93DF93CDB7DEB7A9970FB6CE
:100CE000F894DEBF0FBECDBF6C0140916C015091F6
:100CF0006D01495C5F4F11F442E451E05F934F9303
:100D00004FE950E05F934F938E010F5F1F4F1F938A
:100D10000F930E94F52998E0E92EF12C960148E006
:100D200050E060E070E080916C0190916D01EFDD2A
:100D30000F900F900F900F900F900F90A9960FB6F5
:100D4000F894DEBF0FBECDBFDF91CF911F910F9101
:100D5000FF90EF90DF90CF900895EF92FF920F9366
:100D60001F93CF93DF9340916C0150916D01495BCC
:100D70005F4F61E571E080E090E00E94B1298C0155
:100D8000C0916C01D0916D01009761F438E0E32EC1
:100D9000F12C03E511E020E030E040E050E061E0BC
:100DA00070E017C0CE01C79611F482E491E040E1F3
:100DB00050E0B8010E94A329892BA1F428E0E22E7B
:100DC000F12C03E511E020E030E040E050E065E088
:100DD00070E0CE019CDDDF91CF911F910F91FF90CC
:100DE000EF900895CA8584E0C89FE0011124CE01E8
:100DF0000196F894F999FECF6EE40E94F82BF999C8
:100E0000FECFBE016E5F7F4F4FE050E0C8010E94F1
:100E1000EF2B789480916C0190916D0109DC82E058
:100E200090E0DF91CF911F910F91FF90EF904CCF09
:100E3000CF92DF92EF92FF920F931F93CF93DF93A6
:100E4000CDB7DEB7AB970FB6F894DEBF0FBECDBF00
:100E50006C01AE01465D5F4F6091AE037091AF03D0
:100E60006115710511F462EB73E0461B570B5F933C
:100E70004F934CE950E05F934F938E010F5F1F4FEC
:100E80001F930F930E94F52948E0E42EF12C960160
:100E900049E050E060E070E080916C0190916D015C
:100EA00036DD0F900F900F900F900F900F90AB9634
:100EB0000FB6F894DEBF0FBECDBFDF91CF911F916B
:100EC0000F91FF90EF90DF90CF9008957F928F92D7
:100ED0009F92AF92BF92CF92DF92EF92FF920F93C9
:100EE0001F93CF93DF93CDB7DEB7AB970FB6F894D0
:100EF000DEBF0FBECDBF6C018E010F5F1F4F89E2B9
:100F0000F80111928A95E9F76BE870E0C8010E9438
:100F10007B29712C68E8A62E60E0B62E7E01FAE2ED
:100F2000EF0EF11CE0916C01F0916D018285781655
:100F300070F5872C912C0384F485E02DE80DF91DC4
:100F400080810E9417119F938F93BF92AF92FF925F
:100F5000EF920E94F529B701C8010E949829E091FB
:100F60006C01F0916D01428550E0415051090F90A4
:100F70000F900F900F900F900F90841695062CF401
:100F800066E870E0C8010E947B297394CBCF64E8C7
:100F900070E0C8010E947B2958E0E52EF12C9601F3
:100FA00045E050E060E070E080916C0190916D014F
:100FB000AEDCAB960FB6F894DEBF0FBECDBFDF91AF
:100FC000CF911F910F91FF90EF90DF90CF90BF9046
:100FD000AF909F908F907F9008950F931F93CF9322
:100FE000DF93EC019A85E0E0F0E080E08917B1F052
:100FF000AAA5BBA5AE0FBF1F0D911D912D913C91D0
:101000003496401751076207730731F465D983E0BE
:1010100090E05CDF81E003C08F5FE8CF80E0DF918C
:10102000CF911F910F910895CF92DF92EF92FF928F
:101030000F931F93CF93DF93CDB7DEB7A9970FB66A
:10104000F894DEBF0FBECDBF6C01E0916C01F09152
:101050006D0182851F928F9341E850E05F934F931B
:101060008E010F5F1F4F1F930F930E94F52978E0A9
:10107000E72EF12C960144E050E060E070E08091B2
:101080006C0190916D0143DC0F900F900F900F90C9
:101090000F900F90A9960FB6F894DEBF0FBECDBF8C
:1010A000DF91CF911F910F91FF90EF90DF90CF9044
:1010B0000895CF92DF92EF92FF920F931F93CF93F9
:1010C000DF93CDB7DEB7AB970FB6F894DEBF0FBE98
:1010D000CDBF6C01162F042FF52EFC0182856817F9
:1010E00070F0F8E0EF2EF12C03E511E020E030E0A5
:1010F00040E050E062E070E0C60109DC4BC0F60160
:1011000082A593A5FC0144E0649FE00DF11D11242C
:101110002083318302835383F6014285440F440FB9
:10112000F89450E060E070E02AA73BA70E94EF2B04
:101130007894F6016285660F660F82A593A5F894F0
:10114000462F50E060E070E00E94D72B7894FF9229
:101150000F933BA53F932AA52F931F921F9388E6D9
:1011600090E09F938F938E010F5F1F4F1F930F93FC
:101170000E94F529E5E0EE2EF12C23E030E04BE073
:1011800050E060E070E0C601C2DB0FB6F894DEBF4D
:101190000FBECDBFAB960FB6F894DEBF0FBECDBF6E
:1011A000DF91CF911F910F91FF90EF90DF90CF9043
:1011B00008958F929F92AF92BF92CF92DF92EF925B
:1011C000FF920F93CF93DF93CDB7DEB7CA57D10904
:1011D0000FB6F894DEBF0FBECDBF5C0162DA6B01C3
:1011E0007C01F50184A58823C9F14501F7E18F0E43
:1011F000911CC40193D881112CC0C114D104E10405
:10120000F10409F44AC0F50165A58781681306C099
:10121000A701960166A5C5014CDF1BC0F501C7A655
:10122000D0AAE1AAF2AA82E090E09A8389838AE0B8
:10123000BD96DE01139601900D928A95E1F7BCE010
:10124000EB2E00E02AE7AE014F5F5F4FC5010E9421
:10125000BE16F50114A6C40187D81FC0C114D1045D
:10126000E104F104D1F0B701A601C501B6DE811198
:1012700014C084E090E09A838983CB82DC82ED8283
:10128000FE82ACE0EA2E00E02AE7AE014F5F5F4F3E
:10129000F5016681C5010E94BE16C658DF4F0FB624
:1012A000F894DEBF0FBECDBFDF91CF910F91FF90BD
:1012B000EF90DF90CF90BF90AF909F908F90089568
:1012C000AF92BF92CF92DF92EF92FF920F931F9354
:1012D000CF93DF93CDB7DEB7A9970FB6F894DEBFF3
:1012E0000FBECDBF5C0140916C0150916D01495B17
:1012F0005F4F61E571E080E090E00E94B129C0900D
:101300006C01D0906D01009761F428E0E22EF12C81
:1013100003E511E020E030E040E050E061E070E003
:1013200012C00E941C29D6011A969C91891770F050
:1013300098E0E92EF12C03E511E020E030E040E0F8
:1013400050E062E070E0C601E2DA2AC0D6011B96E6
:10135000ED91FC911C97E80FF11D808168D79927CA
:101360009F938F9387E990E09F938F938E010F5FF8
:101370001F4F1F930F930E94F52988E0E82EF12C50
:10138000950145E050E060E070E080916C01909143
:101390006D01BDDA0F900F900F900F900F900F908E
:1013A000A9960FB6F894DEBF0FBECDBFDF91CF91E7
:1013B0001F910F91FF90EF90DF90CF90BF90AF9073
:1013C0000895CF92DF92EF92FF920F931F93CF93E6
:1013D000DF936C0140916C0150916D01495B5F4F4F
:1013E00061E571E080E090E00E94B1298C014091BC
:1013F0006C0150916D01495B5F4F61E571E080E0E8
:1014000090E00E94B1297C01C0916C01D0916D01E6
:101410000115110541F5009731F564E970E080E0B0
:1014200090E00E946829892B41F460E970E080E037
:1014300090E00E946829892BB1F038E0E32EF12C6E
:1014400003E511E020E030E040E050E061E070E0D2
:10145000CE015DDADF91CF911F910F91FF90EF9058
:10146000DF90CF900895C8010E941C29182F8A850B
:10147000181760F048E0E42EF12C03E511E020E0BD
:1014800030E040E050E062E070E0E2CF6DE870E014
:10149000C7010E94682961E0892B09F060E0EB85B3
:1014A000FC85E10FF11D80818DD6C601DF91CF91C2
:1014B0001F910F91FF90EF90DF90CF9007CDEF92AB
:1014C000FF920F931F93CF93DF938C0140916C0198
:1014D00050916D01495B5F4F61E571E080E090E004
:1014E0000E94B129C0916C01D0916D01009761F407
:1014F00068E0E62EF12C03E511E020E030E040E06A
:1015000050E061E070E010C00E941C299A858917A4
:10151000A0F058E0E52EF12C03E511E020E030E0EA
:1015200040E050E062E070E0CE01F1D9DF91CF9170
:101530001F910F91FF90EF9008950E946C01C801D8
:10154000DF91CF911F910F91FF90EF90BFCC6F92E1
:101550007F928F929F92AF92BF92CF92DF92EF9243
:10156000FF920F931F93CF93DF93CDB7DEB7A99769
:101570000FB6F894DEBF0FBECDBF6C0140916C0179
:1015800050916D01495B5F4F61E571E080E090E053
:101590000E94B1298C010097D1F00E945B0181115A
:1015A00011C0E8E0EE2EF12C03E511E020E030E080
:1015B00040E050E061E070E080916C0190916D013D
:1015C000A6D944C0C8010E9439290E94141F0E9454
:1015D000E11F782E692E0E94DB1F982E892E0E9413
:1015E000D51FB82EA92E0E94F31FF82EE92E0E94B7
:1015F000E71F182F092F0E94ED1F6F927F928F9285
:101600009F92AF92BF92EF92FF920F931F939F937F
:101610008F938FEC90E09F938F938E010F5F1F4FFE
:101620001F930F930E94F52978E0E72EF12C960185
:1016300046E050E060E070E080916C0190916D01B7
:1016400066D90FB6F894DEBF0FBECDBFA9960FB610
:10165000F894DEBF0FBECDBFDF91CF911F910F91E8
:10166000FF90EF90DF90CF90BF90AF909F908F90C2
:101670007F906F9008950F931F93CF93DF93EC01AA
:10168000062F10E08A85181748F4EB85FC85E10FDA
:10169000F11D602F808196D51F5FF4CFDF91CF9130
:1016A0001F910F910895CF93DF93EC0160E080913B
:1016B0006C0190916D01DFDFCE01DF91CF9106CCFF
:1016C000CF93DF93EC0161E080916C0190916D010B
:1016D000D2DFCE01DF91CF91F9CB4F925F926F9223
:1016E0007F928F929F92AF92BF92CF92DF92EF92B2
:1016F000FF920F931F93CF93DF93EC0112E3C12C62
:10170000D12C76010EE4412CA0E35A2EA1E16A2EE1
:10171000712CB2E38B2E912CA12CB12C00937C0068
:1017200062E070E080E090E06ED480917A008064A6
:1017300080937A0080917A0086FDFCCF80917800BA
:101740002091790030E0322F2227442737FD409541
:10175000542F282BC301B2010E941025CA01B901E0
:10176000A50194010E941025C20ED31EE41EF51E91
:101770001150A1F68E010A5A1F4F2DE1C2162CE01E
:10178000D206E104F10464F5F8018081811128C0DA
:1017900081E0F8018083FE01E85AFF4FC082D182C8
:1017A000E282F38201D4FE01EE5AFF4F608371831F
:1017B00082839383CE010E943C02CE01DF91CF91C0
:1017C0001F910F91FF90EF90DF90CF90BF90AF905F
:1017D0009F908F907F906F905F904F900C943C0201
:1017E000F8018081882341F0FDE1CF16FCE0DF069F
:1017F000E104F104A4F5E1CFFDE1CF16FCE0DF0642
:10180000E104F10414F5D9CFEB85FC85EE0DF11D53
:1018100080810DD52F2D30E0282BFF24F394232B2E
:1018200009F4F12CE3948A85E81670F361E06F25E2
:10183000CE0121DFCE010E94DC0282E090E046DB97
:1018400081E090E0FDD8F8011082F80180818823C2
:1018500009F1CE010E94DC02F80110821BC0A4D362
:10186000FE01EE5AFF4FC080D180E280F3806C19F8
:101870007D098E099F09693B7B408105910538F000
:10188000CE010E943C0260E0CE01F5DEDECFE12C0D
:10189000F12CC9CFDF91CF911F910F91FF90EF9065
:1018A000DF90CF90BF90AF909F908F907F906F9080
:1018B0005F904F900895CF93DF9380916C0190914A
:1018C0006D01FC01E65BFF4F2081EC013A85DC01F4
:1018D000A55BBF4F231718F06C91CDDE08C0EC015B
:1018E000EB85FC85E20FF11D6C9180816BD484E067
:1018F00090E0DF91CF91EACACF93DF93EC01E091C2
:101900006C01F0916D01228534E0239FC001112408
:101910004296F894F999FECF0E94E72B789481348F
:1019200049F0C75BDF4F88E0FE0111928A95E9F725
:10193000188216C0E0916C01F0916D016285F4E0AF
:101940006F9FB00111246D5E7F4FF894F999FECF1F
:1019500048E050E0CE01875B9F4F0E94D72B7894E0
:10196000DF91CF9108951F93CF93DF93EC0110E0A7
:101970008A85181748F4EB85FC85E10FF11D61E0BD
:101980008081E7D31F5FF4CF60E0CE0174DE82E197
:101990009AD3BC01882777FD8095982F64D24A8519
:1019A000440F440F8AA59BA5F89450E060E070E0D6
:1019B0000E94D72B7894CE010E941803CE019CDFA1
:1019C000CE010E94770261E08EE0C3D361E08EE039
:1019D000DF91CF911F91F6C37F928F929F92AF922A
:1019E000BF92CF92DF92EF92FF920F931F93CF930C
:1019F000DF9340916C0150916D01495B5F4F61E550
:101A000071E080E090E00E94B1298C0140916C016E
:101A100050916D01495B5F4F61E571E080E090E0BE
:101A20000E94B1295C0140916C0150916D01495BAC
:101A30005F4F61E571E080E090E00E94B1297C0198
:101A400040916C0150916D01495B5F4F61E571E020
:101A500080E090E00E94B1296C0140916C015091AE
:101A60006D01495B5F4F61E571E080E090E00E94AD
:101A7000B1294C01C0916C01D0916D010115110586
:101A800019F5A114B10401F5E114F104E9F400978A
:101A9000D9F4C114D104C1F480E090E00E945B014C
:101AA000811112C069EF70E080E090E00E94682927
:101AB000892B09F083C065EF70E080E090E00E9420
:101AC0006829892B09F07AC0C8010E941C29782E48
:101AD0008A85781660F008E0E02EF12C03E511E02D
:101AE00020E030E040E050E062E070E072C0C4010D
:101AF0000E941C298C01C6010E941C2999249394E0
:101B0000892B09F4912CC7010E9439296B017C01B2
:101B1000FE01E75BFF4F81E0012B09F480E0808349
:101B2000FE01E05BFF4F90823697708262EF70E0BB
:101B3000C5010E946829FE01E55BFF4F21E0892B6A
:101B400009F020E02083FE01E45BFF4FC082D182D8
:101B5000E282F38289E693E00E941A228E010F5AF4
:101B60001F4F813049F4A7019601F801608189E691
:101B700093E00E94A4210FC02BE53CE0B701A60131
:101B800089E693E0992019F00E942E2302C00E945A
:101B90001523F8018083CE01AFDE82E090E0DF9173
:101BA000CF911F910F91FF90EF90DF90CF90BF905A
:101BB000AF909F908F907F900C946B0518E0E12E72
:101BC000F12C03E511E020E030E040E050E061E07E
:101BD00070E0CE010E948704DF91CF911F910F9199
:101BE000FF90EF90DF90CF90BF90AF909F908F903D
:101BF0007F900895CF92DF92EF92FF920F931F9301
:101C0000CF93DF936C01CB01A601495B5F4F61E588
:101C100071E00E94B1297C010097B1F0FC01808144
:101C2000882391F008E711E0C0E0D0E0F801659169
:101C30007491C7010E948629892BE9F021960E5FD5
:101C40001F4FCE31D10591F798E0E92EF12C03E535
:101C500011E020E030E040E050E061E070E0C601DB
:101C60000E948704DF91CF911F910F91FF90EF9019
:101C7000DF90CF900895CC0FDD1FC65FDE4FE88167
:101C8000F98182E090E0DF91CF911F910F91FF9059
:101C9000EF90DF90CF900994CF92DF92EF92FF9276
:101CA0000F931F93CF93DF93CDB7DEB7CA57D109F8
:101CB0000FB6F894DEBF0FBECDBF8C0192D788233C
:101CC00009F47EC08091610290916202892B09F033
:101CD00077C0C8010E941017482F50E0F8016281B8
:101CE0007381CE0101960E948F29E980FA80F3E08A
:101CF000EF16F10439F44B815C816D817E81C8015E
:101D00006CD95EC084E0E816F1040CF045C0E1E057
:101D1000EE16F10459F5D8019D968AE0FE0133963E
:101D200001900D928A95E1F7F80114A6C801479633
:101D30000E94B401F80183A994A9A5A9B6A921E03C
:101D400024A7878B908FA18FB28FF0A2E78E2CD122
:101D5000F801C788D08CE18CF28C6C0D7D1D8E1D36
:101D60009F1D638F748F858F968F2AC0F2E0EF16C8
:101D7000F10431F59B81F8018781981321C014A6E5
:101D8000C80147960E94B4012D813E814F8158853C
:101D90006C81C8018ED914C086E0E816F10431F4D4
:101DA000BE016D5F7F4FC80125DF0AC0E7E0EE1678
:101DB000F10431F46B817C818D819E810E94141F1E
:101DC000C658DF4F0FB6F894DEBF0FBECDBFDF9110
:101DD000CF911F910F91FF90EF90DF90CF900895DA
:101DE0008EE691E0C0CD8091C501811116C08EE6CE
:101DF00091E0DFD98EE691E04FDF8EE691E00E9420
:101E0000DC038091B701882341F048EE53E060E0A5
:101E100070E089E693E00E9492228EE691E05DCC2C
:101E2000AF92BF92CF92EF920F9325E5A22E21E0C1
:101E3000B22E33E0C32E40E1E42E02E023E643E07D
:101E400061E08EE691E00E94C7010F91EF90CF9084
:101E5000BF90AF900895809198019091990100975B
:101E600009F056C00895611571058105910511F0BD
:101E70000C9413290895CF93DF9300D000D0CDB7F1
:101E8000DEB79B01AC01611571058105910569F013
:101E900069833A834B835C830E94102929813A81AC
:101EA0004B815C810E94102503C060E070E0CB0193
:101EB0000F900F900F900F90DF91CF910895CF92D8
:101EC000DF92EF92FF926B017C0162177307840728
:101ED00095075CF4CA01B9016C197D098E099F0947
:101EE000CADF6C0D7D1D8E1D9F1DFF90EF90DF9052
:101EF000CF9008950895ACD0FDDF72DFC0E0D0E050
:101F000072DF2097E9F30E940000FACF0C949F271C
:101F10000C9437281F920F920FB60F9211242F9313
:101F20003F938F939F93AF93BF938091D3019091F1
:101F3000D401A091D501B091D6013091D20126E013
:101F4000230F2D3720F40296A11DB11D05C029E8ED
:101F5000230F0396A11DB11D2093D2018093D301BD
:101F60009093D401A093D501B093D6018091D7016D
:101F70009091D801A091D901B091DA010196A11DEB
:101F8000B11D8093D7019093D801A093D901B0934C
:101F9000DA01BF91AF919F918F913F912F910F9057
:101FA0000FBE0F901F9018952FB7F8946091D30132
:101FB0007091D4018091D5019091D6012FBF0895E1
:101FC0003FB7F8948091D7019091D801A091D901A1
:101FD000B091DA0126B5A89B05C02F3F19F00196F4
:101FE000A11DB11D3FBF6627782F892F9A2F620F41
:101FF000711D811D911D43E0660F771F881F991F7A
:102000004A95D1F70895CF92DF92EF92FF92CF9346
:10201000DF936B017C01D4DFEB01C114D104E10437
:10202000F10479F02CD1CCDF6C1B7D0B683E734042
:10203000A0F381E0C81AD108E108F108C851DC4FCB
:10204000ECCFDF91CF91FF90EF90DF90CF9008958C
:10205000789484B5826084BD84B5816084BD85B583
:10206000826085BD85B5816085BDEEE6F0E080814A
:1020700081608083E1E8F0E010828081826080836B
:10208000808181608083E0E8F0E0808181608083EE
:10209000E1EBF0E0808184608083E0EBF0E0808120
:1020A00081608083EAE7F0E08081846080838081C2
:1020B0008260808380818E7F80838081806880833E
:1020C0001092C10008958E3008F08E5087702091D4
:1020D000280190E4299F90011124822B80937C0099
:1020E00080917A00806480937A0080917A0086FDE6
:1020F000FCCF809178002091790090E0922B089598
:10210000833081F028F4813099F08230A1F0089575
:102110008730A9F08830B9F08430D1F48091800004
:102120008F7D03C0809180008F7780938000089519
:1021300084B58F7702C084B58F7D84BD089580916A
:10214000B0008F7703C08091B0008F7D8093B00086
:102150000895CF93DF9390E0FC01E95EFD4F249159
:10216000FC01E55DFD4F8491882349F190E0880FE3
:10217000991FFC01ED5AFD4FA591B491875B9D4FCE
:10218000FC01C591D4919FB7611108C0F8948C915E
:10219000209582238C93888182230AC0623051F477
:1021A000F8948C91322F309583238C938881822BE5
:1021B000888304C0F8948C91822B8C939FBFDF910D
:1021C000CF9108950F931F93CF93DF931F92CDB7B5
:1021D000DEB7282F30E0F901ED5FFD4F8491F90162
:1021E000E95EFD4F1491F901E55DFD4F0491002377
:1021F000C1F0882319F0698383DF6981E02FF0E063
:10220000EE0FFF1FE75BFD4FA591B4919FB7F894C8
:102210008C91611103C01095812301C0812B8C9397
:102220009FBF0F90DF91CF911F910F910895CF9392
:10223000DF93282F30E0F901ED5FFD4F8491F90124
:10224000E95EFD4FD491F901E55DFD4FC491CC23CA
:1022500089F0811155DFEC2FF0E0EE0FFF1FE15CFC
:10226000FD4FA591B4912C912D2381E090E021F4B4
:1022700080E002C080E090E0DF91CF910895089562
:102280008627682F62956827062E669566956025D5
:10229000062E669560256770082E892F669507942F
:1022A0006795902D86270694679590258627089533
:1022B0002F923F924F925F926F927F928F929F9256
:1022C000AF92BF92CF92DF92EF92FF920F931F9344
:1022D000CF93DF9300D000D000D0CDB7DEB78823F6
:1022E00009F448C1E091DE01809175029091760277
:1022F000A0917702B09178020196A11DB11D809343
:10230000750290937602A0937702B0937802F0E082
:10231000E152FE4F80839183A283B3838091DE01DB
:10232000809583709091DE01980F9093DE01E0918B
:10233000DE01F0E0E152FE4F90819F739083E091C7
:10234000DE01F0E0E152FE4F208100E4809FC001F9
:102350001124282B20838091DE018F5F8093DE0182
:102360002091DE012695269522300CF457C23327A2
:1023700027FD30951901220C331C220C331CB101AE
:1023800065527E4F1B01FB0180819181A281B38147
:1023900040E050E0BA018901015011091C830B8310
:1023A00047545648684C71468A019B01E2E03695D5
:1023B000279517950795EA95D1F7E02FE370EE83FF
:1023C0001D820D81202F30E04C015D01F4E0880C6E
:1023D000991CAA1CBB1CFA95D1F76C017D0115E074
:1023E000F694E794D794C7941A95D1F7EB81FC81C2
:1023F0002E173F070CF062C02F5F3F4F220F331F95
:10240000220F331FF901E152FE4F4080518062805C
:102410007380890105521E4F1A830983930182013B
:10242000E3E03695279517950795EA95D1F70825A6
:1024300019252A253B2553014201F2E0880C991CFD
:10244000AA1CBB1CFA95D1F78C249D24AE24BF2472
:10245000080D191D2A1D3B1DED81E370FE2EFE8126
:10246000FF26E4E0FE9E70011124F701EB59FD4FB9
:10247000C080D180E280F3808C259D25AE25BF25CC
:102480004426552666267726840D951DA61DB71D64
:1024900080279127A227B327E981FA810081118142
:1024A00022813381800F911FA21FB31F80839183EC
:1024B000A283B383FD81FF5FFD8383CF0091DF01A2
:1024C0001091E0012091E1013091E201FD81F37072
:1024D000EE81FE27E4E0FE9F30011124F301EB5969
:1024E000FD4F408051806280738084259525A6250C
:1024F000B7252A013B014026512662267326840D0A
:10250000951DA61DB71D28013901F3E07694679447
:1025100057944794FA95D1F7482459246A247B2488
:10252000E2E0000F111F221F331FEA95D1F70C259F
:102530001D252E253F25400E511E621E731E84252B
:102540009525A625B725F1010081118122813381CE
:10255000800F911FA21FB31F80839183A283B38337
:102560004635FAED5F07FCE46F07F5EB7F0709F0EE
:1025700017CF54C18091610290916202892B09F0BA
:102580004DC14091DE014695469542300CF428C17C
:102590008091DF019091E001A091E101B091E20111
:1025A00004E0409F10011124910125523E4F190172
:1025B00006E51AED2CE435EB41504B83B901A80137
:1025C000E2E07695679557954795EA95D1F7E42F20
:1025D000E370ED83FB81FE836E81462F50E0415016
:1025E000504C440F551F440F551FFA01E152FE4F46
:1025F000C080D180E280F380FA01ED51FE4FFA8372
:10260000E983B701A601E4E0440F551F661F771F59
:10261000EA95D1F74C015D01F3E0B694A794979445
:102620008794FA95D1F7482559256A257B254601D7
:102630005701E5E0B694A79497948794EA95D1F76B
:102640002C013D01F2E0440C551C661C771CFA95E8
:10265000D1F784249524A624B724480D591D6A1D5A
:102660007B1DFE81F370ED81FE27E4E0FE9F5001AB
:102670001124F501EB59FD4F80809180A280B38039
:102680008C249D24AE24BF2480279127A227B32722
:10269000880E991EAA1EBB1E482559256A257B2532
:1026A000E981FA8180819181A281B381841B950B9C
:1026B000A60BB70B80839183A283B383FE81F15075
:1026C000FE83F11189CFF101C080D180E280F380D7
:1026D000AC01BD01E3E07695679557954795EA957E
:1026E000D1F746015701F4E0880C991CAA1CBB1CC9
:1026F000FA95D1F7482559256A257B254C015D01BE
:10270000E2E0880C991CAA1CBB1CEA95D1F72601B3
:102710003701F5E07694679457944794FA95D1F78A
:1027200084249524A624B724480D591D6A1D7B1DB9
:1027300080279127A227B327ED81F4E0EF9F500176
:102740001124F501EB59FD4F80809180A280B38068
:102750008C249D24AE24BF24880D991DAA1DBB1D69
:10276000482759276A277B278091DF019091E00154
:10277000A091E101B091E201841B950BA60BB70B70
:102780008093DF019093E001A093E101B093E20117
:10279000095B194727433E4909F010CFE091DE015C
:1027A000E150E093DE01F0E0E152FE4F40814295BE
:1027B000469546954370E091DE01F0E0E152FE4F10
:1027C00080818F7390E0A0E0B0E0809379029093D5
:1027D0007A02A0937B02B0937C0220E030E003C039
:1027E0004423E1F0DBCF421789F0E091DE01E150B4
:1027F000E093DE01F0E0E152FE4F5081BA2FA92FA5
:10280000982F88272F5F3F4F852BEDCF809379023C
:1028100090937A02A0937B02B0937C0226960FB627
:10282000F894DEBF0FBECDBFDF91CF911F910F9106
:10283000FF90EF90DF90CF90BF90AF909F908F90E0
:102840007F906F905F904F903F902F90089525B1AB
:1028500081E090E0A0E0B0E0AC01BD0100907F021B
:1028600004C0440F551F661F771F0A94D2F7242B0C
:1028700025B924B100907F0204C0880F991FAA1FB8
:10288000BB1F0A94D2F7282B24B961E08AE09ADCB6
:1028900061E08AE05EDC61E08BE05BDC60E08CE0C4
:1028A00058DC61E08DE055DC80E58CBD60E082E0C5
:1028B00050DC61E082E086CC8EBD0DB407FEFDCF1A
:1028C0008EB50895CF92DF92EF92FF921F93CF9330
:1028D000DF93182F85B1C12CD12C7601C394B70199
:1028E000A60100907F0204C0440F551F661F771F8A
:1028F0000A94D2F74095482345B9892FDDDFC82FC8
:10290000D0E0DC2FCC27812FD7DF95B100907F025C
:1029100004C0CC0CDD1CEE1CFF1C0A94D2F79C29D1
:1029200095B99E01282BC901DF91CF911F91FF908E
:10293000EF90DF90CF900895CF92DF92EF92FF92C9
:10294000CF93C82F85B1C12CD12C7601C394B70188
:10295000A60100907F0204C0440F551F661F771F19
:102960000A94D2F74095482345B9892FA5DF8C2FCB
:10297000A3DF85B100907F0204C0CC0CDD1CEE1CEF
:10298000FF1C0A94D2F78C2985B9CF91FF90EF9064
:10299000DF90CF900895CF9380E090E0CDDF8091DD
:1029A0006302853081F580E090EB8CDF682F8091A9
:1029B0006402811104C090917D02911171C0E09177
:1029C000640281E08E0F80936402F0E0E552FE4FD6
:1029D0006083809161029091620252DC9093620266
:1029E000809361028091DE012091640290E005965F
:1029F00030E0821793070CF45EC080916402863841
:102A000008F059C05CC08091630287FF19C0E09153
:102A1000DE018091630291E0980F90936302EC5F76
:102A2000E80FF0E0E552FE4FC08180916102909185
:102A300062026C2F25DC90936202809361022CC0AD
:102A40008091630291E0980F90936302833001F1CB
:102A500054F48823B9F08130F1F4809161029091AF
:102A60006202C92F19C0893059F08A30A1F4C0918F
:102A70007D029091DE018DEF891B809363020CC073
:102A8000CDE20AC08091610290916202C82F04C019
:102A90008DE092E851DFCAEA8C2F90E098540DC087
:102AA000E091640281E08E0F80936402F0E0E552D1
:102AB000FE4F908384CF8DE092E8CF913DCFCF91B0
:102AC0000895EF920F93CF93C42F32E030937F029B
:102AD00060937E0220937D02BADE80E090E02CDFDE
:102AE00085E092E829DF80E098EB26DF82E09FDB3B
:102AF000892B19F480E090E0F8CF20E1C29FC0015B
:102B00001124876C906818DF80E496EA15DF8E2D1B
:102B100090E09A5311DF82EA94E90EDF8CEA92EC9E
:102B20000BDF80917D02882341F083E89AEC04DF7B
:102B300080917D0290E09E6C05C08BE89AECFCDEF3
:102B40008DE29EECF9DE83E894ECF6DE083028F4A2
:102B5000802F90E08065986902C087E598E9ECDEF7
:102B600087E79CECE9DE80E090EEE6DE80E098EC22
:102B7000E3DE83E490ECE0DE84E080936302809106
:102B80007E02882351F040E050E06BEC74E180E07D
:102B9000CF910F91EF900C94382480E0CF910F915A
:102BA000EF900C945824CB01E8988CDEE89A0895B5
:102BB0001092DE01109264028FEF9FEF90936202F9
:102BC0008093610260917D02662329F059DB909326
:102BD00062028093610285E0809363028DED92E84A
:102BE000ABCE20916302253039F52091DE01409172
:102BF000640230E02B5F3F4F50E02417350724F08C
:102C0000209164022638C0F024E0209363022091D2
:102C1000DE01213830F021E030E030936202209371
:102C200061022091DC012F7771F02091DC012F7778
:102C300030917E02231739F020916302243009F489
:102C4000B7DF80E008952091610230916202232B6A
:102C500041F4DC01ED91FC91309719F080E0099589
:102C60000BC08FEF9FEFDC018093790290937A0283
:102C7000A0937B02B0937C0281E00895809163026F
:102C8000853079F48091640281110BC015DE80FDDE
:102C900008C08DE092E850DE84E08093630281E01A
:102CA000089580E00895222311F020E801C020E07B
:102CB000262B2093DC0130917E02442311F020E882
:102CC00001C020E0232B2093DD01DC01ED91FC917C
:102CD000309711F081E009958FEF9FEF909362029A
:102CE00080936102809161029091620260917D0205
:102CF000C7DA909362028093610286E08093630258
:102D00008DE392E819CE809163028430B9F0662396
:102D1000D1F383B7817F633021F0623021F49CE0EE
:102D200003C094E001C090E0892B83BF83B781602A
:102D300083BF889583B78E7F83BFE5CF0895CF92F9
:102D4000EF920F931F93CF93DF93EC01162FBA01ED
:102D50002093DE01422F50E08FED91E00E948F29F9
:102D60002E2D402F612FCE019EDF6C2DCE01DF91E5
:102D7000CF911F910F91EF90CF90C5CF8F929F92DF
:102D8000AF92BF92CF92EF920F93CF93DF9300D089
:102D9000CDB7DEB74C015A01C4012A8369836EDFC7
:102DA0002A816981811107C0C4012A83698319DFDF
:102DB00069812A81F1CFCE2CE12CA501C401BFDFAE
:102DC0000F900F90DF91CF910F91EF90CF90BF9028
:102DD000AF909F908F9008951F93CF93DF93EC0156
:102DE000162F67FF03C06DE072E80DC0772767FDFF
:102DF0007095756ED8DE65E072E8CE01D4DE1123E1
:102E000021F067E072E8CE01CEDE84E080936302B9
:102E1000DF91CF911F91089560E0DECF6FEFDCCF9F
:102E2000DC011496ED91FC91159780810895611550
:102E3000710589F0DB0125E632E0F9015E2F521BB6
:102E4000541718F45D915193F9CF28E531E1FC0155
:102E5000318320830895FC01118210820895CF925E
:102E6000DF92EF92FF92CF93DF93EC01882777FDFB
:102E70008095982F0E948C266B017C0120E030E029
:102E800040E45FE30E943C2720E030E048E452E465
:102E90000E94F1250E945926C617D707ECF020E0C2
:102EA00030E040EA5FE3C701B6010E943C2720E022
:102EB00030E048E452E40E94F12520E030E040E8B0
:102EC0005FE30E9489250E94592621E06C177D0747
:102ED0000CF420E0822F01C080E090E0DF91CF91E0
:102EE000FF90EF90DF90CF90089560938002109252
:102EF00082020895F89482E08093B0008093B1003C
:102F000092E39093B3001092B20080937000789493
:102F10008093810210924D038091800260E019C974
:102F20001F920F920FB60F9211242F933F934F933E
:102F30005F936F937F938F939F93AF93BF93EF9321
:102F4000FF938091800273D9209183023091840293
:102F50002F5F3F4F309384022093830290914D0363
:102F6000943618F095E0909381029091810293300D
:102F7000B9F018F4923039F057C0943059F19530C7
:102F800009F44CC051C081114FC02091830230918F
:102F900084022436310508F443C010924D031CC04E
:102FA000813009F041C0E0914D0391E09E0F909374
:102FB0004D03F0E02091830230918402EE0FFF1F59
:102FC000E058FD4F368325831092840210928302CD
:102FD00094E021C0811117C0E0914D0391E09E0F54
:102FE00090934D03F0E02091830230918402EE0F24
:102FF000FF1FE058FD4F3683258310928402109204
:10300000830293E008C02091830230918402253628
:10301000310550F095E09093810206C0811104C003
:10302000109284021092830290918202992329F0D7
:10303000811102C02D9A01C02D98FF91EF91BF918F
:10304000AF919F918F917F916F915F914F913F9140
:103050002F910F900FBE0F901F90189582E08093D4
:10306000810210924D030895CF93DF93FB01C28537
:10307000D3858A819B81885891098D35910500F50A
:1030800080914D03843029F48C819D8180974797EE
:10309000D8F080914D03843498F08C819D818254C6
:1030A00091098E9768F4269623E030E080E090E066
:1030B000DC01488159814950510949305105D8F006
:1030C00060E070E0CB013AC08E819F81099709973B
:1030D00000F7118610868FEF9FEFDC0184839583C4
:1030E000A683B78381E090E09183808361E070E004
:1030F00080E090E023C04A815B8146515109413113
:10310000510580F4880F991FAA1FBB1F81602E5F95
:103110003F4F24962334310561F620E230E03187B9
:103120002087DCCF4A815B814650510947305105E9
:1031300038F6880F991FAA1FBB1FE9CFDF91CF91E7
:1031400008950F931F93CF93DF93FB0180914D035D
:103150008A3108F44DC0C285D38588819981843F26
:10316000914060F4118610868FEF9FEFDC0184831D
:103170009583A683B78389E090E033C08A819B81E1
:1031800085974B97A8F58E010A5F1F4F22E030E02C
:1031900080E090E0DC0140914D0350E0B9016F5FA9
:1031A0007F4F641775075CF4A80142505109EA018A
:1031B000488159814750510947305105E8F0215065
:1031C000310935952795318720872C3031051CF43E
:1031D000118610860DC084839583A683B78382E011
:1031E00090E09183808361E070E080E090E023C014
:1031F00060E070E0CB011FC0E80148815981435174
:1032000051094F30510550F4880F991FAA1FBB1F59
:1032100081602E5F3F4F0C5F1F4FBDCFE80148819B
:1032200059814A5051094930510510F7880F991FAB
:10323000AA1FBB1FEECFDF91CF911F910F91089571
:103240000F931F93CF93DF93FB0180914D038A313E
:1032500008F451C0C285D38588819981803293401A
:1032600030F4118610868FEF9FEFDC0107C08A8152
:103270009B81C697869708F442C03DC0848395839E
:10328000A683B78389E090E09183808361E070E05A
:1032900080E090E04FC0E8014881598145525109D2
:1032A0004B315105D0F5880F991FAA1FBB1F8160B4
:1032B0002E5F3F4F0C5F1F4F40914D0350E0B9010F
:1032C0006F5F7F4F641775075CF4A8014250510986
:1032D000EA01488159814C5051094B305105D8F2CF
:1032E0002150310935952795318720872C303105BC
:1032F0002CF61186108660E070E0CB011BC08C813B
:103300009D81C6978697B8F78E01085F1F4F23E00F
:1033100030E080E090E0DC01CFCFE80148815981C6
:103320004C5051094A30510530F7880F991FAA1F98
:10333000BB1FBECFDF91CF911F910F910895EF92E8
:10334000FF920F931F93CF93DF93FB0180914D0367
:10335000823208F44DC0C285D3858A819B8106974D
:10336000079708F045C07E0186E0E80EF11C22E0D8
:1033700030E080E090E0DC01B9016F5F7F4F409169
:103380004D0350E064177507D4F4E70122970881D4
:1033900019810E5111090731110570F5880F991F18
:1033A000AA1FBB1F8160E70148815981D4E0ED0E5F
:1033B000F11C435051094530510550F19B012150FA
:1033C00031093595279531872087203131051CF447
:1033D000118610860DC084839583A683B7838AE007
:1033E00090E09183808361E070E080E090E013C022
:1033F00060E070E0CB010FC0488159814C50510909
:103400004B305105A8F7880F991FAA1FBB1FCBCFC0
:103410002E5F3F4FB1CFDF91CF911F910F91FF9062
:10342000EF9008958F929F92AF92BF92CF92DF92CA
:10343000EF92FF920F931F93CF93DF937A0169016D
:10344000DA01CD91DC91FB0184859585C817D907F8
:103450000CF047C0CE01880F991F0284F385E02D40
:10346000E80FF91FA080B180C170DD27F1E0CF2700
:10347000209719F484E690E002C08CE99FEF4801A0
:10348000880E991EB401C501EADC892B89F4800EEF
:10349000911EB401C501E3DC892B69F4B401600F0E
:1034A000711FC501DCDC892BF9F023E030E005C099
:1034B00021E030E002C022E030E0D6018D919C9105
:1034C000119701968217930744F0F601118210823A
:1034D000D7018D919C91119701968D939C93CE016C
:1034E00005C081E090E002C08FEF9FEFDF91CF91A8
:1034F0001F910F91FF90EF90DF90CF90BF90AF9012
:103500009F908F9008954F925F926F927F928F92CB
:103510009F92AF92BF92CF92DF92EF92FF920F9362
:103520001F93CF93DF9300D000D0CDB7DEB76C01EF
:103530007B0180914D038D3020F460E070E0CB0181
:1035400075C081E090E09C838B831A82198209E721
:1035500013E09E012F5F3F4FAE014D5F5F4FC601ED
:1035600061DF892B51F79E012F5F3F4FAE014D5F09
:103570005F4FB701C60156DF0197F9F69E012F5F35
:103580003F4FAE014D5F5F4FB701C6014BDF892B47
:10359000A1F6A12CB12C412C512C320180914D036C
:1035A00090E02B813C81281739078CF509E713E05F
:1035B0009E012F5F3F4FAE014D5F5F4FB701C601C8
:1035C00031DF4C019E012F5F3F4FAE014D5F5F4FDA
:1035D000B701C60127DF21E08216910451F4892B3F
:1035E00009F0ABCF440C551C661C771C689440F85E
:1035F0000AC0892809F0A1CF019709F09ECF440C99
:10360000551C661C771C8FEFA81AB80AC7CFF701A4
:10361000B186A086448255826682778283E090E0FC
:103620009183808361E070E080E090E00F900F90E4
:103630000F900F90DF91CF911F910F91FF90EF901E
:10364000DF90CF90BF90AF909F908F907F906F90C2
:103650005F904F9008952F923F924F925F926F929A
:103660007F928F929F92AF92BF92CF92DF92EF9212
:10367000FF920F931F93CF93DF9300D000D0CDB76D
:10368000DEB76C017B01DB011C968D919C911D972F
:103690001816190624F060E070E0CB01AEC081E09E
:1036A00090E09C838B83DB011A96ED91FC911B9734
:1036B0008281938189974E9770F782E090E09C8396
:1036C0008B83848195810B970A9728F783E090E09C
:1036D0009C838B831A8219820CEB11E09E012F5F71
:1036E0003F4FAE014D5F5F4FC6019CDE892B99F6BF
:1036F0000CEB11E09E012F5F3F4FAE014D5F5F4F1E
:10370000B701C6018FDE019731F6A12CB12C212C17
:10371000312C21012B813C81F70184859585281767
:1037200039070CF05CC00CEB11E09E012F5F3F4F9E
:10373000AE014D5F5F4FB701C60174DE3C01B3E0DF
:10374000AB16B10489F00CEB11E09E012F5F3F4FE7
:10375000AE014D5F5F4FB701C60164DE4C01E3E08F
:10376000AE16B104F9F40FC00CEB11E09E012F5F0F
:103770003F4FAE014D5F5F4FB701C60153DE681684
:10378000790609F388CF0CEB11E09E012F5F3F4FC4
:10379000AE014D5F5F4FB701C60144DE8816990642
:1037A00009F079CF6114710459F48A94892809F0D9
:1037B00072CF220C331C441C551C689420F80BC09B
:1037C0006A94672809F067CF892809F064CF220C32
:1037D000331C441C551CAFEFAA1ABA0A9BCFB18602
:1037E000A086248235824682578284E090E09183CD
:1037F000808361E070E080E090E00F900F900F9088
:103800000F90DF91CF911F910F91FF90EF90DF907C
:10381000CF90BF90AF909F908F907F906F905F9070
:103820004F903F902F9008950F931F93CF93DF9366
:10383000FB01A285B38512968D919C911397C69733
:103840008697D0F414968D919C9115974B97459738
:1038500098F41696C3E0D0E020E030E040E050E07D
:1038600060E070E080E090E00D911C9111970950AC
:1038700011090830110520F060E070E0CB0135C07F
:1038800012960D911C911397015111090D301105DC
:10389000F8F401E00E944B25216022961496C3366D
:1038A000D10511F7248335834683578300E20E94B4
:1038B00066252283338387E090E09183808380E3D1
:1038C00090E09187808761E070E080E090E00DC03B
:1038D00012960D911C911397045011090530110592
:1038E00058F601E00E944B25D8CFDF91CF911F9170
:1038F0000F9108950F931F93CF93DF93FB01809156
:103900004D03028513858232A9F4D80112968D9158
:103910009C9113970A97099768F480914D03D801F9
:10392000A80FB11DA80FB11D12978D919C910A97F8
:10393000099770F0D80112968D919C911397895731
:1039400091098335910550F060E070E0CB015EC0D5
:10395000118610868FEF9FEFDC014CC080914D03E4
:10396000813290F3E8018C819D81CA97899760F735
:1039700098012A5F3F4F43E050E080E090E0DC0197
:10398000E901688179816A50710969307105E0F651
:10399000E9016A817B816651710961317105E0F449
:1039A000880F991FAA1FBB1F81604E5F5F4F2C5F5E
:1039B0003F4F4332510521F7E801CA5BDF4F2881B1
:1039C00039812A5031092930310508F0BDCF20E175
:1039D00030E0318720870EC0E9016A817B81665023
:1039E00071096730710508F0AFCF880F991FAA1FC2
:1039F000BB1FDBCF84839583A683B78388E090E0E9
:103A00009183808361E070E080E090E0DF91CF916E
:103A10001F910F9108958F929F92AF92BF92CF9274
:103A2000DF92EF92FF927B01BA0180E090E00E946A
:103A30008A264B015C01B70180E090E00E948A2653
:103A40006B017C012DEC3CEC4CE45FE30E943C27D5
:103A50009B01AC01C501B4010E94ED2587FD17C093
:103A60002DEC3CEC4CE45FE3C501B4010E943C2723
:103A70009B01AC01C701B6010E94ED25992787FD86
:103A800090958827990F881F9927019602C080E09A
:103A900090E0FF90EF90DF90CF90BF90AF909F901D
:103AA0008F9008958F929F92AF92BF92CF92DF92A4
:103AB000EF92FF920F931F93CF93DF936C01EB0173
:103AC000EC84FD8486E0E816F1040CF442C0EE0CB0
:103AD000FF1C06E010E045EC842E4DE9942E4CE1ED
:103AE000A42E41E8B42E8A859B85FC01E00FF11FCE
:103AF00040815181F8013497E80FF91F608171818D
:103B0000C60189DFFC01A501940163E971E080E051
:103B100091E02ED74F01AA2497FCA094BA2C8626B8
:103B20009726A826B9260E5F1F4F0E151F05D9F63A
:103B30008C829D82AE82BF8280E290E099878887E6
:103B40008FEF9FEF9983888361E070E080E090E0E1
:103B500003C060E070E0CB01DF91CF911F910F9126
:103B6000FF90EF90DF90CF90BF90AF909F908F909D
:103B700008950F931F93CF93DF938C01EB0185E89A
:103B800092E09B878A8780914D0390E09D878C8788
:103B900080918102853009F047C0C80165DA672B42
:103BA000682B692B19F081E090E040C0BE01C8018C
:103BB000C8DA672B682B692BB1F7BE01C80140DB5F
:103BC000672B682B692B79F7BE01C801B8DB672B1F
:103BD000682B692B41F7BE01C80195DC672B682B68
:103BE000692B09F7BE01C80136DD672B682B692BED
:103BF000D1F6BE01C80118DE672B682B692B99F638
:103C0000BE01C80177DE672B682B692B61F6BE0108
:103C1000C80148DF672B682B692B09F0C4CF82E00D
:103C20008093810210924D0380E090E0DF91CF916C
:103C30001F910F9108956F927F928F929F92AF92F2
:103C4000BF92CF92DF92EF92FF920F931F93CF9389
:103C5000DF93EA012CE3C22ED12CE12CF12CA70139
:103C60009601BCD66883CA01B901A7019601B6D6F0
:103C70006983CA01B90128E130E040E050E0AED6E6
:103C800049015A016A83CA01B9016C5F7F4F8F4FA6
:103C90009F4F27E030E040E050E0A0D66F5F6B839D
:103CA00000E010E0980140E054E6652E712C60E9D8
:103CB000C62EDD24D394E42FF0E0EE54F84F7F01BC
:103CC00083E0E822FF24E114F10479F4CF01B30189
:103CD00072D6892B29F08EE691E0A0E0B0E009C011
:103CE000CF01B60168D6892BB1F38DE691E0A0E053
:103CF000B0E0080F191F2A1F3B1FD901C801AA27CE
:103D0000BB2788169906AA06BB0610F04F5FD3CFD3
:103D10004E83E114F10489F4CF0164E670E04BD6E0
:103D2000892B29F08EE691E0A0E0B0E00AC0CF0137
:103D300060E971E040D6892BA9F38DE691E0A0E01F
:103D4000B0E0081B190B2A0B3B0B801A910AA20A40
:103D5000B30ACF0164E670E02ED69C01CF0160E982
:103D600071E029D6E8E5F1E0A0E0A13059F4E114D2
:103D7000F10451F42115310511F04DE106C0009711
:103D8000E1F302C0408101C04CE150E060E070E02E
:103D900084169506A606B70640F0841A950AA60A68
:103DA000B70AAF5F3196AC3001F7AF5FAD83839454
:103DB0008C82DF91CF911F910F91FF90EF90DF9058
:103DC000CF90BF90AF909F908F907F906F9008950D
:103DD000CF92DF92EF92FF926B017C0180915E03A4
:103DE00090915F03A0916003B0916103C816D9065A
:103DF000EA06FB0669F042E653E0C701B6011BDFA5
:103E0000C0925E03D0925F03E0926003F092610380
:103E1000FF90EF90DF90CF900895DADF80916803F4
:103E200090E08E54984F08950F931F9360935A0318
:103E300070935B0380935C0390935D030091290171
:103E400010912A0120912B0130912C01060F171F90
:103E5000281F391F009352031093530320935403D8
:103E60003093550382E090E0909351038093500388
:103E70000E94D40F609356037093570380935803A6
:103E8000909359031F910F910895CF92DF92EF9273
:103E9000FF920F931F930E94D40FC0905603D090AF
:103EA0005703E0905803F09059036C197D098E096F
:103EB0009F0900915A0310915B0320915C0330919C
:103EC0005D03683E734081059105D8F00F5F1F4F79
:103ED0002F4F3F4F00935A0310935B0320935C03D3
:103EE00030935D0348EEC40E43E0D41EE11CF11C88
:103EF000C0925603D0925703E0925803F0925903B0
:103F0000CACF8091520390915303A0915403B09172
:103F10005503081719072A073B07C0F1E0914E0324
:103F2000F0914F03309791F1099561157105810565
:103F3000910511F079DF2AC08091290190912A0121
:103F4000A0912B01B0912C0140915A0350915B0339
:103F500060915C0370915D03840F951FA61FB71FCE
:103F60008093520390935303A0935403B09355034B
:103F700081E090E02091500330915103232B11F404
:103F800080E090E0909351038093500360915A0336
:103F900070915B0380915C0390915D031F910F9181
:103FA000FF90EF90DF90CF9008956FDF11DF809149
:103FB000640390E0089569DF0BDF8091630390E074
:103FC000089563DF05DF8091620390E008955DDF6F
:103FD000FFDE8091660390E0089557DFF9DE80915F
:103FE000670390E0089551DF18CFFC018285807C43
:103FF000828716821782108611861282138214829B
:1040000015821182108208954F925F926F927F9273
:104010008F929F92AF92BF92CF92DF92EF92FF92D8
:104020000F931F93CF93DF93CDB7DEB728970FB6CB
:10403000F894DEBF0FBECDBF8C01FC0142815381DD
:1040400064817581452B462B472B09F40AC1828573
:1040500084FF07C11ADF6B017C01F8012285822FE2
:104060008F709EE0980F9F70933008F0E8C04681F3
:10407000578160857185C416D506E606F70608F4F3
:10408000DEC0823049F44281538164817581468368
:10409000578360877187D3C0833009F041C0F8012E
:1040A0004280538064807580F0DE20E8822E21E516
:1040B000922EAA24A394B12CA50194018FD460E878
:1040C00071E581E090E054D4640D751D861D971D47
:1040D000F8014280538064807580C616D706E806D2
:1040E000F90650F0C701B601A501940177D42F5FFE
:1040F0003F4F4F4F5F4F05C0C701B601A501940167
:104100006DD460E871E581E090E032D4640D751DF6
:10411000861D971DF80166837783808791878FC0FE
:10412000843009F088C0F801428053806480758033
:10413000ACDE4B015C01A9DE69837A838B839C83AF
:10414000A4DE6D837E838F839887840C951CA61CC8
:10415000B71C80E8482E81E5582E66246394712CA4
:1041600069817A818B819C81A301920137D4861A5F
:10417000970AA80AB90A6D817E818F819885A3016B
:1041800092012CD42C5F3F4F4F4F5F4FCA01B901B2
:1041900027E030E040E050E021D49B01AC0160E832
:1041A00071E581E090E0E4D3861A970AA80AB90A7B
:1041B000F8014281538164817581C814D904EA04ED
:1041C000FB0470F04A015B01F0E88F0EFAE39F1EDA
:1041D000F9E0AF1EB11C8C0C9D1CAE1CBF1C06C0B0
:1041E00046015701840E951EA61EB71EC701B601D3
:1041F000A3019201F3D3861A970AA80AB90ACA0141
:10420000B9016C5F7F4F8F4F9F4F27E030E040E058
:1042100050E0E4D39B01AC0160E871E581E090E0FF
:10422000A7D3861A970AA80AB90AF8018682978244
:10423000A086B18604C0822F8F7EF8018287F801A4
:1042400082858F70813089F44281538164817581C8
:104250004C0D5D1D6E1D7F1D4683578360877187E2
:1042600004C0F80182858F7E828728960FB6F89465
:10427000DEBF0FBECDBFDF91CF911F910F91FF9099
:10428000EF90DF90CF90BF90AF909F908F907F90F6
:104290006F905F904F900895663050F4FC012BE0D2
:1042A000629FE00DF11D112492859F7081E009F459
:1042B00080E008951F93CF93DF93EC01162FECDF7E
:1042C000882351F1812F90E0FE012BE0129FE00D39
:1042D000F11D11244281538164817581452B462B48
:1042E000472B41F041E020813181232B09F440E04C
:1042F000242F01C020E03BE0389FF001399FF00DF2
:104300001124EC0FFD1F828520FB84F98287CF01E9
:10431000DF91CF911F9178CEDF91CF911F910895BA
:104320001F93CF93DF93EC01162FB6DF882341F064
:104330008BE0189FC00DD11D11248A858F7E8A873E
:10434000DF91CF911F910895EF92FF921F93CF932A
:10435000DF9300D000D0CDB7DEB77C01162F2983C4
:104360003A834B835C8398DF29813A814B815C815E
:104370008823B1F0F7018BE0189FE00DF11D1124A7
:104380002283338344835583612FC7010F900F909D
:104390000F900F90DF91CF911F91FF90EF908ACFF8
:1043A0000F900F900F900F90DF91CF911F91FF9082
:1043B000EF9008951F93CF93DF93EC01162F6CDFDE
:1043C000882399F0FE018BE0189FE00DF11D112468
:1043D0008285807E828711821082128213821482EB
:1043E00015821682178210861186DF91CF911F9158
:1043F0000895EF92FF920F931F93CF93DF938C0159
:10440000EC017C0182E4E80EF11CCE01EEDD2B967E
:10441000CE15DF05D1F71882C0E06C2FC801CADFC6
:10442000CF5FC630D1F7DF91CF911F910F91FF90F1
:10443000EF9008950F931F93CF93DF93EC0110E05B
:1044400000E0612FCE0128DF81110F5F1F5F163062
:10445000C1F7802FDF91CF911F910F9108958F9217
:104460009F92AF92BF92DF92EF92FF920F931F93B2
:10447000CF93DF93EC017C0182E4E80EF11CF7019D
:104480008081811143C081E080838E010D5B1F4FCD
:10449000F80110824BE0D42EF8018081863080F53F
:1044A000FE01D89EE00DF11D1124828584FF23C0FA
:1044B000ECDCF8012081DE01D29EA00DB11D11249B
:1044C00016968D909D90AD90BC90199768157905C2
:1044D0008A059B0580F0AD90BC9011971A969C912F
:1044E0001A9795FF10C0622FCE0164DFA114B104AA
:1044F00011F0F5010995F80180818F5F8083CCCFA1
:10450000F701108203C0CD017FDDF0CFDF91CF91A5
:104510001F910F91FF90EF90DF90BF90AF909F9011
:104520008F9008958F929F92AF92BF92CF92DF9219
:10453000EF92FF92CF93DF93EC016A017B010E941F
:10454000D40F4B015C010E94D40F681979098A09C4
:104550009B09C616D706E806F90618F0CE017FDFDC
:10456000F2CFDF91CF91FF90EF90DF90CF90BF908F
:10457000AF909F908F9008954F925F926F927F922D
:104580008F929F92AF92BF92CF92EF92FF920F9332
:10459000CF93DF93EC014A015B013901C701029718
:1045A000039730F472DC6115724E8F4D9140B0F07C
:1045B000412C512C9BE0949DF001959DF00D112410
:1045C000EC0FFD1FDF011A9682858F7049F08FEF87
:1045D000481A580A26E04216510469F78FEF16C0B0
:1045E000718260828C9100FB85F99E2D9F70807F87
:1045F000892B8C9382829382A482B582642DCE0112
:10460000CC2011F057DE01C08BDE842DDF91CF91DD
:104610000F91FF90EF90CF90BF90AF909F908F90B1
:104620007F906F905F904F900895CF92EF92FF929E
:104630000F934138E1E55E07E1E06E07710540F454
:10464000CC24C394F3E0EF2EF12C01E095DF01C000
:104650008FEF0F91FF90EF90CF900895CF92EF9250
:10466000FF920F934138E1E55E07E1E06E077105C7
:1046700040F4CC24C39403E0E02EF12C00E07CDF76
:1046800001C08FEF0F91FF90EF90CF90089589E6D2
:1046900093E0AFCE8F929F92AF92BF92CF92DF9274
:1046A000EF92FF920F931F93CF93DF93CDB7DEB7B7
:1046B0002115310511F58091B10081FD02C0E0E0C6
:1046C00001C0E4E08091B10080FDE2608091B10022
:1046D0008091B1008B7F8093B1008091B1008D7F7C
:1046E0008093B1008091B1008E7F8093B100809162
:1046F000640080648093640001C0E0E041155105CE
:1047000051F480917A008F7780937A0080916400D1
:104710008160809364000115110529F48091640083
:10472000886080936400E114F10429F480916400AE
:10473000806280936400C114D10429F480916400E4
:10474000846080936400A114B10429F48091640012
:104750008260809364008114910429F48091640044
:104760008068809364006A307105B1F063FF02C015
:1047700088E201C088E06770682B88E190E00FB69E
:10478000F894A895809360000FBE609360008091BC
:10479000600080648093600083B7817F83BFF8945A
:1047A00083B7816083BF7894889583B78E7F83BFFA
:1047B0007894452B51F4809164008E7F809364003F
:1047C00080917A00806880937A00232B61F4E1FF66
:1047D00005C08091B10084608093B1008091640035
:1047E0008F7B80936400012B29F480916400877F84
:1047F00080936400EF2829F4809164008F7D80937A
:104800006400CD2829F4809164008B7F809364003C
:10481000AB2829F4809164008D7F809364008928FF
:1048200029F4809164008F7780936400DF91CF91A9
:104830001F910F91FF90EF90DF90CF90BF90AF90BE
:104840009F908F9008951F920F920FB60F92112490
:104850008F9388E10FB6F894809360001092600007
:104860000FBE8F910F900FBE0F901F901895089557
:104870008230E8F4E82FF0E0EE0FFF1FE35DFE4F1B
:1048800071836083813041F0809169008C7F842B3B
:1048900080936900E89A089580916900440F551F3C
:1048A000440F551F837F842B80936900E99A0895F4
:1048B000823078F4813011F0E89801C0E998E82F4F
:1048C000F0E0EE0FFF1FE35DFE4F87E394E291837C
:1048D000808308951F920F920FB60F9211242F9389
:1048E0003F934F935F936F937F938F939F93AF9378
:1048F000BF93EF93FF93E0912D01F0912E01099565
:10490000FF91EF91BF91AF919F918F917F916F91A7
:104910005F914F913F912F910F900FBE0F901F907D
:1049200018951F920F920FB60F9211242F933F9359
:104930004F935F936F937F938F939F93AF93BF93A7
:10494000EF93FF93E0912F01F09130010995FF91D2
:10495000EF91BF91AF919F918F917F916F915F91F7
:104960004F913F912F910F900FBE0F901F90189570
:10497000DB018F939F937FD0BF91AF91A29F800D5A
:10498000911DA39F900DB29F900D11240895AA1B15
:10499000BB1B51E107C0AA1FBB1FA617B70710F02A
:1049A000A61BB70B881F991F5A95A9F7809590955C
:1049B000BC01CD01089597FB072E16F4009406D094
:1049C00077FD08D0E4DF07FC05D03EF49095819593
:1049D0009F4F0895709561957F4F0895A1E21A2E1B
:1049E000AA1BBB1BFD010DC0AA1FBB1FEE1FFF1F93
:1049F000A217B307E407F50720F0A21BB30BE40BE3
:104A0000F50B661F771F881F991F1A9469F7609529
:104A10007095809590959B01AC01BD01CF010895E3
:104A2000052E97FB16F400940FD057FD05D0D6DF66
:104A300007FC02D046F408C050954095309521956A
:104A40003F4F4F4F5F4F08959095809570956195BA
:104A50007F4F8F4F9F4F0895A29FB001B39FC0011A
:104A6000A39F700D811D1124911DB29F700D811D9A
:104A70001124911D0895F0DFA59F900DB49F900D16
:104A8000A49F800D911D11240895B7FFF4CFF3DF8B
:104A9000821B930B08950F93083090F0982F872F67
:104AA000762F652F542F432F322F22270850F4CF13
:104AB000220F331F441F551F661F771F881F991F22
:104AC0000A95B2F70F91089597FB10F81694000815
:104AD0000F93083098F00850232F342F452F562F6E
:104AE000672F782F892F902DF4CF05949795879570
:104AF0007795679557954795379527950A95AAF71E
:104B00000F910895EE0FFF1F0590F491E02D099489
:104B10005058BB27AA270ED075C166D130F06BD193
:104B200020F031F49F3F11F41EF45BC10EF4E095C8
:104B3000E7FB51C1E92F77D180F3BA1762077307FA
:104B40008407950718F071F49EF58FC10EF4E09577
:104B50000B2EBA2FA02D0B01B90190010C01CA0137
:104B6000A0011124FF27591B99F0593F50F4503EE2
:104B700068F11A16F040A22F232F342F4427585FD4
:104B8000F3CF469537952795A795F0405395C9F7EC
:104B90007EF41F16BA0B620B730B840BBAF09150A4
:104BA000A1F0FF0FBB1F661F771F881FC2F70EC043
:104BB000BA0F621F731F841F48F487957795679516
:104BC000B795F7959E3F08F0B3CF9395880F08F0FF
:104BD0009927EE0F979587950895D9D008F481E02D
:104BE00008950CD00FC107D140F0FED030F021F471
:104BF0005F3F19F0F0C0511139C1F3C014D198F3DF
:104C00009923C9F35523B1F3951B550BBB27AA274D
:104C100062177307840738F09F5F5F4F220F331FBF
:104C2000441FAA1FA9F333D00E2E3AF0E0E830D08B
:104C300091505040E695001CCAF729D0FE2F27D08E
:104C4000660F771F881FBB1F261737074807AB075C
:104C5000B0E809F0BB0B802DBF01FF2793585F4FD1
:104C60002AF09E3F510568F0B6C000C15F3FECF3EB
:104C7000983EDCF3869577956795B795F7959F5F96
:104C8000C9F7880F911D9695879597F90895E1E0EA
:104C9000660F771F881FBB1F621773078407BA0749
:104CA00020F0621B730B840BBA0BEE1F88F7E095A4
:104CB000089504D06894B111D9C00895BCD088F08B
:104CC0009F5790F0B92F9927B751A0F0D1F0660FF8
:104CD000771F881F991F1AF0BA95C9F712C0B13013
:104CE00081F0C3D0B1E00895C0C0672F782F882726
:104CF000B85F39F0B93FCCF3869577956795B39552
:104D0000D9F73EF490958095709561957F4F8F4FC0
:104D10009F4F0895E89409C097FB3EF490958095C5
:104D2000709561957F4F8F4F9F4F9923A9F0F92F71
:104D300096E9BB279395F695879577956795B795EF
:104D4000F111F8CFFAF4BB0F11F460FF1BC06F5FD5
:104D50007F4F8F4F9F4F16C0882311F096E911C0E7
:104D6000772321F09EE8872F762F05C0662371F008
:104D700096E8862F70E060E02AF09A95660F771F1C
:104D8000881FDAF7880F9695879597F90895990FF8
:104D90000008550FAA0BE0E8FEEF16161706E80705
:104DA000F907C0F012161306E407F50798F0621B26
:104DB000730B840B950B39F40A2661F0232B242BFB
:104DC000252B21F408950A2609F4A140A6958FEF1A
:104DD000811D811D089597F99F6780E870E060E06C
:104DE00008959FEF80EC089500240A941616170684
:104DF00018060906089500240A94121613061406CC
:104E000005060895092E0394000C11F4882352F02E
:104E1000BB0F40F4BF2B11F460FF04C06F5F7F4FE6
:104E20008F4F9F4F089557FD9058440F551F59F0CD
:104E30005F3F71F04795880F97FB991F61F09F3F87
:104E400079F087950895121613061406551FF2CFB0
:104E50004695F1DF08C0161617061806991FF1CF00
:104E600086957105610508940895E894BB27662727
:104E70007727CB0197F908950BD0C4CFB5DF28F081
:104E8000BADF18F0952309F0A6CFABCF1124EECFEF
:104E9000CADFA0F3959FD1F3950F50E0551F629F95
:104EA000F001729FBB27F00DB11D639FAA27F00D83
:104EB000B11DAA1F649F6627B00DA11D661F829FAA
:104EC0002227B00DA11D621F739FB00DA11D621F8F
:104ED000839FA00D611D221F749F3327A00D611DAC
:104EE000231F849F600D211D822F762F6A2F11248E
:104EF0009F5750408AF0E1F088234AF0EE0FFF1FE1
:104F0000BB1F661F771F881F91505040A9F79E3F17
:104F1000510570F060CFAACF5F3FECF3983EDCF311
:104F2000869577956795B795F795E7959F5FC1F754
:104F3000FE2B880F911D9695879597F90895CF932D
:104F4000DF938230910510F482E090E0E091B003AD
:104F5000F091B10320E030E0A0E0B0E0309739F10B
:104F60004081518148175907B8F04817590771F423
:104F700082819381109729F013969C938E931297B8
:104F80002CC09093B1038093B00327C02115310545
:104F900031F04217530718F0A901DB0101C0EF01FE
:104FA0009A01BD01DF010280F381E02DD7CF2115E9
:104FB0003105F9F0281B390B2430310580F48A8142
:104FC0009B816115710521F0FB019383828304C0ED
:104FD0009093B1038093B003FE01329644C0FE016A
:104FE000E20FF31F81939193225031093983288373
:104FF0003AC02091AE033091AF03232B41F42091AE
:105000000201309103013093AF032093AE0320914E
:105010000001309101012115310541F42DB73EB752
:105020004091040150910501241B350BE091AE0322
:10503000F091AF03E217F307A0F42E1B3F0B2817E4
:10504000390778F0AC014E5F5F4F2417350748F001
:105050004E0F5F1F5093AF034093AE038193919324
:1050600002C0E0E0F0E0CF01DF91CF910895CF934F
:10507000DF93009709F487C0FC01329713821282F4
:10508000C091B003D091B103209781F42081318188
:10509000280F391F8091AE039091AF0382179307B9
:1050A00079F5F093AF03E093AE036DC0DE0120E02D
:1050B00030E0AE17BF0750F412964D915C911397F4
:1050C0009D014115510509F1DA01F3CFB383A283A4
:1050D00040815181840F951F8A179B0771F48D9130
:1050E0009C911197840F951F02969183808312964D
:1050F0008D919C911397938382832115310529F417
:10510000F093B103E093B0033EC0D9011396FC9332
:10511000EE9312974D915D91A40FB51FEA17FB070F
:1051200079F480819181840F951F0296D90111969F
:105130009C938E938281938113969C938E93129766
:10514000E0E0F0E08A819B81009719F0FE01EC011C
:10515000F9CFCE01029628813981820F931F2091C9
:10516000AE033091AF032817390769F4309729F45B
:105170001092B1031092B00302C013821282D09336
:10518000AF03C093AE03DF91CF9108958F929F92AA
:10519000AF92BF92CF92DF92EF92FF92CF93DF93C5
:1051A000EC01688179818A819B8161157105810596
:1051B000910521F464E279ED8BE597E02DE133EF81
:1051C00041E050E02DDC49015A019B01AC01A7EA06
:1051D000B1E451DC6B017C01ACEEB4EFA5019401AC
:1051E00056DCC60ED71EE81EF91EF7FE06C081E08B
:1051F000C81AD108E10880E8F80AC882D982EA8290
:10520000FB82C701B6019F77DF91CF91FF90EF90AE
:10521000DF90CF90BF90AF909F908F900895B6CFC2
:1052200086E091E0B3CF609306017093070180930D
:105230000801909309010895FC0188279927E894B3
:1052400021912032E9F3293010F02E30C8F32B32AF
:1052500039F02D3231F4689403C0BFD0820F911D14
:10526000219120532A30C8F31EF4909581959F4FC9
:1052700008951F93FC0199278827BC01E894119198
:105280001032E9F3193010F01E30C8F31B3249F028
:105290001D3241F4689405C08BD0610F711D811DD2
:1052A000911D119110531A30B8F33EF490958095EA
:1052B000709561957F4F8F4F9F4F1F910895FB0110
:1052C000DC0102C005900D9241505040D8F708957E
:1052D000FB01DC018D9181341CF08B350CF4805E78
:1052E000659161341CF06B350CF4605E861B6111B6
:1052F00089F3990B0895FB01DC010D900020E9F77B
:10530000119705900D920020E1F70895FB01DC0153
:105310008D91059080190110D9F3990B0895FB0127
:10532000DC0102C001900D9241505040D8F7089521
:10533000FB01DC010D900020E9F7119701900D921F
:105340000020E1F70895FB01DC014150504030F0AE
:105350008D910190801919F40020B9F7881B990BE1
:105360000895FA01A191B081009719F41097E1F026
:10537000CD01DC01CD010D90002011F4C00113C05E
:10538000FB012191222319F02015D9F7F3CFFB015E
:105390002191201519F41E92119606C02223C1F7FF
:1053A0000D900020A1F7D001FA01A193B0830895D8
:1053B000592F482F372F262F660F771F881F991FC9
:1053C000660F771F881F991F620F731F841F951F19
:1053D000660F771F881F991F08957AE0979F902D79
:1053E000879F802D910D11240895AEE0B0E0EAEF83
:1053F000F9E2C0C20D891E898EE08C831A8309836D
:105400008FEF9FE79E838D83AE01475E5F4F6F896D
:10541000788DCE01019608D0EF81F885E00FF11F5D
:1054200010822E96E4E0C2C2ACE0B0E0E9E1FAE21C
:1054300093C27C016B018A01FC0117821682838171
:1054400081FFB0C1CE0101964C01F7019381F601B5
:1054500093FD859193FF81916F01882309F49EC18B
:10546000853239F493FD859193FF81916F018532E7
:1054700021F4B70190E0E0D1E8CF512C312C20E0AD
:105480002032A0F48B3269F030F4803259F083324C
:1054900069F420612CC08D3239F0803339F42160F9
:1054A00026C02260246023C0286021C027FD27C0B9
:1054B00030ED380F3A3078F426FF06C0FAE05F9EF0
:1054C000300D1124532E13C08AE0389E300D112464
:1054D000332E20620CC08E3221F426FD5FC1206481
:1054E00006C08C3611F4206802C0883641F4F601FB
:1054F00093FD859193FF81916F018111C1CF982F09
:105500009F7D9554933028F40C5F1F4FFFE3F98380
:105510000DC0833631F0833771F0833509F057C001
:1055200021C0F801808189830E5F1F4F442443947A
:10553000512C540114C03801F2E06F0E711CF801B7
:10554000A080B18026FF03C0652D70E002C06FEF20
:105550007FEFC5012C8765D12C0183012C852F7726
:10556000222E16C03801F2E06F0E711CF801A080E7
:10557000B18026FF03C0652D70E002C06FEF7FEFA2
:10558000C5012C8743D12C012C852068222E830154
:1055900023FC19C0832D90E048165906A0F4B701EA
:1055A00080E290E049D13A94F5CFF50127FC85914E
:1055B00027FE81915F01B70190E03ED131103A940E
:1055C000F1E04F1A51084114510479F7DEC08436D6
:1055D00011F0893631F5F80127FF07C0608171812C
:1055E000828193810C5F1F4F08C060817181882781
:1055F00077FD8095982F0E5F1F4F2F76B22E97FF65
:1056000009C090958095709561957F4F8F4F9F4F02
:105610002068B22E2AE030E0A40140D1A82EA818BC
:1056200043C0853729F42F7EB22E2AE030E025C012
:10563000F22FF97FBF2E8F36C1F018F4883579F03C
:10564000ADC0803719F0883721F0A8C02F2F206116
:10565000B22EB4FE0DC08B2D8460B82E09C024FF7D
:105660000AC09F2F9660B92E06C028E030E005C022
:1056700020E130E002C020E132E0F801B7FE07C0CF
:1056800060817181828193810C5F1F4F06C06081B0
:10569000718180E090E00E5F1F4FA401FFD0A82E23
:1056A000A818FB2DFF77BF2EB6FE0BC02B2D2E7F2B
:1056B000A51450F4B4FE0AC0B2FC08C02B2D2E7EF7
:1056C00005C07A2C2B2D03C07A2C01C0752C24FF29
:1056D0000DC0FE01EA0DF11D8081803311F4297E99
:1056E00009C022FF06C07394739404C0822F867889
:1056F00009F0739423FD12C020FF06C05A2C7314C6
:1057000018F4530C5718732C731460F4B70180E22B
:1057100090E02C8791D073942C85F6CF731410F4FD
:10572000371801C0312C24FF11C0B70180E390E08D
:105730002C8782D02C8522FF16C021FF03C088E56C
:1057400090E002C088E790E0B7010CC0822F867815
:1057500051F021FD02C080E201C08BE227FD8DE205
:10576000B70190E069D0A51430F4B70180E390E070
:1057700063D05A94F8CFAA94F401EA0DF11D808108
:10578000B70190E059D0A110F6CF332009F45DCED7
:10579000B70180E290E050D03A94F7CFF7018681CC
:1057A000978102C08FEF9FEF2C96E2E1F1C0DC0100
:1057B000CB01FC01F999FECF06C0F2BDE1BDF89A1C
:1057C000319600B40D9241505040B8F70895F999C0
:1057D000FECF92BD81BDF89A992780B50895DC016E
:1057E000CB0102C02D9105D041505040D8F708950B
:1057F000262FF999FECF1FBA92BD81BD20BD0FB6ED
:10580000F894FA9AF99A0FBE01960895FC01059052
:10581000615070400110D8F7809590958E0F9F1FB2
:105820000895FC016150704001900110D8F78095F7
:1058300090958E0F9F1F08950F931F93CF93DF9323
:10584000182F092FEB018B8181FD03C08FEF9FEF94
:1058500020C082FF10C04E815F812C813D814217A4
:1058600053077CF4E881F9819F012F5F3F4F398313
:105870002883108306C0E885F985812F0995892B37
:1058800029F72E813F812F5F3F4F3F832E83812F4A
:10589000902FDF91CF911F910F910895FA01AA27C0
:1058A000283051F1203181F1E8946F936E7F6E5F63
:1058B0007F4F8F4F9F4FAF4FB1E03ED0B4E03CD011
:1058C000670F781F891F9A1FA11D680F791F8A1FF4
:1058D000911DA11D6A0F711D811D911DA11D20D05B
:1058E00009F468943F912AE0269F11243019305D15
:1058F0003193DEF6CF010895462F4770405D419306
:10590000B3E00FD0C9F7F6CF462F4F70405D4A3352
:1059100018F0495D31FD4052419302D0A9F7EACF1A
:10592000B4E0A6959795879577956795BA95C9F749
:1059300000976105710508959B01AC010A2E06943C
:105940005795479537952795BA95C9F7620F731FF5
:10595000841F951FA01D08952F923F924F925F9232
:105960006F927F928F929F92AF92BF92CF92DF926F
:10597000EF92FF920F931F93CF93DF93CDB7DEB7D4
:10598000CA1BDB0B0FB6F894DEBF0FBECDBF099468
:105990002A88398848885F846E847D848C849B84BF
:1059A000AA84B984C884DF80EE80FD800C811B81CD
:1059B000AA81B981CE0FD11D0FB6F894DEBF0FBEFC
:1059C000CDBFED01089512E0C2E6D2E003C0FE01B2
:0E59D0009BD82296C436D107D1F7F894FFCFAA
:1059DE000000B20380000100000014086607E10910
:1059EE0060095F0A600B530B18076406AD06C70506
:1059FE00A70AEC0C6B052005012C0100003724379B
:105A0E002441424344414243444142434441424380
:105A1E0044006E6F64654255494C445F54494D4590
:105A2E0000200030000607081F1C1F1E1F1E1F1F10
:045A3E001E1F1E1FEA
:00000001FF
