:1000000031C100000C94781B0C949F1B53C100005D
:1000100051C100004FC100000C94311B4BC10000C6
:1000200049C1000047C1000045C1000043C10000B4
:1000300041C100003FC100003DC100003BC10000C4
:100040000C94860D37C1000035C1000033C100009B
:1000500031C100002FC100002DC100002BC10000E4
:1000600029C1000027C100007B226368616E6E65B4
:100070006C223A25642C226B6579223A256C757DB9
:10008000002564005D002C002564005B004F4E00DD
:100090004F4646004F4E005B25645D0025640022FC
:1000A000257322006E6F64654255494C445F544984
:1000B0004D450022256420646179732025322E325B
:1000C000643A25322E32643A25322E3264220022DE
:1000D00025322E32642F25322E32642F25642D25B1
:1000E000322E32643A25322E32643A25322E326470
:1000F00022004F4E004F4646004F4E007B226322A7
:100100003A25642C2273223A25642C2261223A2556
:10011000642C2272223A25642C2274223A256C75B2
:100120007D007B226E6F6465223A222573222C2289
:1001300074797065223A25642C2273746174757326
:10014000223A25642C2274696D65223A256C752C3F
:10015000226576656E74223A25642C22736F75725F
:100160006365223A25642C2264617461223A257306
:100170007D005B256C755D00FB01F601F001EA0175
:10018000E101DB01D401CC01C401BC01B501B00126
:10019000A7019E01960167657462617474006C73B7
:1001A000616C61726D7300736574616C61726D0076
:1001B0006461746500757074696D65007365746E53
:1001C000616D65006765746E616D65006672656579
:1001D0006D656D00616C6C6F666600616C6C6F6E56
:1001E000006368746F67676C6500676574636800B7
:1001F0007365746368006C736368006368636F752C
:100200006E740000000008000201000003040700F3
:1002100000000000000000010204081020408001DE
:10022000020408102001020408102004040404043D
:100230000404040202020202020303030303030094
:1002400000000023002600290000000000250028EF
:10025000002B0000000000240027002A0000C00C32
:10026000551A270D11241FBECFEFD8E0DEBFCDBF3A
:1002700011E0A0E0B1E0EEE5F3E402C005900D92DC
:10028000A436B107D9F722E0A4E6B1E001C01D927F
:10029000A63BB207E1F712E0C2E6D2E004C0229723
:1002A000FE010E945B1CCE35D107C9F70E94770D75
:1002B0000C94A321A5CEFC012191CF01222351F062
:1002C000332727FD3095205331092A30310598F323
:1002D00080E0089581E00895CF93DF93C82FD0E0A8
:1002E000E0916401F09165010384F485E02DEC0F49
:1002F000FD1F80810E94130F61E0892B09F060E0EF
:10030000E0916401F09165010384F485E02DEC0F28
:10031000FD1F8081DF91CF910C94DE0E8F929F9212
:10032000AF92BF92CF92DF92EF92FF920F931F9303
:10033000CF93DF93EC0181E089AF60E08EE00E9413
:10034000DE0ECE010E940615812C912CA12CB12C21
:10035000C12CD12CEE24E394F12C00E010E020E03D
:1003600030E041E050E065E070E081EB92E00E9417
:10037000581ADF91CF911F910F91FF90EF90DF906E
:10038000CF90BF90AF909F908F900895AF92BF9203
:10039000CF92EF920F931F93CF93DF93CDB7DEB73A
:1003A00061970FB6F894DEBF0FBECDBF5C0181E14F
:1003B000E1E3F1E0DE01119601900D928A95E1F7FB
:1003C00095E0C92E28E0E22E00E0F5012085418568
:1003D0006781C5010E945D1340E1BE016F5F7F4FE1
:1003E000C5010E94111520EA3FE040E050E068EBB3
:1003F0007BE080E090E00E945B0DF50165877687E9
:100400008787908B81E090E0968B858B0E94D00D42
:10041000F5010585168527853089600F711F821FBC
:10042000931F618B728B838B948B85899689892B23
:1004300019F40E94DC0D02C00E94D00DF501618B01
:10044000728B838B948B61960FB6F894DEBF0FBED0
:10045000CDBFDF91CF911F910F91EF90CF90BF90C3
:10046000AF9008958F929F92AF92BF92CF92DF92FA
:10047000EF92FF920F931F93CF93DF93EC0119AE8E
:1004800061E08EE00E94DE0E812C912CA12CB12C1B
:10049000CC24C394D12CEE24E394F12C00E010E0A2
:1004A00020E030E041E050E060E070E081EB92E07D
:1004B0000E94581ACE010E940815CE01DF91CF91FB
:1004C0001F910F91FF90EF90DF90CF90BF90AF9072
:1004D0009F908F905BCFCF93DF93EC018A8524E0D0
:1004E000829FC00111240196F894F999FECF0E94D1
:1004F000A72078948E3479F0CE01499620E1FC0152
:1005000011922A95E9F74FE050E064EA70E0DF913C
:10051000CF910C941F1E6A85F4E06F9FB0011124E7
:100520006E5F7F4FF894F999FECFCE01499620E196
:10053000FC0111922A95E9F74FE050E00E949720C4
:100540007894DF91CF9108958F929F92AF92BF924E
:10055000CF92DF92EF920F93CF93DF93CDB7DEB7B9
:10056000C75AD1090FB6F894DEBF0FBECDBF6C01DC
:10057000DC0155968D919C915697892B41F40E94F0
:10058000DC0DF60181889288A388B48809C00E9496
:10059000D00DD60151968D909D90AD90BC90549702
:1005A000681979098A099B096095709580959095DD
:1005B000662797FD6395772788279927662309F48F
:1005C00074C01A8219820E94D00D4B015C010E94F6
:1005D0005316F6014285440F440F2789308D7996D2
:1005E00011F4E2E4F1E0D60117965C91A3E0EC96F9
:1005F000AFAFEC97ED965FAFED97C357DF4F198222
:100600001882CD58D040C156DF4F4883CF59D040D3
:10061000C056DF4F688379838A839B83C05AD0405A
:10062000CC55DF4F88829982AA82BB82C45AD040BF
:1006300080E1ABE7B0E0AC0FBD1F129601900D92C8
:100640008A95E1F72115310549F050E0B9018BE7B2
:1006500090E08C0F9D1F44960E944F1E8DE2FE017C
:10066000E558FF4FDE01139601900D928A95E1F750
:100670005CE0E52E00E02AE7AE014F5F5F4FF60138
:100680006681C6010E94B814F60181899289A38906
:10069000B4894585568567857089840F951FA61F87
:1006A000B71F818B928BA38BB48BC955DF4F0FB6CD
:1006B000F894DEBF0FBECDBFDF91CF910F91EF90C9
:1006C000DF90CF90BF90AF909F908F9008958F92C2
:1006D0009F92AF92BF92CF92DF92EF92FF920F93D1
:1006E0001F93CF93DF93CDB7DEB7C65FD1090FB6A7
:1006F000F894DEBF0FBECDBF5C01962E872E6E0133
:100700008BE7C80ED11C88E7F60111928A95E9F7AC
:10071000CB50DF4F2883C55FD040CA50DF4F3883AE
:10072000C65FD040CD50DF4F4883C35FD040CC5030
:10073000DF4F5883C45FD0400E945316F50179966D
:10074000CB50DF4F2881C55FD040CA50DF4F388182
:10075000C65FD040CD50DF4F4881C35FD040CC5002
:10076000DF4F5881C45FD040309711F4E2E4F1E0EC
:100770001F930F933F932F935F934F939F938F9369
:100780007F936F938F929F921F921F92FF93EF938D
:1007900082E291E09F938F93DF92CF920E94B51EE9
:1007A000FA82E98288E7F601DE01139601900D9244
:1007B0008A95E1F7FCE0EF2E00E02AE7AE014F5FFB
:1007C0005F4FF5016681C5010E94B8140FB6F89419
:1007D000DEBF0FBECDBFCA50DF4F0FB6F894DEBFED
:1007E0000FBECDBFDF91CF911F910F91FF90EF9082
:1007F000DF90CF90BF90AF909F908F900895CF9251
:10080000DF92EF92FF920F931F93CF93DF93CDB7B9
:10081000DEB7A9970FB6F894DEBF0FBECDBF6C014F
:10082000E0916401F091650185AD8F9384AD8F9364
:1008300083AD8F9382AD8F9342E751E05F934F93E7
:100840008E010F5F1F4F1F930F930E94B51EA8E0EC
:10085000EA2EF12C96014EE050E060E070E08091CD
:1008600064019091650133DF0FB6F894DEBF0FBECF
:10087000CDBFA9960FB6F894DEBF0FBECDBFDF91F6
:10088000CF911F910F91FF90EF90DF90CF9008953F
:10089000CF92DF92EF92FF920F931F93CF93DF934C
:1008A000CDB7DEB7A9970FB6F894DEBF0FBECDBFA8
:1008B0006C01E0916401F091650181A98F9380A999
:1008C0008F9387A58F9386A58F9382A91F928F936D
:1008D00083A51F928F9385A51F928F9384A51F9246
:1008E0008F934CEF50E05F934F938E010F5F1F4F3C
:1008F0001F930F930E94B51EB8E0EB2EF12C9601CA
:100900004DE050E060E070E08091640190916501FD
:10091000DEDE0FB6F894DEBF0FBECDBFA9960FB6D0
:10092000F894DEBF0FBECDBFDF91CF911F910F9125
:10093000FF90EF90DF90CF9008952F923F924F92CB
:100940005F926F927F928F929F92AF92BF92CF925F
:10095000DF92EF92FF920F931F93CF93DF93CDB768
:10096000DEB7A9970FB6F894DEBF0FBECDBF1C014E
:100970000E94D00D28EE33E040E050E00E94FC1BC6
:1009800049015A011CE3C12ED12CE12CF12CCA01E2
:10099000B901A70196010E94FC1B29013A01CA0175
:1009A000B901A70196010E94FC1B69017A01C901E6
:1009B00068E170E00E94D51BFB01ACE3B0E0A3014D
:1009C00092010E94491CA5019401261B370B480B7C
:1009D000590B1F922F932CE32C9DC0012D9D900D40
:1009E0001124481A590A610871081F924F9228E190
:1009F0002E9FC0012F9F900D1124C81AD90ADD2403
:100A0000DF92CF92FF93EF9383EB90E09F938F93CE
:100A10008E010F5F1F4F1F930F930E94B51E88E03A
:100A2000E82EF12C910147E050E060E070E0809109
:100A30006401909165014BDE0FB6F894DEBF0FBEE6
:100A4000CDBFA9960FB6F894DEBF0FBECDBFDF9124
:100A5000CF911F910F91FF90EF90DF90CF90BF90BB
:100A6000AF909F908F907F906F905F904F903F904E
:100A70002F900895CF92DF92EF92FF920F931F93E2
:100A8000CF93DF93CDB7DEB7A9970FB6F894DEBF4B
:100A90000FBECDBF6C014091640150916501475E6E
:100AA0005F4F11F442E451E05F934F934FE950E000
:100AB0005F934F938E010F5F1F4F1F930F930E9401
:100AC000B51E98E0E92EF12C960148E050E060E078
:100AD00070E08091640190916501F9DD0F900F90B5
:100AE0000F900F900F900F90A9960FB6F894DEBF5D
:100AF0000FBECDBFDF91CF911F910F91FF90EF906F
:100B0000DF90CF900895EF92FF920F931F93CF93B2
:100B1000DF934091640150916501475D5F4F61E54E
:100B200071E080E090E00E94711E8C01C091640130
:100B3000D0916501009761F438E0E32EF12C03E5D4
:100B400011E020E030E040E050E061E070E017C0EC
:100B5000CE01499611F482E491E040E150E0B80101
:100B60000E94631E892BA1F428E0E22EF12C03E5FC
:100B700011E020E030E040E050E065E070E0CE01C0
:100B8000A6DDDF91CF911F910F91FF90EF90089517
:100B9000CA8584E0C89FE0011124CE010196F89433
:100BA000F999FECF6EE40E94B820F999FECFBE01FC
:100BB0006E5F7F4F4FE050E0C8010E94AF207894F5
:100BC000809164019091650186DC82E090E0DF9184
:100BD000CF911F910F91FF90EF904CCFCF92DF926A
:100BE000EF92FF920F931F93CF93DF93CDB7DEB7B2
:100BF000AB970FB6F894DEBF0FBECDBF6C01AE0150
:100C0000465D5F4F6091B2027091B302611571054C
:100C100011F466EB72E0461B570B5F934F934CE960
:100C200050E05F934F938E010F5F1F4F1F930F9301
:100C30000E94B51E48E0E42EF12C960149E050E0F8
:100C400060E070E0809164019091650140DD0F905B
:100C50000F900F900F900F900F90AB960FB6F894E7
:100C6000DEBF0FBECDBFDF91CF911F910F91FF90DF
:100C7000EF90DF90CF9008957F928F929F92AF92E6
:100C8000BF92CF92DF92EF92FF920F931F93CF9379
:100C9000DF93CDB7DEB7AB970FB6F894DEBF0FBECC
:100CA000CDBF6C018E010F5F1F4F89E2F8011192D9
:100CB0008A95E9F76BE870E0C8010E943B1E712C31
:100CC00068E8A62E60E0B62E7E01FAE2EF0EF11C77
:100CD000E0916401F09165018285781670F5872CAA
:100CE000912C0384F485E02DE80DF91D80810E948C
:100CF000130F9F938F93BF92AF92FF92EF920E9438
:100D0000B51EB701C8010E94581EE0916401F09120
:100D10006501428550E0415051090F900F900F90AE
:100D20000F900F900F90841695062CF466E870E0F3
:100D3000C8010E943B1E7394CBCF64E870E0C801E9
:100D40000E943B1E58E0E52EF12C960145E050E054
:100D500060E070E08091640190916501B8DCAB9631
:100D60000FB6F894DEBF0FBECDBFDF91CF911F91BC
:100D70000F91FF90EF90DF90CF90BF90AF909F903A
:100D80008F907F900895CF92DF92EF92FF920F9312
:100D90001F93CF93DF93CDB7DEB7A9970FB6F89423
:100DA000DEBF0FBECDBF6C01E0916401F091650123
:100DB00082851F928F9341E850E05F934F938E019D
:100DC0000F5F1F4F1F930F930E94B51E78E0E72E11
:100DD000F12C960144E050E060E070E08091640105
:100DE0009091650174DC0F900F900F900F900F9011
:100DF0000F90A9960FB6F894DEBF0FBECDBFDF915E
:100E0000CF911F910F91FF90EF90DF90CF900895B9
:100E1000AF92BF92CF92DF92EF92FF920F931F9308
:100E2000CF93DF93CDB7DEB7A9970FB6F894DEBFA7
:100E30000FBECDBF5C014091640150916501475DDB
:100E40005F4F61E571E080E090E00E94711EC0900C
:100E50006401D0906501009761F4A8E0EA2EF12CBE
:100E600003E511E020E030E040E050E061E070E0B8
:100E700012C00E94DC1DD6011A969C91891770F051
:100E8000F8E0EF2EF12C03E511E020E030E040E047
:100E900050E062E070E0C6011ADC2AC0D6011B9661
:100EA000ED91FC911C97E80FF11D8081BCD799272B
:100EB0009F938F9387E990E09F938F938E010F5FAD
:100EC0001F4F1F930F930E94B51EE8E0EE2EF12CEA
:100ED000950145E050E060E070E080916401909100
:100EE0006501F5DB0F900F900F900F900F900F9012
:100EF000A9960FB6F894DEBF0FBECDBFDF91CF919C
:100F00001F910F91FF90EF90DF90CF90BF90AF9027
:100F10000895CF92DF92EF92FF920F931F93CF939A
:100F2000DF937C014091640150916501475D5F4F03
:100F300061E571E080E090E00E94711E8C014091BB
:100F4000640150916501475D5F4F61E571E080E0AC
:100F500090E00E94711E6C01C0916401D091650106
:100F60000115110541F5009731F564E970E080E065
:100F700090E00E94281E892B41F460E970E080E037
:100F800090E00E94281E892BB1F0B8E0EB2EF12CE6
:100F900003E511E020E030E040E050E061E070E087
:100FA000CE0195DBDF91CF911F910F91FF90EF90D4
:100FB000DF90CF900895C8010E94DC1D182F8A850C
:100FC000181760F018E0E12EF12C03E511E020E0A5
:100FD00030E040E050E062E070E0E2CF6DE870E0C9
:100FE000C6010E94281E61E0892B09F060E0EB85B4
:100FF000FC85E10FF11D8081E1D6C701DF91CF9122
:101000001F910F91FF90EF90DF90CF9035CEEF9230
:10101000FF920F931F93CF93DF938C014091640154
:1010200050916501475D5F4F61E571E080E090E0C0
:101030000E94711EC0916401D0916501009761F416
:1010400088E0E82EF12C03E511E020E030E040E0FC
:1010500050E061E070E010C00E94DC1D9A858917A5
:10106000A0F008E0E02EF12C03E511E020E030E0F4
:1010700040E050E062E070E0CE0129DBDF91CF91EB
:101080001F910F91FF90EF90089526D9C801DF912D
:10109000CF911F910F91FF90EF90EECD6F927F92C5
:1010A0008F929F92AF92BF92CF92DF92EF92FF9278
:1010B0000F931F93CF93DF93CDB7DEB7A9970FB6EA
:1010C000F894DEBF0FBECDBF6C014091640150911A
:1010D0006501475D5F4F61E571E080E090E00E944F
:1010E000711E8C010097C9F0E6D8811111C028E06B
:1010F000E22EF12C03E511E020E030E040E050E08A
:1011000061E070E08091640190916501E0DA44C093
:10111000C8010E94F91D0E9422160E94EF16782E27
:10112000692E0E94E916982E892E0E94E316B82E89
:10113000A92E0E940117F82EE92E0E94F516182FED
:10114000092F0E94FB166F927F928F929F92AF920F
:10115000BF92EF92FF920F931F939F938F938FEC09
:1011600090E09F938F938E010F5F1F4F1F930F93FC
:101170000E94B51E98E0E92EF12C960146E050E061
:1011800060E070E08091640190916501A0DA0FB693
:10119000F894DEBF0FBECDBFA9960FB6F894DEBFA0
:1011A0000FBECDBFDF91CF911F910F91FF90EF90B8
:1011B000DF90CF90BF90AF909F908F907F906F9077
:1011C00008950F931F93CF93DF93EC01062F10E048
:1011D0008A85181748F4EB85FC85E10FF11D602F17
:1011E0008081ECD51F5FF4CFDF91CF911F910F91DC
:1011F0000895CF93DF93EC0160E0809164019091BA
:101200006501DFDFCE01DF91CF9136CDCF93DF9344
:10121000EC0161E08091640190916501D2DFCE0123
:10122000DF91CF9129CD4F925F926F927F928F92F3
:101230009F92AF92BF92CF92DF92EF92FF920F9365
:101240001F93CF93DF93EC0112E3C12CD12C7601D5
:101250000EE4412C50E3552E51E1652E712C62E3D2
:10126000862E912CA12CB12C00937C0062E070E0C2
:1012700080E090E0C4D480917A00806480937A000A
:1012800080917A0086FDFCCF8091780020917900D2
:1012900030E0322F2227442737FD4095542F282B4A
:1012A000C301B2010E941E1CCA01B901A50194012B
:1012B0000E941E1CC20ED31EE41EF51E1150A1F684
:1012C00088AD2DE1C2162CE0D206E104F1040CF544
:1012D00081111FC081E088AFCAAEDBAEECAEFDAEBF
:1012E0005FD46CAB7DAB8EAB9FABCE0117D8CE017C
:1012F000DF91CF911F910F91FF90EF90DF90CF90F2
:10130000BF90AF909F908F907F906F905F904F9025
:1013100005C8882341F08DE1C8168CE0D806E104A9
:10132000F10474F5E4CF9DE1C9169CE0D906E1040F
:10133000F104FCF4DCCFEB85FC85E00FF11D80812E
:1013400072D5212F30E0282B11E0232B09F410E077
:101350000F5F8A85081778F361E06127CE0131DFDE
:10136000CE0180D882E090E087DC81E090E047DA2F
:1013700018AE88AD8823E1F0CE0174D818AE18C03D
:101380000FD40CA91DA92EA93FA9601B710B820BBC
:10139000930B693B7B408105910538F0CE010E949B
:1013A0008E0160E0CE010DDFE4CF00E010E0D1CF90
:1013B000DF91CF911F910F91FF90EF90DF90CF9031
:1013C000BF90AF909F908F907F906F905F904F9065
:1013D0000895E0916401F091650184A592858917D3
:1013E00020F065A5CF01EDDE07C0A385B485A80F69
:1013F000B11D65A58C91E2D484E090E03DCCCF9303
:10140000DF93EC01E0916401F0916501828524E0B5
:10141000829FC00111244296F894F999FECF0E9450
:10142000A7207894813449F0FE01BB9688E0DF0163
:101430001D928A95E9F71BA615C0E0916401F09111
:1014400065016285B4E06B9FB00111246D5E7F4F32
:10145000F894F999FECF48E050E0CE018B960E94B7
:1014600097207894DF91CF9108951F93CF93DF93C6
:10147000EC0110E08A85181748F4EB85FC85E10F34
:10148000F11D61E0808161D41F5FF4CF60E0CE0187
:1014900098DE82E114D4BC01882777FD8095982FCF
:1014A000DED24A85440F440F8F89988DF89450E01E
:1014B00060E070E00E9497207894CE010CD8CE01B5
:1014C0009EDFCE010E94C60161E08EE03ED461E065
:1014D0008EE0DF91CF911F9171C47F928F929F9286
:1014E000AF92BF92CF92DF92EF92FF920F931F9332
:1014F000CF93DF934091640150916501475D5F4F49
:1015000061E571E080E090E00E94711E5C01409115
:10151000640150916501475D5F4F61E571E080E0D6
:1015200090E00E94711E8C01409164015091650110
:10153000475D5F4F61E571E080E090E00E94711EC1
:101540007C014091640150916501475D5F4F61E509
:1015500071E080E090E00E94711E6C014091640196
:1015600050916501475D5F4F61E571E080E090E07B
:101570000E94711E4C01C0916401D0916501A114BB
:10158000B10419F50115110501F5E114F104E9F4AF
:101590000097D9F4C114D104C1F480E090E00E9416
:1015A0005B01811112C069EF70E080E090E00E9461
:1015B000281E892B09F070C065EF70E080E090E094
:1015C0000E94281E892B09F067C0C5010E94DC1DFE
:1015D000782E8A85781660F0E8E0EE2EF12C03E58F
:1015E00011E020E030E040E050E062E070E05FC0F9
:1015F000C4010E94DC1D5C01C6010E94DC1D99240F
:101600009394892B09F4912CC7010E94F91D6B0159
:101610007C0181E0AB2809F480E08BA79AAA7CA624
:1016200062EF70E0C8010E94281E21E0892B09F0BA
:1016300020E02DA7CEA6DFA6E8AAF9AA8DE692E0C3
:101640000E942819813041F4A70196016BA98DE60B
:1016500092E00E94B2180EC029EE39E0B701A6014F
:101660008DE692E0992019F00E943C1A02C00E9477
:10167000231A8BABCE01C3DE82E090E0DF91CF91E5
:101680001F910F91FF90EF90DF90CF90BF90AF90A0
:101690009F908F907F90FCC878E0E72EF12C03E5B7
:1016A00011E020E030E040E050E061E070E0CE0189
:1016B0000ED8DF91CF911F910F91FF90EF90DF90A7
:1016C000CF90BF90AF909F908F907F900895CF92D2
:1016D000DF92EF92FF920F931F93CF93DF936C01F2
:1016E000CB01A601475D5F4F61E571E00E94711E6D
:1016F0007C010097B1F0FC018081882391F008E71C
:1017000011E0C0E0D0E0F80165917491C7010E943A
:10171000461E892BE9F021960E5F1F4FCE31D10571
:1017200091F7A8E0EA2EF12C03E511E020E030E08B
:1017300040E050E061E070E0C6010E946703DF9185
:10174000CF911F910F91FF90EF90DF90CF90089570
:10175000CC0FDD1FC65FDE4FE881F98182E090E0AB
:10176000DF91CF911F910F91FF90EF90DF90CF907D
:101770000994AF92BF92CF92DF92EF92FF920F93B4
:101780001F93CF93DF93CDB7DEB7C35AD1090FB6FE
:10179000F894DEBF0FBECDBF5C010E94EB1388231F
:1017A00009F4BFC08091330290913402892B09F073
:1017B000B8C0C5010E940A15482F50E0D501129605
:1017C0006D917C911397CE0101960E944F1E8981E5
:1017D0009A818330910529F5CB80DC80ED80FE80F5
:1017E00010E0F5018285181708F09BC0D5015796C7
:1017F000ED91FC915897B4E01B9FE00DF11D112471
:101800004081518162817381C416D506E606F706D0
:1018100031F4812F0E946C0183E090E02DDA1F5F8C
:10182000E0CF843091050CF06BC0029709F079C0CD
:101830009B81D50117968C911797981372C00D81D3
:10184000FE80EF80D8841C811A968C91181778F04E
:1018500018E0E12EF12C03E511E020E030E040E05B
:1018600050E062E070E0C5010E9467035AC0F501D4
:101870008789908DFC0124E0129FE00DF11D112459
:101880000083F182E282D382D5011A964C91440FF3
:10189000440FF89450E060E070E00E94AF2078942C
:1018A000F5014285440F440F8789908DF89450E0EC
:1018B00060E070E00E9497207894DF92EF92FF92B0
:1018C0000F931F921F9388E690E09F938F938E0152
:1018D00005581F4F1F930F930E94B51EB5E0EB2EC6
:1018E000F12C23E030E04BE050E060E070E0C50117
:1018F0000E9467030FB6F894DEBF0FBECDBF11C0C4
:101900008630910531F4BE016D5F7F4FC501DFDE8A
:1019100008C0079731F46B817C818D819E810E9484
:101920002216CD55DF4F0FB6F894DEBF0FBECDBFE8
:10193000DF91CF911F910F91FF90EF90DF90CF90AB
:10194000BF90AF90089586E691E08FCD80919F0182
:10195000811113C086E691E00CDF86E691E00E94DB
:10196000A40280919101882341F048EE53E060E0A9
:1019700070E08DE692E00E94A01986E691E053CCDB
:101980000F931F93CF93DF9381EB91E090936901C5
:101990008093680180EB91E090936B0180936A01E2
:1019A00081E080936C0182E080936D0193E69093D7
:1019B0006E0180936F0183E08093700185E591E073
:1019C0009093720180937101C3E7D1E0188219826C
:1019D0001A821B8281E090E090937C0180937B01CE
:1019E000DFD0088119812A813B81600F711F821F1E
:1019F000931F60937701709378018093790190939E
:101A00007A01CDE7D1E019821882109290011092EC
:101A10008F011092910110929A0110929B011092E5
:101A20009C0110929D0110929E0110929F0186E6EA
:101A300091E090936501809364018CE090E062D026
:101A400099838883DF91CF911F910F9108958091A1
:101A50007D0190917E01009709F056C008956115AF
:101A600071058105910511F00C94D31D0895CF9354
:101A7000DF9300D000D0CDB7DEB79B01AC0161157C
:101A800071058105910569F069833A834B835C8315
:101A90000E94D01D29813A814B815C810E941E1CCD
:101AA00003C060E070E0CB010F900F900F900F909B
:101AB000DF91CF910895CF92DF92EF92FF926B0169
:101AC0007C0162177307840795075CF4CA01B901AA
:101AD0006C197D098E099F09CADF6C0D7D1D8E1D55
:101AE0009F1DFF90EF90DF90CF9008950895ACD0A8
:101AF000FDDF29DFC0E0D0E029DF2097E9F30E9475
:101B00000000FACF0C945F1C0C94F71C1F920F92EC
:101B10000FB60F9211242F933F938F939F93AF9300
:101B2000BF938091A5019091A601A091A701B091CA
:101B3000A8013091A40126E0230F2D3720F402964E
:101B4000A11DB11D05C029E8230F0396A11DB11DDC
:101B50002093A4018093A5019093A601A093A701CF
:101B6000B093A8018091A9019091AA01A091AB0125
:101B7000B091AC010196A11DB11D8093A901909374
:101B8000AA01A093AB01B093AC01BF91AF919F911B
:101B90008F913F912F910F900FBE0F901F9018952E
:101BA0002FB7F8946091A5017091A6018091A701CB
:101BB0009091A8012FBF08953FB7F8948091A90193
:101BC0009091AA01A091AB01B091AC0126B5A89B60
:101BD00005C02F3F19F00196A11DB11D3FBF66271B
:101BE000782F892F9A2F620F711D811D911D43E05F
:101BF000660F771F881F991F4A95D1F70895CF92D6
:101C0000DF92EF92FF92CF93DF936B017C01D4DFE1
:101C1000EB01C114D104E104F10479F02CD1CCDF43
:101C20006C1B7D0B683E7340A0F381E0C81AD1089D
:101C3000E108F108C851DC4FECCFDF91CF91FF9064
:101C4000EF90DF90CF900895789484B5826084BD42
:101C500084B5816084BD85B5826085BD85B58160B0
:101C600085BDEEE6F0E0808181608083E1E8F0E010
:101C70001082808182608083808181608083E0E83F
:101C8000F0E0808181608083E1EBF0E0808184601E
:101C90008083E0EBF0E0808181608083EAE7F0E020
:101CA00080818460808380818260808380818E7F58
:101CB00080838081806880831092C10008958E3077
:101CC00008F08E5087702091280190E4299F9001A0
:101CD0001124822B80937C0080917A008064809311
:101CE0007A0080917A0086FDFCCF80917800209167
:101CF000790090E0922B0895833081F028F48130B0
:101D000099F08230A1F008958730A9F08830B9F0B9
:101D10008430D1F4809180008F7D03C08091800059
:101D20008F7780938000089584B58F7702C084B543
:101D30008F7D84BD08958091B0008F7703C080911E
:101D4000B0008F7D8093B0000895CF93DF9390E033
:101D5000FC01E95EFD4F2491FC01E55DFD4F84919E
:101D6000882349F190E0880F991FFC01ED5AFD4F3F
:101D7000A591B491875B9D4FFC01C591D4919FB70C
:101D8000611108C0F8948C91209582238C938881EE
:101D900082230AC0623051F4F8948C91322F30952E
:101DA00083238C938881822B888304C0F8948C9140
:101DB000822B8C939FBFDF91CF9108950F931F9338
:101DC000CF93DF931F92CDB7DEB7282F30E0F90114
:101DD000ED5FFD4F8491F901E95EFD4F1491F9012A
:101DE000E55DFD4F04910023C1F0882319F069835C
:101DF00083DF6981E02FF0E0EE0FFF1FE75BFD4F0F
:101E0000A591B4919FB7F8948C91611103C010957E
:101E1000812301C0812B8C939FBF0F90DF91CF91C5
:101E20001F910F910895CF93DF93282F30E0F90190
:101E3000ED5FFD4F8491F901E95EFD4FD491F90109
:101E4000E55DFD4FC491CC2389F0811155DFEC2F66
:101E5000F0E0EE0FFF1FE15CFD4FA591B4912C91D6
:101E60002D2381E090E021F480E002C080E090E04A
:101E7000DF91CF91089508958627682F629568278E
:101E8000062E669566956025062E66956025677018
:101E9000082E892F669507946795902D86270694BE
:101EA00067959025862708952F923F924F925F92D3
:101EB0006F927F928F929F92AF92BF92CF92DF925A
:101EC000EF92FF920F931F93CF93DF9300D000D038
:101ED00000D0CDB7DEB7882309F448C1E091B00146
:101EE0008091470290914802A0914902B0914A0224
:101EF0000196A11DB11D8093470290934802A093C3
:101F00004902B0934A02F0E0EF54FE4F8083918380
:101F1000A283B3838091B001809583709091B001CA
:101F2000980F9093B001E091B001F0E0EF54FE4FB4
:101F300090819F739083E091B001F0E0EF54FE4FE9
:101F4000208100E4809FC0011124282B20838091F0
:101F5000B0018F5F8093B0012091B0012695269546
:101F600022300CF457C2332727FD30951901220C7B
:101F7000331C220C331CB10163557E4F1B01FB0146
:101F800080819181A281B38140E050E0BA01890152
:101F9000015011091C830B8347545648684C714605
:101FA0008A019B01E2E03695279517950795EA95FA
:101FB000D1F7E02FE370EE831D820D81202F30E0FA
:101FC0004C015D01F4E0880C991CAA1CBB1CFA951D
:101FD000D1F76C017D0115E0F694E794D794C7948E
:101FE0001A95D1F7EB81FC812E173F070CF062C0E8
:101FF0002F5F3F4F220F331F220F331FF901EF5482
:10200000FE4F4080518062807380890103551E4FCE
:102010001A83098393018201E3E03695279517958A
:102020000795EA95D1F7082519252A253B2553015F
:102030004201F2E0880C991CAA1CBB1CFA95D1F74E
:102040008C249D24AE24BF24080D191D2A1D3B1D80
:10205000ED81E370FE2EFE81FF26E4E0FE9E70011E
:102060001124F701E95CFD4FC080D180E280F3804C
:102070008C259D25AE25BF25442655266626772628
:10208000840D951DA61DB71D80279127A227B32774
:10209000E981FA810081118122813381800F911FB2
:1020A000A21FB31F80839183A283B383FD81FF5F4F
:1020B000FD8383CF0091B1011091B2012091B30152
:1020C0003091B401FD81F370EE81FE27E4E0FE9FC4
:1020D00030011124F301E95CFD4F408051806280A2
:1020E000738084259525A625B7252A013B01402626
:1020F000512662267326840D951DA61DB71D280145
:102100003901F3E07694679457944794FA95D1F7A0
:10211000482459246A247B24E2E0000F111F221F67
:10212000331FEA95D1F70C251D252E253F25400E9E
:10213000511E621E731E84259525A625B725F10123
:102140000081118122813381800F911FA21FB31F53
:1021500080839183A283B3834635FAED5F07FCE465
:102160006F07F5EB7F0709F017CF54C18091330259
:1021700090913402892B09F04DC14091B0014695F0
:10218000469542300CF428C18091B1019091B20182
:10219000A091B301B091B40104E0409F100111245B
:1021A000910123553E4F190106E51AED2CE435EB5C
:1021B00041504B83B901A801E2E0769567955795A8
:1021C0004795EA95D1F7E42FE370ED83FB81FE8319
:1021D0006E81462F50E04150504C440F551F440F24
:1021E000551FFA01EF54FE4FC080D180E280F3808A
:1021F000FA01EB54FE4FFA83E983B701A601E4E04C
:10220000440F551F661F771FEA95D1F74C015D01FA
:10221000F3E0B694A79497948794FA95D1F748255C
:1022200059256A257B2546015701E5E0B694A79418
:1022300097948794EA95D1F72C013D01F2E0440C84
:10224000551C661C771CFA95D1F784249524A62486
:10225000B724480D591D6A1D7B1DFE81F370ED8169
:10226000FE27E4E0FE9F50011124F501E95CFD4FDB
:1022700080809180A280B3808C249D24AE24BF24D2
:1022800080279127A227B327880E991EAA1EBB1E5E
:10229000482559256A257B25E981FA81808191812C
:1022A000A281B381841B950BA60BB70B808391830E
:1022B000A283B383FE81F150FE83F11189CFF10136
:1022C000C080D180E280F380AC01BD01E3E076956F
:1022D000679557954795EA95D1F746015701F4E080
:1022E000880C991CAA1CBB1CFA95D1F748255925C6
:1022F0006A257B254C015D01E2E0880C991CAA1C33
:10230000BB1CEA95D1F726013701F5E07694679476
:1023100057944794FA95D1F784249524A624B7249A
:10232000480D591D6A1D7B1D80279127A227B327C1
:10233000ED81F4E0EF9F50011124F501E95CFD4FC0
:1023400080809180A280B3808C249D24AE24BF2401
:10235000880D991DAA1DBB1D482759276A277B2771
:102360008091B1019091B201A091B301B091B401FB
:10237000841B950BA60BB70B8093B1019093B20110
:10238000A093B301B093B401095B194727433E49B9
:1023900009F010CFE091B001E150E093B001F0E01E
:1023A000EF54FE4F40814295469546954370E0912B
:1023B000B001F0E0EF54FE4F80818F7390E0A0E019
:1023C000B0E080934B0290934C02A0934D02B093E7
:1023D0004E0220E030E003C04423E1F0DBCF42179F
:1023E00089F0E091B001E150E093B001F0E0EF54EA
:1023F000FE4F5081BA2FA92F982F88272F5F3F4F6C
:10240000852BEDCF80934B0290934C02A0934D020D
:10241000B0934E0226960FB6F894DEBF0FBECDBF26
:10242000DF91CF911F910F91FF90EF90DF90CF90B0
:10243000BF90AF909F908F907F906F905F904F90E4
:102440003F902F90089525B181E090E0A0E0B0E0AA
:10245000AC01BD010090510204C0440F551F661F1E
:10246000771F0A94D2F7242B25B924B1009051028A
:1024700004C0880F991FAA1FBB1F0A94D2F7282BEC
:1024800024B961E08AE09ADC61E08AE05EDC61E028
:102490008BE05BDC60E08CE058DC61E08DE055DCDB
:1024A00080E58CBD60E082E050DC61E082E086CCBB
:1024B0008EBD0DB407FEFDCF8EB50895CF92DF928D
:1024C000EF92FF921F93CF93DF93182F85B1C12C0A
:1024D000D12C7601C394B701A6010090510204C02B
:1024E000440F551F661F771F0A94D2F74095482363
:1024F00045B9892FDDDFC82FD0E0DC2FCC27812F15
:10250000D7DF95B10090510204C0CC0CDD1CEE1C4D
:10251000FF1C0A94D2F79C2995B99E01282BC9016A
:10252000DF91CF911F91FF90EF90DF90CF900895B2
:10253000CF92DF92EF92FF92CF93C82F85B1C12C3B
:10254000D12C7601C394B701A6010090510204C0BA
:10255000440F551F661F771F0A94D2F740954823F2
:1025600045B9892FA5DF8C2FA3DF85B100905102DB
:1025700004C0CC0CDD1CEE1CFF1C0A94D2F78C2985
:1025800085B9CF91FF90EF90DF90CF900895CF93D2
:1025900080E090E0CDDF80913502853081F580E0EC
:1025A00090EB8CDF682F80913602811104C09091EE
:1025B0004F02911171C0E091360281E08E0F80933D
:1025C0003602F0E0E355FE4F608380913302909134
:1025D000340252DC90933402809333028091B00134
:1025E0002091360290E0059630E0821793070CF4B4
:1025F0005EC080913602863808F059C05CC0809178
:10260000350287FF19C0E091B0018091350291E059
:10261000980F90933502EC5FE80FF0E0E355FE4F22
:10262000C08180913302909134026C2F25DC90930D
:102630003402809333022CC08091350291E0980FD0
:1026400090933502833001F154F48823B9F081303E
:10265000F1F48091330290913402C92F19C089306E
:1026600059F08A30A1F4C0914F029091B0018DEFE2
:10267000891B809335020CC0CDE20AC080913302E1
:1026800090913402C82F04C08DE092E851DFCAEA6D
:102690008C2F90E098540DC0E091360281E08E0FAF
:1026A00080933602F0E0E355FE4F908384CF8DE0B7
:1026B00092E8CF913DCFCF910895EF920F93CF93B2
:1026C000C42F32E0309351026093500220934F02A6
:1026D000BADE80E090E02CDF85E092E829DF80E040
:1026E00098EB26DF82E09FDB892B19F480E090E0F5
:1026F000F8CF20E1C29FC0011124876C906818DFD9
:1027000080E496EA15DF8E2D90E09A5311DF82EA7D
:1027100094E90EDF8CEA92EC0BDF80914F02882364
:1027200041F083E89AEC04DF80914F0290E09E6CC8
:1027300005C08BE89AECFCDE8DE29EECF9DE83E8C6
:1027400094ECF6DE083028F4802F90E080659869DC
:1027500002C087E598E9ECDE87E79CECE9DE80E0E3
:1027600090EEE6DE80E098ECE3DE83E490ECE0DEE1
:1027700084E08093350280915002882349F040E044
:1027800050E067EC72E180E0CF910F91EF907EC74F
:1027900080E0CF910F91EF9099C7CB01E8988EDE42
:1027A000E89A08951092B001109236028FEF9FEFD1
:1027B000909334028093330260914F02662329F094
:1027C0005BDB909334028093330285E08093350283
:1027D0008DED92E8ADCE20913502253039F520916E
:1027E000B0014091360230E02B5F3F4F50E024179C
:1027F000350724F0209136022638C0F024E02093DB
:1028000035022091B001213830F021E030E03093E2
:102810003402209333022091AE012F7771F0209182
:10282000AE012F7730915002231739F020913502F5
:10283000243009F4B7DF80E008952091330230910D
:102840003402232B41F4DC01ED91FC91309719F017
:1028500080E009950BC08FEF9FEFDC0180934B0266
:1028600090934C02A0934D02B0934E0281E00895E4
:1028700080913502853079F48091360281110BC048
:1028800017DE80FD08C08DE092E852DE84E0809380
:10289000350281E0089580E00895222311F020E8B8
:1028A00001C020E0262B2093AE013091500244233A
:1028B00011F020E801C020E0232B2093AF01DC01C0
:1028C000ED91FC91309711F081E009958FEF9FEF2A
:1028D00090933402809333028091330290913402BA
:1028E00060914F02C9DA909334028093330286E0FC
:1028F000809335028DE392E81BCE809135028430BF
:10290000B9F06623D1F383B7817F633021F0623061
:1029100021F49CE003C094E001C090E0892B83BFC8
:1029200083B7816083BF889583B78E7F83BFE5CFF0
:102930000895CF92EF920F931F93CF93DF93EC0103
:10294000162FBA012093B001422F50E081EB91E0A5
:102950000E944F1E2E2D402F612FCE019EDF6C2D29
:10296000CE01DF91CF911F910F91EF90CF90C5CF06
:102970008F929F92AF92BF92CF92EF920F93CF938D
:10298000DF9300D0CDB7DEB74C015A01C4012A83D2
:1029900069836EDF2A816981811107C0C4012A839E
:1029A000698319DF69812A81F1CFCE2CE12CA50141
:1029B000C401BFDF0F900F90DF91CF910F91EF9087
:1029C000CF90BF90AF909F908F9008951F93CF931B
:1029D000DF93EC01162F67FF03C06DE072E80DC0B6
:1029E000772767FD7095756ED8DE65E072E8CE01D9
:1029F000D4DE112321F067E072E8CE01CEDE84E060
:102A000080933502DF91CF911F91089560E0DECF72
:102A10006FEFDCCFDC011496ED91FC91159780816E
:102A200008956115710589F0DB0127E332E0F901B2
:102A30005E2F521B541718F45D915193F9CF24E582
:102A40003FE0FC01318320830895FC011182108254
:102A500008956F927F928F929F92AF92BF92CF9282
:102A6000DF92EF92FF920F931F93CF93DF93EA01D0
:102A70002CE3C22ED12CE12CF12CA7019601BCD65F
:102A80006883CA01B901A7019601B6D66983CA0154
:102A9000B90128E130E040E050E0AED649015A01EA
:102AA0006A83CA01B9016C5F7F4F8F4F9F4F27E048
:102AB00030E040E050E0A0D66F5F6B8300E010E0B4
:102AC000980140E054E6652E712C60E9C62EDD24A5
:102AD000D394E42FF0E0EE54F84F7F0183E0E82236
:102AE000FF24E114F10479F4CF01B30172D6892BEC
:102AF00029F08EE691E0A0E0B0E009C0CF01B60178
:102B000068D6892BB1F38DE691E0A0E0B0E0080F24
:102B1000191F2A1F3B1FD901C801AA27BB278816E6
:102B20009906AA06BB0610F04F5FD3CF4E83E1147F
:102B3000F10489F4CF0164E670E04BD6892B29F0CB
:102B40008EE691E0A0E0B0E00AC0CF0160E971E05C
:102B500040D6892BA9F38DE691E0A0E0B0E0081BF8
:102B6000190B2A0B3B0B801A910AA20AB30ACF0158
:102B700064E670E02ED69C01CF0160E971E029D6B1
:102B8000E8E5F1E0A0E0A13059F4E114F10451F4DA
:102B90002115310511F04DE106C00097E1F302C0A7
:102BA000408101C04CE150E060E070E08416950681
:102BB000A606B70640F0841A950AA60AB70AAF5FC0
:102BC0003196AC3001F7AF5FAD8383948C82DF9197
:102BD000CF911F910F91FF90EF90DF90CF90BF901A
:102BE000AF909F908F907F906F900895CF92DF92DB
:102BF000EF92FF926B017C018091620290916302DF
:102C0000A0916402B0916502C816D906EA06FB06D7
:102C100069F046E652E0C701B6011BDFC0926202CE
:102C2000D0926302E0926402F0926502FF90EF900E
:102C3000DF90CF900895DADF80916C0290E08E549F
:102C4000984F08950F931F9360935E0270935F02F5
:102C500080936002909361020091290110912A01F2
:102C600020912B0130912C01060F171F281F391FAF
:102C70000093560210935702209358023093590242
:102C800082E090E090935502809354020E94D00D10
:102C900060935A0270935B0280935C0290935D0292
:102CA0001F910F910895CF92DF92EF92FF920F93B1
:102CB0001F930E94D00DC0905A02D0905B02E0900A
:102CC0005C02F0905D026C197D098E099F090091EC
:102CD0005E0210915F022091600230916102683EB5
:102CE000734081059105D8F00F5F1F4F2F4F3F4F65
:102CF00000935E0210935F022093600230936102A2
:102D000048EEC40E43E0D41EE11CF11CC0925A02EE
:102D1000D0925B02E0925C02F0925D02CACF809199
:102D2000560290915702A0915802B091590208178B
:102D300019072A073B07C0F1E0915202F0915302B4
:102D4000309791F10995611571058105910511F093
:102D500079DF2AC08091290190912A01A0912B014D
:102D6000B0912C0140915E0250915F02609160022F
:102D700070916102840F951FA61FB71F80935602A2
:102D800090935702A0935802B093590281E090E0CB
:102D90002091540230915502232B11F480E090E0F1
:102DA000909355028093540260915E0270915F028D
:102DB00080916002909161021F910F91FF90EF90BE
:102DC000DF90CF9008956FDF11DF8091680290E06F
:102DD000089569DF0BDF8091670290E0089563DF5B
:102DE00005DF8091660290E008955DDFFFDE80914F
:102DF0006A0290E0089557DFF9DE80916B0290E05F
:102E0000089551DF18CFFC018285807C828716826D
:102E10001782108611861282138214821582118203
:102E2000108208954F925F926F927F928F929F923D
:102E3000AF92BF92CF92DF92EF92FF920F931F93C8
:102E4000CF93DF93CDB7DEB728970FB6F894DEBFE8
:102E50000FBECDBF8C01FC0142815381648175811D
:102E6000452B462B472B09F40AC1828584FF07C1F5
:102E70001ADF6B017C01F8012285822F8F709EE0A2
:102E8000980F9F70933008F0E8C0468157816085A5
:102E90007185C416D506E606F70608F4DEC0823052
:102EA00049F44281538164817581468357836087E9
:102EB0007187D3C0833009F041C0F801428053804C
:102EC00064807580F0DE20E8822E21E5922EAA240F
:102ED000A394B12CA50194018FD460E871E581E041
:102EE00090E054D4640D751D861D971DF801428035
:102EF000538064807580C616D706E806F90650F040
:102F0000C701B601A501940177D42F5F3F4F4F4F02
:102F10005F4F05C0C701B601A50194016DD460E8FB
:102F200071E581E090E032D4640D751D861D971D1A
:102F3000F80166837783808791878FC0843009F09A
:102F400088C0F8014280538064807580ACDE4B01FC
:102F50005C01A9DE69837A838B839C83A4DE6D8305
:102F60007E838F839887840C951CA61CB71C80E8F1
:102F7000482E81E5582E66246394712C69817A81EC
:102F80008B819C81A301920137D4861A970AA80AE3
:102F9000B90A6D817E818F819885A30192012CD41D
:102FA0002C5F3F4F4F4F5F4FCA01B90127E030E020
:102FB00040E050E021D49B01AC0160E871E581E084
:102FC00090E0E4D3861A970AA80AB90AF801428168
:102FD000538164817581C814D904EA04FB0470F03C
:102FE0004A015B01F0E88F0EFAE39F1EF9E0AF1E85
:102FF000B11C8C0C9D1CAE1CBF1C06C046015701A9
:10300000840E951EA61EB71EC701B601A30192012C
:10301000F3D3861A970AA80AB90ACA01B9016C5FE4
:103020007F4F8F4F9F4F27E030E040E050E0E4D3E8
:103030009B01AC0160E871E581E090E0A7D3861ABE
:10304000970AA80AB90AF80186829782A086B186F3
:1030500004C0822F8F7EF8018287F80182858F70ED
:10306000813089F442815381648175814C0D5D1DED
:103070006E1D7F1D468357836087718704C0F801EA
:1030800082858F7E828728960FB6F894DEBF0FBEAA
:10309000CDBFDF91CF911F910F91FF90EF90DF9007
:1030A000CF90BF90AF909F908F907F906F905F90E8
:1030B0004F900895663050F4FC012BE0629FE00DC4
:1030C000F11D112492859F7081E009F480E008953C
:1030D0001F93CF93DF93EC01162FECDF882351F180
:1030E000812F90E0FE012BE0129FE00DF11D1124D5
:1030F0004281538164817581452B462B472B41F0DA
:1031000041E020813181232B09F440E0242F01C0CC
:1031100020E03BE0389FF001399FF00D1124EC0FC7
:10312000FD1F828520FB84F98287CF01DF91CF913B
:103130001F9178CEDF91CF911F9108951F93CF9368
:10314000DF93EC01162FB6DF882341F08BE0189F48
:10315000C00DD11D11248A858F7E8A87DF91CF9182
:103160001F910895EF92FF921F93CF93DF9300D0AA
:1031700000D0CDB7DEB77C01162F29833A834B836D
:103180005C8398DF29813A814B815C818823B1F08F
:10319000F7018BE0189FE00DF11D1124228333838A
:1031A00044835583612FC7010F900F900F900F90AC
:1031B000DF91CF911F91FF90EF908ACF0F900F90EA
:1031C0000F900F90DF91CF911F91FF90EF90089596
:1031D0001F93CF93DF93EC01162F6CDF882399F0B8
:1031E000FE018BE0189FE00DF11D11248285807E89
:1031F00082871182108212821382148215821682B3
:10320000178210861186DF91CF911F910895EF925A
:10321000FF920F931F93CF93DF938C01EC017C01FE
:1032200082E4E80EF11CCE01EEDD2B96CE15DF0513
:10323000D1F71882C0E06C2FC801CADFCF5FC6305B
:10324000D1F7DF91CF911F910F91FF90EF900895EB
:103250000F931F93CF93DF93EC0110E000E0612FF9
:10326000CE0128DF81110F5F1F5F1630C1F7802F5D
:10327000DF91CF911F910F9108958F929F92AF92FE
:10328000BF92DF92EF92FF920F931F93CF93DF9342
:10329000EC017C0182E4E80EF11CF70180818111D0
:1032A00043C081E080838E010D5B1F4FF8011082C7
:1032B0004BE0D42EF8018081863080F5FE01D89E47
:1032C000E00DF11D1124828584FF23C0ECDCF801A0
:1032D0002081DE01D29EA00DB11D112416968D9085
:1032E0009D90AD90BC901997681579058A059B054E
:1032F00080F0AD90BC9011971A969C911A9795FF0B
:1033000010C0622FCE0164DFA114B10411F0F501E9
:103310000995F80180818F5F8083CCCFF7011082FF
:1033200003C0CD017FDDF0CFDF91CF911F910F91D1
:10333000FF90EF90DF90BF90AF909F908F90089597
:103340008F929F92AF92BF92CF92DF92EF92FF92B5
:10335000CF93DF93EC016A017B010E94D00D4B01FA
:103360005C010E94D00D681979098A099B09C6166B
:10337000D706E806F90618F0CE017FDFF2CFDF911D
:10338000CF91FF90EF90DF90CF90BF90AF909F9044
:103390008F9008954F925F926F927F928F929F923B
:1033A000AF92BF92CF92EF92FF920F93CF93DF93A2
:1033B000EC014A015B013901C7010297039730F420
:1033C00072DC6115724E8F4D9140B0F0412C512C42
:1033D0009BE0949DF001959DF00D1124EC0FFD1FD5
:1033E000DF011A9682858F7049F08FEF481A580ACC
:1033F00026E04216510469F78FEF16C07182608291
:103400008C9100FB85F99E2D9F70807F892B8C937A
:1034100082829382A482B582642DCE01CC2011F0E9
:1034200057DE01C08BDE842DDF91CF910F91FF908D
:10343000EF90CF90BF90AF909F908F907F906F90C4
:103440005F904F900895CF92EF92FF920F93413883
:10345000E1E55E07E1E06E07710540F4CC24C3941A
:10346000F3E0EF2EF12C01E095DF01C08FEF0F911B
:10347000FF90EF90CF900895CF92EF92FF920F932D
:103480004138E1E55E07E1E06E07710540F4CC24C8
:10349000C39403E0E02EF12C00E07CDF01C08FEF4D
:1034A0000F91FF90EF90CF9008958DE692E0AFCE10
:1034B0008F929F92AF92BF92CF92DF92EF92FF9244
:1034C0000F931F93CF93DF93CDB7DEB7211531054F
:1034D00011F58091B10081FD02C0E0E001C0E4E09F
:1034E0008091B10080FDE2608091B1008091B100D7
:1034F0008B7F8093B1008091B1008D7F8093B1006C
:103500008091B1008E7F8093B100809164008064CF
:103510008093640001C0E0E04115510551F48091B1
:103520007A008F7780937A00809164008160809325
:1035300064000115110529F480916400886080936E
:103540006400E114F10429F48091640080628093A6
:103550006400C114D10429F48091640084608093D4
:103560006400A114B10429F4809164008260809306
:1035700064008114910429F4809164008068809330
:1035800064006A307105B1F063FF02C088E201C0D7
:1035900088E06770682B88E190E00FB6F894A895F2
:1035A000809360000FBE6093600080916000806433
:1035B0008093600083B7817F83BFF89483B7816075
:1035C00083BF7894889583B78E7F83BF7894452B8B
:1035D00051F4809164008E7F8093640080917A0022
:1035E000806880937A00232B61F4E1FF05C080910D
:1035F000B10084608093B100809164008F7B8093E0
:103600006400012B29F480916400877F809364001B
:10361000EF2829F4809164008F7D80936400CD2889
:1036200029F4809164008B7F80936400AB2829F497
:10363000809164008D7F80936400892829F48091B3
:1036400064008F7780936400DF91CF911F910F9179
:10365000FF90EF90DF90CF90BF90AF909F908F90B2
:1036600008951F920F920FB60F9211248F9388E145
:103670000FB6F89480936000109260000FBE8F9197
:103680000F900FBE0F901F90189508958230E8F4A8
:10369000E82FF0E0EE0FFF1FE35DFE4F71836083C4
:1036A000813041F0809169008C7F842B8093690088
:1036B000E89A089580916900440F551F440F551FE3
:1036C000837F842B80936900E99A0895823078F48F
:1036D000813011F0E89801C0E998E82FF0E0EE0F92
:1036E000FF1FE35DFE4F85E49BE191838083089596
:1036F0001F920F920FB60F9211242F933F934F9367
:103700005F936F937F938F939F93AF93BF93EF9349
:10371000FF93E0912D01F0912E010995FF91EF911A
:10372000BF91AF919F918F917F916F915F914F91D9
:103730003F912F910F900FBE0F901F9018951F92E1
:103740000F920FB60F9211242F933F934F935F93D5
:103750006F937F938F939F93AF93BF93EF93FF9359
:10376000E0912F01F09130010995FF91EF91BF9108
:10377000AF919F918F917F916F915F914F913F9109
:103780002F910F900FBE0F901F901895DB018F9314
:103790009F937FD0BF91AF91A29F800D911DA39F5A
:1037A000900DB29F900D11240895AA1BBB1B51E1EF
:1037B00007C0AA1FBB1FA617B70710F0A61BB70BA1
:1037C000881F991F5A95A9F780959095BC01CD0146
:1037D000089597FB072E16F4009406D077FD08D0C5
:1037E000E4DF07FC05D03EF4909581959F4F089546
:1037F000709561957F4F0895A1E21A2EAA1BBB1BFD
:10380000FD010DC0AA1FBB1FEE1FFF1FA217B307AC
:10381000E407F50720F0A21BB30BE40BF50B661FC2
:10382000771F881F991F1A9469F760957095809586
:1038300090959B01AC01BD01CF010895052E97FB2A
:1038400016F400940FD057FD05D0D6DF07FC02D048
:1038500046F408C050954095309521953F4F4F4F05
:103860005F4F089590958095709561957F4F8F4F2C
:103870009F4F0895A29FB001B39FC001A39F700DF9
:10388000811D1124911DB29F700D811D1124911D68
:103890000895F0DFA59F900DB49F900DA49F800D1B
:1038A000911D11240895B7FFF4CFF3DF821B930B12
:1038B0000895EE0FFF1F0590F491E02D0994CF932A
:1038C000DF938230910510F482E090E0E091B40241
:1038D000F091B50220E030E0A0E0B0E0309739F19F
:1038E0004081518148175907B8F04817590771F4BA
:1038F00082819381109729F013969C938E9312974F
:103900002CC09093B5028093B40227C021153105D5
:1039100031F04217530718F0A901DB0101C0EF0194
:103920009A01BD01DF010280F381E02DD7CF21157F
:103930003105F9F0281B390B2430310580F48A81D8
:103940009B816115710521F0FB019383828304C083
:103950009093B5028093B402FE01329644C0FE01FA
:10396000E20FF31F81939193225031093983288309
:103970003AC02091B2023091B302232B41F420913E
:103980000201309103013093B3022093B2022091DF
:103990000001309101012115310541F42DB73EB7E9
:1039A0004091040150910501241B350BE091B202B6
:1039B000F091B302E217F307A0F42E1B3F0B281778
:1039C000390778F0AC014E5F5F4F2417350748F098
:1039D0004E0F5F1F5093B3024093B20281939193B5
:1039E00002C0E0E0F0E0CF01DF91CF910895CF93E6
:1039F000DF93009709F487C0FC013297138212828B
:103A0000C091B402D091B502209781F42081318118
:103A1000280F391F8091B2029091B3028217930749
:103A200079F5F093B302E093B2026DC0DE0120E0BD
:103A300030E0AE17BF0750F412964D915C9113978A
:103A40009D014115510509F1DA01F3CFB383A2833A
:103A500040815181840F951F8A179B0771F48D91C6
:103A60009C911197840F951F0296918380831296E3
:103A70008D919C911397938382832115310529F4AD
:103A8000F093B502E093B4023EC0D9011396FC93C3
:103A9000EE9312974D915D91A40FB51FEA17FB07A6
:103AA00079F480819181840F951F0296D901119636
:103AB0009C938E938281938113969C938E931297FD
:103AC000E0E0F0E08A819B81009719F0FE01EC01B3
:103AD000F9CFCE01029628813981820F931F209160
:103AE000B2023091B3022817390769F4309729F4EC
:103AF0001092B5021092B40202C013821282D093C7
:103B0000B302C093B202DF91CF9108958F929F923A
:103B1000AF92BF92CF92DF92EF92FF92CF93DF935B
:103B2000EC01688179818A819B816115710581052C
:103B3000910521F464E279ED8BE597E02DE133EF17
:103B400041E050E07BDE49015A019B01AC01A7EA4C
:103B5000B1E49FDE6B017C01ACEEB4EFA5019401F2
:103B6000A4DEC60ED71EE81EF91EF7FE06C081E0D1
:103B7000C81AD108E10880E8F80AC882D982EA8226
:103B8000FB82C701B6019F77DF91CF91FF90EF9045
:103B9000DF90CF90BF90AF909F908F900895B6CF59
:103BA00086E091E0B3CF60930601709307018093A4
:103BB0000801909309010895FC0188279927E8944A
:103BC00021912032E9F3293010F02E30C8F32B3246
:103BD00039F02D3231F4689403C0BFD0820F911DAB
:103BE000219120532A30C8F31EF4909581959F4F60
:103BF00008951F93FC0199278827BC01E89411912F
:103C00001032E9F3193010F01E30C8F31B3249F0BE
:103C10001D3241F4689405C08BD0610F711D811D68
:103C2000911D119110531A30B8F33EF49095809580
:103C3000709561957F4F8F4F9F4F1F910895FB01A6
:103C4000DC0102C005900D9241505040D8F7089514
:103C5000FB01DC018D9181341CF08B350CF4805E0E
:103C6000659161341CF06B350CF4605E861B61114C
:103C700089F3990B0895FB01DC010D900020E9F711
:103C8000119705900D920020E1F70895FB01DC01EA
:103C90008D91059080190110D9F3990B0895FB01BE
:103CA000DC0102C001900D9241505040D8F70895B8
:103CB000FB01DC010D900020E9F7119701900D92B6
:103CC0000020E1F70895FB01DC014150504030F045
:103CD0008D910190801919F40020B9F7881B990B78
:103CE0000895FA01A191B081009719F41097E1F0BD
:103CF000CD01DC01CD010D90002011F4C00113C0F5
:103D0000FB012191222319F02015D9F7F3CFFB01F4
:103D10002191201519F41E92119606C02223C1F795
:103D20000D900020A1F7D001FA01A193B08308956E
:103D3000592F482F372F262F660F771F881F991F5F
:103D4000660F771F881F991F620F731F841F951FAF
:103D5000660F771F881F991F08957AE0979F902D0F
:103D6000879F802D910D11240895AEE0B0E0EAEB1D
:103D7000FEE1C0C20D891E898EE08C831A830983FF
:103D80008FEF9FE79E838D83AE01475E5F4F6F8904
:103D9000788DCE01019608D0EF81F885E00FF11FF4
:103DA00010822E96E4E0C2C2ACE0B0E0E9EDFEE1A4
:103DB00093C27C016B018A01FC0117821682838108
:103DC00081FFB0C1CE0101964C01F7019381F6014C
:103DD00093FD859193FF81916F01882309F49EC122
:103DE000853239F493FD859193FF81916F0185327E
:103DF00021F4B70190E0E0D1E8CF512C312C20E044
:103E00002032A0F48B3269F030F4803259F08332E2
:103E100069F420612CC08D3239F0803339F421608F
:103E200026C02260246023C0286021C027FD27C04F
:103E300030ED380F3A3078F426FF06C0FAE05F9E86
:103E4000300D1124532E13C08AE0389E300D1124FA
:103E5000332E20620CC08E3221F426FD5FC1206417
:103E600006C08C3611F4206802C0883641F4F60191
:103E700093FD859193FF81916F018111C1CF982F9F
:103E80009F7D9554933028F40C5F1F4FFFE3F98317
:103E90000DC0833631F0833771F0833509F057C098
:103EA00021C0F801808189830E5F1F4F4424439411
:103EB000512C540114C03801F2E06F0E711CF8014E
:103EC000A080B18026FF03C0652D70E002C06FEFB7
:103ED0007FEFC5012C8765D12C0183012C852F77BD
:103EE000222E16C03801F2E06F0E711CF801A0807E
:103EF000B18026FF03C0652D70E002C06FEF7FEF39
:103F0000C5012C8743D12C012C852068222E8301EA
:103F100023FC19C0832D90E048165906A0F4B70180
:103F200080E290E049D13A94F5CFF50127FC8591E4
:103F300027FE81915F01B70190E03ED131103A94A4
:103F4000F1E04F1A51084114510479F7DEC084366C
:103F500011F0893631F5F80127FF07C060817181C2
:103F6000828193810C5F1F4F08C060817181882717
:103F700077FD8095982F0E5F1F4F2F76B22E97FFFB
:103F800009C090958095709561957F4F8F4F9F4F99
:103F90002068B22E2AE030E0A40140D1A82EA81853
:103FA00043C0853729F42F7EB22E2AE030E025C0A9
:103FB000F22FF97FBF2E8F36C1F018F4883579F0D3
:103FC000ADC0803719F0883721F0A8C02F2F2061AD
:103FD000B22EB4FE0DC08B2D8460B82E09C024FF14
:103FE0000AC09F2F9660B92E06C028E030E005C0B9
:103FF00020E130E002C020E132E0F801B7FE07C066
:1040000060817181828193810C5F1F4F06C0608146
:10401000718180E090E00E5F1F4FA401FFD0A82EB9
:10402000A818FB2DFF77BF2EB6FE0BC02B2D2E7FC1
:10403000A51450F4B4FE0AC0B2FC08C02B2D2E7E8D
:1040400005C07A2C2B2D03C07A2C01C0752C24FFBF
:104050000DC0FE01EA0DF11D8081803311F4297E2F
:1040600009C022FF06C07394739404C0822F86781F
:1040700009F0739423FD12C020FF06C05A2C73145C
:1040800018F4530C5718732C731460F4B70180E2C2
:1040900090E02C8791D073942C85F6CF731410F494
:1040A000371801C0312C24FF11C0B70180E390E024
:1040B0002C8782D02C8522FF16C021FF03C088E503
:1040C00090E002C088E790E0B7010CC0822F8678AC
:1040D00051F021FD02C080E201C08BE227FD8DE29C
:1040E000B70190E069D0A51430F4B70180E390E007
:1040F00063D05A94F8CFAA94F401EA0DF11D80819F
:10410000B70190E059D0A110F6CF332009F45DCE6D
:10411000B70180E290E050D03A94F7CFF701868162
:10412000978102C08FEF9FEF2C96E2E1F1C0DC0196
:10413000CB01FC01F999FECF06C0F2BDE1BDF89AB2
:10414000319600B40D9241505040B8F70895F99956
:10415000FECF92BD81BDF89A992780B50895DC0104
:10416000CB0102C02D9105D041505040D8F70895A1
:10417000262FF999FECF1FBA92BD81BD20BD0FB683
:10418000F894FA9AF99A0FBE01960895FC010590E9
:10419000615070400110D8F7809590958E0F9F1F49
:1041A0000895FC016150704001900110D8F780958E
:1041B00090958E0F9F1F08950F931F93CF93DF93BA
:1041C000182F092FEB018B8181FD03C08FEF9FEF2B
:1041D00020C082FF10C04E815F812C813D8142173B
:1041E00053077CF4E881F9819F012F5F3F4F3983AA
:1041F0002883108306C0E885F985812F0995892BCE
:1042000029F72E813F812F5F3F4F3F832E83812FE0
:10421000902FDF91CF911F910F910895FA01AA2756
:10422000283051F1203181F1E8946F936E7F6E5FF9
:104230007F4F8F4F9F4FAF4FB1E03ED0B4E03CD0A7
:10424000670F781F891F9A1FA11D680F791F8A1F8A
:10425000911DA11D6A0F711D811D911DA11D20D0F1
:1042600009F468943F912AE0269F11243019305DAB
:104270003193DEF6CF010895462F4770405D41939C
:10428000B3E00FD0C9F7F6CF462F4F70405D4A33E9
:1042900018F0495D31FD4052419302D0A9F7EACFB1
:1042A000B4E0A6959795879577956795BA95C9F7E0
:1042B00000976105710508959B01AC010A2E0694D3
:1042C0005795479537952795BA95C9F7620F731F8C
:1042D000841F951FA01D08952F923F924F925F92C9
:1042E0006F927F928F929F92AF92BF92CF92DF9206
:1042F000EF92FF920F931F93CF93DF93CDB7DEB76B
:10430000CA1BDB0B0FB6F894DEBF0FBECDBF0994FE
:104310002A88398848885F846E847D848C849B8455
:10432000AA84B984C884DF80EE80FD800C811B8163
:10433000AA81B981CE0FD11D0FB6F894DEBF0FBE92
:10434000CDBFED01089512E0C2E6D2E003C0FE0148
:0E435000B2DA2296C436D107D1F7F894FFCF27
:10435E000000B602800001000000C3063C0689077B
:10436E00080707080609F908EE053A0583059D04B6
:10437E004E086D0A4804FF03012C010000451B4541
:10438E001B41424344414243444142434441424320
:10439E0044006E6F64654255494C445F54494D4527
:1043AE0000200030000607081F1C1F1E1F1E1F1FA7
:0443BE001E1F1E1F81
:00000001FF
