:10000000C3C0F7C0DCC0DBC0DAC0D9C032C3D7C0C0
:10001000D6C0D5C0D4C0D3C0D2C0D1C0D0C0CFC04C
:10002000CEC0CDC0CCC04952480005010906A1018F
:10003000050719E029E715002501750195088102DA
:10004000950375082565190029658100C017030609
:1000500003060000000000090911160000030F0646
:100060000A060A000000000000010B11000103094C
:10007000050C050900000000050D0D151500000315
:10008000080307171E0307090D0005050F0F0100E0
:1000900000070B100B10000000000107070D0D00FA
:1000A000000105020B0C1A020B020B00101C283079
:1000B0000101000407131738071307130C18000C6D
:1000C0001801010003050C1021050C050C0010158A
:1000D00025250101001C050C1122050C050C000D45
:1000E0001A222A01010002050C1122050C050C0040
:1000F0000000000001010002050C1122050C050C96
:100100000010102020010100010F15070B070B073D
:100110000B0F14000F14000100090222000101005E
:1001200080320904000001030000000921010100E0
:10013000012223000705810308000A1201100100B3
:10014000000008424231E1000101020001200349A0
:10015000005200200048004900440020004B006588
:1001600000790062006F0061007200640016036590
:10017000006C0074006500630068002E006F007260
:10018000006700040309040011241FBECFE5D4E07A
:10019000DEBFCDBF10E0A0E6B0E0E8EBF8E102C0C2
:1001A00005900D92A836B107D9F720E0A8E6B0E097
:1001B00001C01D92A53EB207E1F77FD27BCB20CFD5
:1001C000A82FB92F80E090E041E050EA609530E040
:1001D00009C02D9182279795879510F08427952740
:1001E000305EC8F36F5FA8F30895EADF8D939D93A7
:1001F0000895CF93CFB7CF93C395849BE9F7849BA2
:1002000009C0849B07C0849B05C0849B03C0849B5A
:1002100001C0A3C0DF93C091C800DD27C153DF4FE9
:10022000849B02C0DF91EBCF2F930F931F9300B3FA
:100230002FEF04FB20F94F933F9310B34FEF0127AB
:1002400004FB21F93BE031C04E7F012F10B3216048
:1002500028C0102F4D7F2260000000B329C04B7FC3
:100260002460012F000010B32BC010B3477F28601B
:100270002AC04F7E00B320612CC04F7D10B3206296
:100280002FC04F7B00B3206432C0422700B3499394
:100290004FEF0000102714FB20F910B31471C9F1BF
:1002A000297F91F2012704FB21F900B3237F89F212
:1002B000315058F1102714FB22F910B3277E79F240
:1002C000012704FB23F92F7C81F200B3102714FBD4
:1002D00024F92F7971F200C010B3012704FB25F92E
:1002E0002F7359F200C000B3102714FB26F92230F7
:1002F00040F200C010B3012704FB27F9243028F690
:100300004F77206810B30000F9CF10E41ABF002720
:1003100019C03B503195C31BD04010E41ABF08816F
:10032000033CF9F00B34E9F02091C6001981110F5C
:100330001213EDCF4A81441F093641F10D3211F0FD
:10034000013E29F70093CD003F914F911F910F91EE
:100350002F91DF91CAB7C6FD4FCFCF91CFBFCF91BD
:1003600018952091CD00222379F31091CB00112311
:1003700069F534306AF13093CB002093C7001091B7
:10038000C8003BE0311B3093C80022C00091CB0075
:100390000130E4F40AE54F7049F43091660034FD11
:1003A00019C000936600CFEAD0E018C03091BA00BF
:1003B00034FD10C00093BA00CBEBD0E00FC02795FE
:1003C000A8F45150A9F4220F0000F9CF4AE503C068
:1003D00042ED01C0432FC4E1D0E032E011B314611B
:1003E000949A11BB02B320E414E15F93012756E015
:1003F00002BB279520F4515021F4220FF9CF012799
:1004000056E000003B5A02BBD0F2279528F4515029
:1004100029F4220F0000F9CF012756E0279502BBEF
:1004200020F4515021F4220FF9CF012756E02991F1
:10043000332302BB21F60B7E1091CC00110FC65165
:10044000D04002BB11F01093C60010E41ABF006147
:1004500011B31B7E402F4B7E5F9100C000C002BBDA
:1004600011BB42BB71CFFF920F931F93CF93DF93CA
:100470008C01C0E0D0E0F12CCE01F2D980179107B9
:1004800039F0F394229683E5F812F6CF80E001C0AC
:100490008F2DDF91CF911F910F91FF9008950F93B2
:1004A0001F93CF93DF938C01C0E0D0E0CE01D8D969
:1004B0008017910739F0229680E0C63AD807B1F745
:1004C00080E001C081E0DF91CF911F910F910895ED
:1004D0009091BA0094FFFCCF10926C0010926D00C6
:1004E00010926E0010926F0060936C0080936D000C
:1004F00064E08CE690E06DD88091BA0084FFFCCF78
:1005000010926C0010926D0010926E0010926F00AD
:1005100064E08CE690E05DC80F931F93CF93DF9368
:10052000FC018CE690E09093CA008093C900908112
:1005300090768181903239F48A3009F08BC08381C2
:1005400080936B0087C08830D9F038F4873009F089
:1005500081C08281809360007DC08930F1F08A3053
:1005600009F078C010927000109271001092720021
:100570001092730066E270E080E790E06AD962C092
:10058000109270001092710010927200109273001D
:10059000809160008093700055C01092700010929E
:1005A00071001092720010927300C281C0937000AB
:1005B0008381809371008481809372008581809310
:1005C0007300809160008B30D1F5809168008823A2
:1005D000B1F1C33558F5D0E0CC0FDD1FC050D0408D
:1005E000CE013ED90091690010916A0080179107F1
:1005F00029F48FE08093720080E11CC0C8014FDFB6
:10060000882329F08FE08093720081E113C0B80144
:10061000CE012BD99091690080916A00909370006F
:10062000809371008EE08093720006C08FE080930B
:10063000720082E1809373001092680003C08DE025
:100640008093730080E790E09093CA008093C90084
:1006500084E001C080E0DF91CF911F910F91089558
:100660008FE193E09BBD8ABD89E08EBD80E189BFAB
:10067000089578941F920F920FB60F9211242F9322
:100680003F934F935F936F937F938F939F93AF931A
:10069000BF93EF93FF93F3D1FF91EF91BF91AF9190
:1006A0009F918F917F916F915F914F913F912F918A
:1006B0000F900FBE0F901F901895CF93DF9300D02F
:1006C00000D000D0CDB7DEB7F894ADD815D1C8DFD3
:1006D0008D98959884E1E7ECFFEA3197F1F700C037
:1006E00000008150C1F78D9A959A2EE088E190E044
:1006F0000FB6F894A89581BD0FBE21BD789411E086
:10070000CE010196FCD0882379F08C819D81909355
:100710006A008093690010936800209160002B307C
:1007200019F0A1DE60E0D4DE78D7A895E9CF60911A
:10073000AC0090919B00611105C09F3019F480932B
:10074000AD00D6C07091A400671730F12091A500CC
:10075000621710F5E091AA00482F50E02091900018
:1007600030919100EE2379F0E62FE71B0E2E02C0A8
:10077000440F551F0A94E2F7422B532B50939100DC
:100780004093900032C0220F331F242B352B30931F
:1007900091002093900029C07091A600671728F15E
:1007A0002091A700621708F5E091AA00482F50E0B9
:1007B00020918E0030918F00EE2379F0E62FE71B19
:1007C0000E2E02C0440F551F0A94E2F7422B532B02
:1007D00050938F0040938E0008C0220F331F242BAC
:1007E000352B30938F0020938E009C31C1F493EF12
:1007F000960F9D3008F07CC090E023EF260F02C0DA
:10080000880F991F2A95E2F720918C0030918D0076
:10081000282B392B30938D0020938C0069C09330A6
:10082000C1F49FEE960F943008F062C090E02FEE76
:10083000260F02C0880F991F2A95E2F720918800A1
:1008400030918900282B392B309389002093880020
:100850004FC0953009F04CC09CEE960F9430A0F438
:10086000482F50E098EF960F02C0440F551F9A95FD
:10087000E2F720918E0030918F00242B352B30939E
:100880008F0020938E0013C098EE960F943068F47A
:10089000282F9CEE960F01C0220F9A95EAF79091AF
:1008A0008100922B9093810002C0603308F5E62FFF
:1008B000E695E695E695262F2770F0E0EE57FF4F78
:1008C000882359F081E090E0022E01C0880F0A943D
:1008D000EAF79081982B90830BC081E090E0022E84
:1008E00001C0880F0A94EAF780959081892380835C
:1008F0006F5F6093AC000895C098B8980895FC01AC
:1009000080919A00882309F49AC0809199008730D9
:1009100009F480C028F48230A1F1833059F091C0ED
:10092000873109F459C0883109F47EC0813109F05A
:1009300088C052C0809195009091960020919500BA
:1009400030919600892F992720953095332782176B
:10095000930709F070C080919500909196009927B7
:100960009093960080939500209195003091960089
:100970008091930090919400982F8827822B932B3D
:1009800044C08091950090919600209195003091FF
:100990009600892F99272095309533278217930742
:1009A000A9F080919700909198008E3E974809F0A9
:1009B00042C08BE0809399008091950090919600C1
:1009C000892F9927909398008093970080919500A4
:1009D00090919600992719C080919500909196006A
:1009E00020919500309196008695817091E098272E
:1009F0002170332781E0282721709217E1F0809140
:100A00009500909196009695879590939600809387
:100A1000950017C080919700909198008F7D9093DA
:100A20009800809397000DC080919500909196005A
:100A30008D37910531F480E010929A00089580E09E
:100A400008958091990080838091970090919800FB
:100A50009283818380919500909196009483838303
:100A600080919200858310929600109295001092CA
:100A70009800109297001092920081E0DDCFCF9302
:100A8000DF9386B390919A00911191C481709091F7
:100A90008000911149C090917F00811104C09F5F37
:100AA00090937F0084C4992309F181E080938000B2
:100AB00080937E0010927D0010928F0010928E0025
:100AC00010929100109290001092810010928B0071
:100AD00010928A0010928D0010928C009FEF9093DC
:100AE000AC0080937C0010927B0061C480917900FF
:100AF00090917A008F3F2FEF920709F458C4019626
:100B000090937A00809379008233944008F44FC424
:100B10008091770090917800892B09F448C4109255
:100B200078001092770043C490917E00992309F4D5
:100B300029C1882359F080917C008F5F80937C00CD
:100B40008A3E08F4E2C280919900CBC280917F0076
:100B500091EE980F9B3030F490917C009650953038
:100B600008F4BEC090919900943161F490EB980F15
:100B70009F3640F490917C009A539C3618F467EFAE
:100B800070E0BFC092EA980F943588F420917C0001
:100B900032ED320F3C3208F4A6C02751273138F429
:100BA00080919900843159F366EE70E0AAC02091DB
:100BB0009900243139F4943528F490917C009550B3
:100BC0009830E8F294EC980F903130F490917C00DA
:100BD0009C53903108F48AC097ED980F983130F407
:100BE00090917C009952983108F483C093ED980F4E
:100BF0009D3030F490917C009651983008F47CC080
:100C000095EF980F963020F09AEE980F9B30F0F405
:100C100090917C0025EF290F263020F02AEE290F35
:100C20002B30A0F4909376008151803118F09151CF
:100C3000903130F41092750080E480937B0003C003
:100C400081E08093750061E970E05BC02DEF280FB3
:100C5000253058F490917C0039EE390F383008F483
:100C60004EC09950953008F44AC09DED980F9B30C6
:100C700068F490917C009B50963040F4109276007E
:100C800081E0809375006FE670E03BC08650853050
:100C900070F480917C009FED980F913140F4809327
:100CA000760081E0809375006EE570E02AC02A30FE
:100CB00090F480917C009AEF980F953020F094EF9B
:100CC000980F993040F48093760081E0809375000E
:100CD0006DE470E016C01092800060E070E011C01A
:100CE00068E071E00EC065ED70E00BC064EC70E090
:100CF00008C063EB70E005C062EA70E002C060E823
:100D000070E080918000882329F041E150E08BE978
:100D100090E096D51092AC008091AB0090919B0032
:100D200080FF1DC0973131F1993021F140917C0055
:100D300020919D00241760F450E030E0220F331F13
:100D4000241735072CF08695817091E0892711C012
:100D50009091750091110EC0869581700AC09830EF
:100D600049F480917C008751883010F481E001C003
:100D700080E0DDDC81E080937F0010927C001092A7
:100D80007E00C3C190917D00992309F4B1C18823ED
:100D900009F412C36091AC008091A800681317C0D9
:100DA0009091A900913099F48091AB0080FD0CC026
:100DB00080917F009091A000891708F492C19091D2
:100DC000A100981708F48DC11092A9009EC19091BE
:100DD0007C009F5F90937C0070919B00713031F597
:100DE000492F50E04C3051050CF4C7C06B3008F46B
:100DF000C4C081E0860F8093A800862F90E00B97F7
:100E0000382F22278091900090919100822B932B74
:100E100090939100809390008091A600860F8F5F41
:100E20008093A7008AE080937C00C6C27F3009F0DF
:100E300059C02091A9002111A0C0963218F18BEF62
:100E4000860F8230F8F481E08093A90088E18093D6
:100E50009B0087E08093A8001092A4001092A50048
:100E60001092A6008093A7002091AD0080918E0083
:100E700090918F00880F991F822B90938F00809301
:100E80008E009AC280919F00292F30E090E0880F59
:100E9000991F281739072CF0683008F436C18AE00A
:100EA00036C06A3008F431C180E180939B0089E04C
:100EB0008093A40091E19093A50091E09093A60007
:100EC0008093A70080918E0090918F009C01222733
:100ED0003370232B09F419C1909390001092910064
:100EE0009927D1C0773109F048C02091A90021117C
:100EF00044C080919F00292F30E090E0880F991F17
:100F0000281739073CF06F3008F4FFC081E1809367
:100F1000A8004EC0613108F4F8C081E180939B00C5
:100F20001092A4008BE08093A5008093A60086E138
:100F30008093A70080918E0090918F009C0146E0E5
:100F4000369527954A95E1F7409190005091910090
:100F5000440F551F440F551F242B352B3093910000
:100F6000209390008F73992774E0880F991F7A95CA
:100F7000E1F720917500822B86C02091AB0020FF05
:100F80001BC020919F00492F50E030E0220F331FFB
:100F9000421753078CF0462F50E0282F30E02250A4
:100FA00031094217530744F02091A900211104C0D0
:100FB00081E08093A90000C29A3E08F4A6C0262FC3
:100FC00030E090E001972817390741F48091A9009B
:100FD000811104C06F5F6093AC0097C0723021F53F
:100FE00080EF860F823008F07CC041E04093A9007A
:100FF00084E180939B006093A80080919000909181
:1010000091009C01C4E036952795CA95E1F730938D
:101010008F0020938E008F7099279093910080937A
:1010200090004093800071C07C3109F05AC060325A
:1010300079F581E08093A90082E080939B00609322
:10104000A80080918C0090918D00AC01542F442712
:101050005295550F507E2091900030919100242B95
:10106000352B309391002093900040918E0020E02A
:1010700030E0342F330F330FB3E096958795BA9550
:10108000E1F7822B932B90938F0080938E003DC0CD
:1010900080EF860F823028F581E08093A90084E1FB
:1010A00080939B006093A800409190005091910024
:1010B00080918C0020E030E0382F330FCA01F4E03B
:1010C00096958795FA95E1F7822B932B90938F0055
:1010D00080938E004F70552750939100409390005D
:1010E00014C01092800010927F0010927C000DC0FE
:1010F000811106C080917F008F5F80937F0005C0C3
:1011000081E080937D0080937C0080918000882323
:1011100009F44DC16091AC008091A800681347C1EB
:101120008091A900811143C14091630050916400F6
:1011300080918E0090918F004817590769F4209193
:10114000790030917A00203B344030F420917400D3
:101150002F5F2093740002C010927400E0919B00F6
:10116000E13031F4209174002150223070F43AC003
:10117000E53029F420917400213039F433C0EA308D
:1011800021F42091740020FD2DC021E020939A00CD
:10119000E83069F59C0120953095337060917700B7
:1011A0007091780026173707B9F430938F00209399
:1011B0008E001092780010927700E0939900809151
:1011C00090009091910090939800809397003093B5
:1011D000960020939500ACC010929A0090937800EE
:1011E0008093770010927A0010927900A1C0EF30BE
:1011F00029F48F3F914009F06DC00EC0E03179F4C1
:1012000020919000309191002F3F310509F062C08C
:101210008E3F910509F05EC010929A0089C0E230BD
:1012200011F5611157C08091790090917A00883052
:101230009740B0F48091610090916200909391008A
:101240008093900050938F0040938E008091920085
:1012500081608093920010927A00109279003AC0D7
:1012600010929A0037C0E53069F590918200809124
:10127000830060918400292F22952F709F70292769
:10128000982F9F70292782958F70282730E0862F0E
:101290008F7090E02817390711F010929A00809112
:1012A0008500862790918600892790918700891371
:1012B00010929A008091920090918100892B8093E6
:1012C000920008C0E93031F4643221F485E1809362
:1012D000990002C0E0939900809190009091910054
:1012E0009093980080939700E23029F490936200E5
:1012F000809361000DC0E73059F420917B0080910C
:101300008E0090918F00822B90938F0080938E009F
:1013100080918E0090918F0090939600809395001D
:10132000809188009091890090939400809393001D
:1013300080919A00882351F180918E0090918F00C6
:1013400020919000309191004817590799F44091ED
:101350006100509162004217530761F44091790097
:1013600050917A004A3C584028F4409192004160E4
:101370004093920030936200209361009093640048
:101380008093630010927A0010927900109280008E
:1013900010928F0010928E0010927F0010927C00AD
:1013A00080919900843119F487E880937F008091BF
:1013B0009A00DF91CF9108958091AB0080FF90C09B
:1013C000C0917F0090919D009C1708F048C09091BB
:1013D0009B009930A1F49091AC00943081F42C2FB3
:1013E00030E02C3031055CF08091A800843221F48B
:1013F00081E09DD981E030C080E099D91EC0D1E064
:10140000869581708D2793D980919B008930D9F47E
:101410008091AC008430B9F48C2F90E00C979CF054
:1014200081E085D980919F0020917C0030E090E0A0
:10143000880F991F821793071CF4109275004BC0F8
:10144000D093750048C08091AB00869581706FD9AC
:101450008091AB0086958170809375003CC080912F
:101460009C00C817A0F12091760080919F004091C8
:101470007500821768F430E090E0880F991F82179A
:10148000930734F081E0411180E08093750001C042
:10149000842F90919B009930C1F49091AC009130D1
:1014A000A1F4813091F494E29093A80025E0209378
:1014B000A40024E12093A50025E12093A6009093A9
:1014C000A700109291001092900031D904C01092A0
:1014D000800010927C0080917C008093760075C023
:1014E00080919B00833041F59091AC00903131F5B3
:1014F00080917F008550883058F580917C0024ECE5
:10150000280F203150F410927D0010928900109223
:10151000880081E18093AC005AC02AE020939B00B0
:101520009093A60090E29093A7009093A80080511A
:10153000823108F048C037C08C3179F080917F004B
:1015400090919C00891708F59091A000891768F583
:101550001092800010927C003AC08091AC008830DC
:1015600069F790917C009E529C3240F79BE19093EA
:101570009B001092A4008093A5008093A60080E1B8
:101580008093A7008093A80020C090919D00981799
:10159000D8F290917C0020919E009217A8F22091A1
:1015A0009F00291788F281E00FC09091A100981741
:1015B00078F280917C009091A200891748F2909176
:1015C000A300981728F280E0B2D810927D0081E045
:1015D00094CDCF93C62F2091BA0024FF07C020914D
:1015E000BB0038E823272093BB0003C02AE52093E3
:1015F000BA00DC01ECEBF0E09C2F9E0F8D91819303
:10160000892F8E1B1816D4F36C2F8CEB90E0EDD540
:10161000CC5FC093BA00CF910895CF93DF938091B0
:10162000CB00835087FDA8C09091C8002091C700CF
:101630002D3209F09FC0883009F09CC0CCE0D0E08A
:10164000C91BD109C153DF4F83EC8093AF008AE5FA
:10165000809366001092AE008881807619F0CE01EA
:101660005BD77FC09A811092B8008981811106C032
:101670001092B90028EB30E082E06FC0853019F499
:101680009093CC0067C0863009F04EC08B818130CA
:1016900041F48BE391E09093CA008093C90082E10A
:1016A0003FC0823041F489E191E09093CA00809379
:1016B000C90082E235C08330F1F4911108C083E89B
:1016C00091E09093CA008093C90084E029C09130D2
:1016D00041F48DE691E09093CA008093C90086E1C1
:1016E0001FC09230E1F48DE491E09093CA008093A2
:1016F000C90080E215C0813241F48BE291E0909301
:10170000CA008093C90089E00BC0823241F48AE2AA
:1017100090E09093CA008093C90083E201C080E00A
:1017200090E49093AE001DC0883069F0893019F4C0
:101730009093CE000FC08A3049F08B3059F48BE47F
:101740008093BB0007C02EEC30E002C028EB30E0F5
:1017500081E003C028EB30E080E03093CA002093A2
:10176000C9009F81911104C09E81981708F4892FA8
:10177000809365001092CB008091660084FF46C084
:10178000809165008F3F09F441C0C82F893008F06F
:10179000C8E08C1B809365008091AF0098E8892792
:1017A0008093AF00CC2331F12091C9003091CA0061
:1017B0008091AE0086FF0BC0A0EBB0E0F9018C2F4A
:1017C0008A0F94919D9331968A13FBCF09C0D9015A
:1017D000E0EBF0E08C2F8E0F9D9191938E13FCCF58
:1017E0008FEF8C0F90E00196820F931F9093CA00A9
:1017F0008093C9006C2F80EB90E0F7D4CC5FCC30A5
:1018000019F08FEF80936500C093660084E190B378
:10181000947131F48150D9F71092CC001092C60027
:10182000DF91CF91089585B7826085BF8BB78064C3
:101830008BBF8BE48093BB008AE58093BA00089548
:10184000FB01DC0102C005900D9241505040D8F7D9
:101850000895FB01DC0105900D920020E1F7089549
:10186000A8E1B0E042E050E006C00196272F12D078
:1018700010C0DC01CB01FC01E199FECF06C0FFBB2B
:10188000EEBBE09A31960DB20D9241505040B8F740
:101890000895262FE199FECF9FBB8EBBE09A01975A
:1018A0000DB2021631F02DBB0FB6F894E29AE19A10
:0818B0000FBE0895F894FFCF6C
:0818B8000CFFFFFFFFFF5A00C7
:00000001FF
