:10000000B2C300000C94C71C0C94EE1C0C94151D7C
:100010000C943C1DD0C30000CEC300000C94631DA3
:10002000CAC30000C8C300000C949F120C94421174
:10003000C2C30000C0C30000BEC30000BCC30000B8
:10004000BAC30000B8C30000B6C30000B4C30000C8
:10005000B2C30000B0C30000AEC300000C9449134B
:10006000AAC30000A8C30000A6C30000A4C30000E8
:10007000A2C30000A0C300009EC300009CC30000F8
:100080009AC3000098C3000096C3000094C3000008
:1000900092C3000090C300008EC300008CC3000018
:1000A0008AC3000088C3000086C30000A11DA41DF0
:1000B000931D971D9D1DC51DC51DC51DA81DAC1DEE
:1000C000B01DB61DBA1DC51DC01D7B226E6F6465B7
:1000D000223A222573222C2274797065223A2564F3
:1000E0002C22737461747573223A25642C2274690E
:1000F0006D65223A256C752C226576656E74223A00
:1001000025642C22736F75726365223A25642C2254
:1001100064617461223A222573227D0D0A007B22DC
:100120006E6F6465223A222573222C2274797065E1
:10013000223A25642C22737461747573223A256403
:100140002C2274696D65223A256C752C22657665C2
:100150006E74223A25642C22736F75726365223A9D
:1001600025642C2264617461223A222573227D0D5C
:100170000A007B226E6F6465223A222573222C22AC
:1001800074797065223A25642C22737461747573D6
:10019000223A25642C2274696D65223A256C752CEF
:1001A000226576656E74223A25642C22736F75720F
:1001B0006365223A25642C2264617461223A222507
:1001C00073227D0D0A007B226E6F6465223A222520
:1001D00073222C2274797065223A25642C22737460
:1001E00061747573223A25642C2274696D65223A14
:1001F000256C752C226576656E74223A25642C2256
:10020000736F75726365223A25642C226461746190
:10021000223A222573227D0D0A007B226E6F6465CF
:10022000223A222573222C2274797065223A2564A1
:100230002C22737461747573223A25642C227469BC
:100240006D65223A256C752C226576656E74223AAE
:1002500025642C22736F75726365223A25642C2203
:1002600064617461223A222573227D0D0A007B228B
:100270006E6F6465223A222573222C227479706590
:10028000223A25642C22737461747573223A2564B2
:100290002C2274696D65223A256C752C2265766571
:1002A0006E74223A25642C22736F75726365223A4C
:1002B00025642C2264617461223A256C757D0D0AD7
:1002C000007B226E6F6465223A222573222C2274F1
:1002D000797065223A25642C2273746174757322D7
:1002E0003A25642C2274696D65223A256C752C229E
:1002F0006576656E74223A25642C22736F7572637D
:1003000065223A25642C2264617461223A256C7559
:100310007D0D0A005D7D0D0A002C007B226E616D53
:1003200065223A222573222C2274797065223A259F
:10033000642C2274696D65223A256C752C227570C7
:1003400074696D65223A256C752C2274746C223A9E
:10035000256868757D007B226E6F6465223A2225D0
:1003600073222C2274797065223A25642C227374CE
:1003700061747573223A25642C2274696D65223A82
:10038000256C752C226576656E74223A25642C22C4
:10039000736F75726365223A25642C2264617461FF
:1003A000223A5B007B226E6F6465223A222573221B
:1003B0002C2274797065223A25642C22737461743E
:1003C0007573223A25642C2274696D65223A256C76
:1003D000752C226576656E74223A25642C22736F23
:1003E00075726365223A25642C2264617461223A35
:1003F000256868757D0D0A007B226E6F6465223A60
:10040000222573222C2274797065223A25642C22CD
:10041000737461747573223A25642C2274696D6556
:10042000223A256C752C226576656E74223A256415
:100430002C22736F75726365223A25642C226461E5
:100440007461223A7B226368616E6E656C223A2584
:100450006868752C2274696D656F7574223A256C15
:10046000757D7D0D0A007B226E6F6465223A222520
:1004700073222C2274797065223A25642C227374BD
:1004800061747573223A25642C2274696D65223A71
:10049000256C752C226576656E74223A25642C22B3
:1004A000736F75726365223A25642C2264617461EE
:1004B000223A256868757D0D0A007B226E6F64659F
:1004C000223A222573222C2274797065223A2564FF
:1004D0002C22737461747573223A25642C2274691A
:1004E0006D65223A256C752C226576656E74223A0C
:1004F00025642C22736F75726365223A25642C2261
:1005000064617461223A256868757D0D0A007B225A
:100510006E6F6465223A222573222C2274797065ED
:10052000223A25642C22737461747573223A25640F
:100530002C2274696D65223A256C752C22657665CE
:100540006E74223A25642C22736F75726365223AA9
:1005500025642C2264617461223A222573227D0D68
:100560000A007B226E6F6465223A222573222C22B8
:1005700074797065223A25642C22737461747573E2
:10058000223A25642C2274696D65223A256C752CFB
:10059000226576656E74223A25642C22736F75721B
:1005A0006365223A25642C2264617461223A2564D1
:1005B0007D0D0A007B226E6F6465223A222573222C
:1005C0002C2274797065223A25642C22737461742C
:1005D0007573223A25642C2274696D65223A256C64
:1005E000752C226576656E74223A25642C22736F11
:1005F00075726365223A25642C2264617461223A23
:10060000256868757D0D0A00667265656D656D000B
:100610006765746E616D65007365746E616D65000C
:1006200069726C70656572007170656572006C73DB
:10063000706565727300757074696D6500646174CE
:1006400065006E6F64654255494C445F54494D45A1
:1006500000080B000202020100090400000102026E
:1006600000000524001001052401010104240206F4
:10067000052406000107058103100040090401005C
:10068000020A00000007050202400000070583027D
:1006900040000012010002EF0201404123368000B9
:1006A0000101020301120100020000004041233653
:1006B0008000010102030141726475696E6F204C74
:1006C0004C430041726475696E6F204C656F6E61BA
:1006D00072646F00040309040000000200090F00A7
:1006E00000030401000C00000000000000000000F6
:1006F00000000000000000040802011040804010CB
:100700002040804080080204018040201002011037
:100710008010204040200404040404030405020265
:10072000020204030202020206060606060604048A
:100730000202020404000000002300260029002C0D
:10074000002F0000000000250028002B002E0031A3
:100750000000000000240027002A002D00300000C7
:100760009B06C20EF50611241FBECFEFDAE0DEBFF6
:10077000CDBF11E0A0E0B1E0EAE4F8E402C00590EA
:100780000D92AC36B107D9F723E0ACE6B1E001C079
:100790001D92A432B207E1F717E0C4E6D7E004C027
:1007A0002297FE010E945E1EC036D107C9F70E9443
:1007B00034130C94192424CCFC012191CF01222361
:1007C00051F0332727FD3095205331092A30310568
:1007D00098F380E0089581E008950F931F93CF93DD
:1007E000DF93EC01188219821A821B8281E090E06B
:1007F000998788870E949313088119812A813B81F8
:10080000600F711F821F931F6C837D838E839F8374
:10081000DF91CF911F910F9108950F931F93CF9365
:10082000DF93EC0188859985892B19F40E949F1329
:1008300002C00E9493130C811D812E813F81601B99
:10084000710B820B930B6095709580959095662740
:1008500097FD6395772788279927862FDF91CF917A
:100860001F910F910895CF93DF93EC0188859985AF
:10087000892B19F40E949F1302C00E9493136C836A
:100880007D838E839F83DF91CF9108950F931F9374
:10089000CF93DF938C01EC01A19649EC5AE06DE314
:1008A00076E0CE010E94BD1A4FE85AE066E376E09A
:1008B000CE010E94BD1A4DEF59E06EE276E0CE0106
:1008C0000E94BD1A40E659E068E276E0CE010E943F
:1008D000BD1A48E058E060E276E0CE010E94BD1A01
:1008E0004FED57E068E176E0CE010E94BD1A47EA7D
:1008F00057E060E176E0CE010E94BD1A45E657E080
:1009000068E076E0CE010E94BD1A6AE377E0CE018E
:100910000E94F21AF80141855285638574858BEF38
:1009200091E0DF91CF911F910F910C94BC0ECF936A
:10093000DF93EC01F894F999FECF80E090E00E94FB
:100940001A2378948E3481F0CE0183599F4F20E191
:10095000FC0111922A95E9F74FE050E062E476E05D
:10096000DF91CF910C949720F894F999FECFCE01A6
:1009700083599F4F20E1FC0111922A95E9F74FE03E
:1009800050E061E070E00E940A237894DF91CF91FB
:100990000895CF92EF92FF920F931F93CF93DF931F
:1009A000CDB7DEB761970FB6F894DEBF0FBECDBFEF
:1009B0008EE691E0BCDF81E1E7E2F1E0DE01119635
:1009C00001900D928A95E1F735E0C32E48E0E42EC0
:1009D00000E02091750140917601609174018EE6EE
:1009E00091E00E94031940E1BE016F5F7F4F8EE6E8
:1009F00091E00E94911A0BE711E080EA9FE0A0E0ED
:100A0000B0E0F80180839183A283B383EE24E39462
:100A1000F12CF0928401E09283010E949313F8017B
:100A20000081118122813381600F711F821F931F0A
:100A300060937F0170938001809381019093820184
:100A400005E811E080EB96E3A0E0B0E0F8018083D8
:100A50009183A283B383F0928E01E0928D010E9474
:100A60009313F8010081118122813381600F711F7E
:100A7000821F931F6093890170938A0180938B0179
:100A800090938C018EE691E001DF61960FB6F894A9
:100A9000DEBF0FBECDBFDF91CF911F910F91FF90B1
:100AA000EF90CF9008950F931F93CF93DF938C0116
:100AB000DC018C916817C8F4C62FD0E0CC0FDD1F85
:100AC0001196ED91FC911297EC0FFD1F80819181A1
:100AD000009759F00E944713D8011196ED91FC91AF
:100AE0001297EC0FFD1F11821082DF91CF911F91A1
:100AF0000F9108951F93CF93DF93EC0110E088814D
:100B0000181728F4612FCE01CEDF1F5FF8CFDF91D9
:100B1000CF911F910895FC018081681758F491814D
:100B20008281E92FF82FE60FF11DE60FF11D80817C
:100B30009181089580E090E00895FF920F931F93B4
:100B4000CF93DF93EC01F88010E000E01F1541F037
:100B5000612FCE01E0DF892B09F00F5F1F5FF6CF19
:100B6000802FDF91CF911F910F91FF900895CF9229
:100B7000DF92EF92FF920F931F93CF93DF938C013D
:100B80007B016115710591F0FC01C080D12CDC1452
:100B900069F06D2DC801BFDFEC01009751F0B7017E
:100BA00002960E94C320892B21F405C0C0E0D0E04A
:100BB00002C0D394ECCFCE01DF91CF911F910F9162
:100BC000FF90EF90DF90CF900895CF92DF92EF9259
:100BD000FF920F931F93CF93DF938C017B016115DD
:100BE000710599F0FC01C080D12CDC1471F06D2DE1
:100BF000C80191DFEC01009751F0B70102960E9405
:100C0000C320892B21F4898104C08FEF02C0D394C3
:100C1000ECCFDF91CF911F910F91FF90EF90DF907C
:100C2000CF900895FF920F931F93CF93DF93EC0122
:100C3000F62E088110E0101751F0612FCE016BDF06
:100C4000009741F0FC0121812F1104C005C080E014
:100C500090E002C01F5FEFCFDF91CF911F910F9106
:100C6000FF9008958F929F92AF92BF92CF92DF92A2
:100C7000EF920F931F93CF93DF93CDB7DEB7CA5791
:100C8000D1090FB6F894DEBF0FBECDBF6C015B017A
:100C90004796C3DD8823E1F110E0E7E08E2E912C2A
:100CA000F50180811817F0F4612FC50134DF892B1D
:100CB000B9F09A8289820E94C61B6B837C838D83E4
:100CC0009E83612FC50127DF7CE0E72E00E02AE745
:100CD000AE014F5F5F4FFC016181C6010E94581A4F
:100CE0001F5FDECFF601EF57FF4F81E08083F601F3
:100CF000438D548D658D768D8789908DA18DB28DB4
:100D0000480F591F6A1F7B1F438F548F658F768F43
:100D1000C658DF4F0FB6F894DEBF0FBECDBFDF91D0
:100D2000CF911F910F91EF90DF90CF90BF90AF9038
:100D30009F908F9008958FE692E090937101809339
:100D400070018EE692E0909373018093720181E0CE
:100D50008093740183E68093750182E0809376012D
:100D600080E092ECA1E0B0E080937701909378016D
:100D7000A0937901B0937A018BE791E02EDD85E8AD
:100D800091E02BDD6BEF71E08FE891E00E94A91AF2
:100D90008EE18093EB018093EC011092EE011092B2
:100DA000ED018CE390E00E9445139093EE01809357
:100DB000ED0180E090E0E091ED01F091EE01E80FAF
:100DC000F91F1182108202968C339105A1F71092BF
:100DD000EF0180EF91E001DD1092FA018EE691E0E3
:100DE00090936D0180936C0108958CEE91E082DE0A
:100DF0008091ED019091EE01009711F00C94471352
:100E000008950F931F93CF93DF93CDB7DEB7C055EF
:100E1000D1090FB6F894DEBF0FBECDBFFE01E95A6F
:100E2000FF4F419151919F0160E570E0CE01019625
:100E30000E941E218E010F5F1F4FF80180818823C1
:100E400069F08A3021F46DE08BEF91E0BDD6F801B6
:100E500061918F018BEF91E0B7D6EFCFC05BDF4F91
:100E60000FB6F894DEBF0FBECDBFDF91CF911F91BB
:100E70000F9108950E94C61B20916C0130916D0165
:100E800023593F4F11F428E331E01F921F921F9224
:100E900042E04F931F921F929F938F937F936F9384
:100EA0001F9281E08F931F924F933F932F9384EB78
:100EB00095E09F938F93A5DF8DB79EB742960FB6AF
:100EC000F8949EBF0FBE8DBF08950F931F93CF93CD
:100ED000DF9300D0CDB7DEB780912003909121033E
:100EE000009711F484E293E08E010F5F1F4F081BFF
:100EF000190B0E94C61B20916C0130916D01235982
:100F00003F4F11F428E331E01F930F931F9242E00B
:100F10004F931F9259E05F939F938F937F936F93AB
:100F20001F921F921F924F933F932F9382E695E05B
:100F30009F938F9366DF0FB6F894DEBF0FBECDBFD1
:100F40000F900F90DF91CF911F910F910895CF9344
:100F5000DF93C0916C01D0916D01C359DF4F11F443
:100F6000C8E3D1E00E94C61B20916C0130916D0155
:100F700023593F4F11F428E331E0DF93CF931F92C1
:100F800042E04F931F9258E05F939F938F937F931C
:100F90006F931F921F921F924F933F932F938EE058
:100FA00095E09F938F932DDF8DB79EB742960FB636
:100FB000F8949EBF0FBE8DBFDF91CF910895CF9360
:100FC000DF9380916C0190916D0181960E948D1B41
:100FD000EC01009719F4DF91CF914CCFF894F99977
:100FE000FECF6EE480E090E00E942B23F999FECFC3
:100FF0004FE050E061E070E0CE010E94222378943F
:1010000080916C0190916D0192DCDF91CF919FCF27
:101010004F925F926F927F928F929F92AF92BF9208
:10102000CF92DF92EF92FF920F931F93CF93DF93B4
:10103000CDB7DEB7CB57D1090FB6F894DEBF0FBEE0
:10104000CDBF80916C0190916D0181960E948D1BA6
:101050008C0180916C0190916D0181960E948D1B95
:101060005C0180916C0190916D0181960E948D1BB5
:101070006C010115110569F0A114B10451F000973C
:1010800041F0C50199DB882321F0C60195DB811170
:1010900002C0F0DEFDC0E0906C01F0906D019EE7B3
:1010A000E90EF11CB801C70162DD892B01F50E9430
:1010B000C61B20916C0130916D0123593F4F11F4F3
:1010C00028E331E01F921F921F9242E04F931F923C
:1010D0001F929F938F937F936F931F9287E08F93BD
:1010E0001F924F933F932F938AEB94E031C0F70107
:1010F0006080712C761469F0672DC7010CDD0097B4
:1011000081F1FC0182889388F1E08F16910449F502
:101110002AC00E94C61B20916C0130916D01235999
:101120003F4F11F428E331E01F921F921F9242E0DB
:101130004F931F921F929F938F937F936F931F9252
:1011400088E08F931F924F933F932F9386E694E00E
:101150009F938F9356DE0FB6F894DEBF0FBECDBFC0
:1011600097C07394C7CFB801C7012FDD782EC50192
:101170000E944C207C01C6010E9469205B016C0129
:101180009A8289827B82EC826987BA868B87DC8629
:101190000E94C61B662E582E492E80916C0190919C
:1011A0006D01672D82589F4FEC967FAFEC973ADD2B
:1011B000FC01DF92CF92BF92AF92FF24FF92EF9299
:1011C0001F92772473947F921F928AE08F934F929D
:1011D0005F92EC967FADEC977F936F921F921F9278
:1011E00083898F9382898F931F930F9328EF33E026
:1011F0003F932F9306DEE0906C01F0906D01F701B4
:10120000E457FF4F7082E2E8EE0EF11CF701A08276
:10121000B182C282D382918680860E949313F701A5
:101220000081118122813381600F711F821F931F02
:10123000648375838683978380916C0190916D019F
:1012400082589F4F7ADCF82E0FB6F894DEBF0FBE9F
:10125000CDBF10E01F15E1F0C0906C01D0906D0182
:10126000612FC60182589F4F56DCFC0122893389C9
:101270002130310559F4ACE0EA2E00E02AE7AE0156
:101280004F5F5F4F6181C6010E94581A1F5FE2CF16
:10129000C558DF4F0FB6F894DEBF0FBECDBFDF914C
:1012A000CF911F910F91FF90EF90DF90CF90BF9063
:1012B000AF909F908F907F906F905F904F90089528
:1012C000CF92DF92EF92FF920F931F93CF93DF9312
:1012D000CDB7DEB7CA57D1090FB6F894DEBF0FBE3F
:1012E000CDBF80916C0190916D0181960E948D1B04
:1012F0007C01009711F4BEDD70C080916C0190916B
:101300006D01B70182589F4F32DC892B41F50E9455
:10131000C61B20916C0130916D0123593F4F11F490
:1013200028E331E01F921F921F9242E04F931F92D9
:101330001F929F938F937F936F931F9287E08F935A
:101340001F924F933F932F9384EA93E09F938F9341
:1013500058DD0FB6F894DEBF0FBECDBF3EC086E0AD
:1013600090E09A8389838E010D5F1F4F88E7F80113
:1013700011928A95E9F780916C0190916D018196A7
:101380000E948D1B009751F0F80101900020E9F7B1
:101390003197E01BF10BE837F105A8F0C0906C0124
:1013A000D0906D01B701C60182589F4F0EDCBCE0A2
:1013B000EB2E00E02AE7AE014F5F5F4F682FC601BA
:1013C0000E94581A0AC0BC01C8010E94B82067E4F4
:1013D00071E0C8010E94B820CECFC658DF4F0FB6CB
:1013E000F894DEBF0FBECDBFDF91CF911F910F915B
:1013F000FF90EF90DF90CF900895EF92FF920F93C0
:101400001F93CF93DF930E94C61B20916C013091F4
:101410006D0123593F4F11F428E331E01F9242E060
:101420004F931F9251E05F939F938F937F936F939E
:101430001F921F921F924F933F932F9386E593E045
:101440009F938F93DEDCC0916C01D0916D01C258E7
:10145000DF4FCE0172DBF82EE8808DB79EB7409645
:101460000FB6F8949EBF0FBE8DBF10E000E01E15B2
:1014700041F0612FCE014FDB892B09F0012F1F5F57
:10148000F6CF10E0CBE1D3E0E0916C01F0916D017B
:10149000E258FF4F80811817B8F5612FCF013BDB71
:1014A000FC01009779F180811F928F9384A58F931F
:1014B00083A58F9382A58F9381A58F9380A58F930A
:1014C00087A18F9386A18F9385A18F9383898F9313
:1014D00082898F933296FF93EF93DF93CF9391DCC2
:1014E0008DB79EB740960FB6F8949EBF0FBE8DBFC6
:1014F00091E09F1538F4101728F469E173E08BEF41
:1015000091E073D41F5FC0CF64E173E08BEF91E093
:10151000DF91CF911F910F91FF90EF9066C40F93D1
:101520001F93CF93DF930E949313EB01182F092F82
:101530000E94C61B20916C0130916D0123593F4FD1
:1015400011F428E331E00F931F93DF93CF931F92A1
:1015500042E04F931F9257E05F939F938F937F9347
:101560006F931F921F921F924F933F932F9381EC83
:1015700092E09F938F9345DC8DB79EB744960FB64C
:10158000F8949EBF0FBE8DBFDF91CF911F910F9139
:101590000895EF92FF920F931F93CF93DF93809163
:1015A0006C0190916D0181960E948D1BEC0100975A
:1015B00079F002D9811107C0DF91CF911F910F916E
:1015C000FF90EF9057CCCE010E9469200E94951B9E
:1015D000C0916C01D0916D010E94C61B162F072F80
:1015E000F82EE92E0E94C61B9E0123593F4F11F48D
:1015F00028E331E0EF92FF920F931F931F9242E096
:101600004F931F9256E05F939F938F937F936F93B7
:101610001F921F921F924F933F932F938EE692E05B
:101620009F938F93EEDB8DB79EB744960FB6F894D9
:101630009EBF0FBE8DBFDF91CF911F910F91FF9085
:10164000EF9008953F924F925F926F927F928F92A8
:101650009F92AF92BF92CF92DF92EF92FF920F9341
:101660001F93CF93DF9300D01F92CDB7DEB79B833C
:101670008A838B010D96D1D8882309F491C0912CCF
:1016800089E4E82E81E0F82E882483949CE0792E6A
:1016900026ECC22E21E0D22E32E0632E4AE1A42EA7
:1016A00042E0B42EF8018081981608F061C0692DDF
:1016B000C80131DA009709F459C0DC018C9181111D
:1016C00026C00E94C61B562E482E392E692DC801F1
:1016D000798321DAFC01FF92EF921F928F921F9281
:1016E0006F923F924F9279817F935F921F921F92E8
:1016F00083898F9382898F933296FF93EF93BF9262
:10170000AF927FDB692DC801CED977DE23C082304E
:1017100030F50E94C61B562E482E392E692DC80161
:101720007983F9D9FC01FF92EF921F928F921F9259
:101730007F923F924F9279817F935F921F921F9287
:1017400083898F9382898F933296FF93EF93DF92F1
:10175000CF9257DB0FB6F894DEBF0FBECDBF692D19
:10176000C801D9D9DC012C9121502C9393949ACFA4
:10177000AA81BB8151964D915D916D917C91549759
:101780001D968D919D910D90BC91A02D480F591FD4
:101790006A1F7B1FEA81FB81418B528B638B748BA9
:1017A0000F900F900F90DF91CF911F910F91FF90AD
:1017B000EF90DF90CF90BF90AF909F908F907F90F1
:1017C0006F905F904F903F9008956F927F928F92AD
:1017D0009F92AF92BF92CF92DF92EF92FF920F93C0
:1017E0001F93CF93DF93CDB7DEB7CA57D1090FB69A
:1017F000F894DEBF0FBECDBF6C010E948C19882308
:1018000009F47FC18091F1029091F202892B09F0D5
:1018100078C1C6010E948A1A482F50E0D60112965C
:101820006D917C911397CE0101960E94AF20898122
:101830009A818430910509F416C10CF0F3C0892B0C
:1018400009F05FC156012EE7A20EB11C6C81C501E3
:10185000E9D98C01009709F0A3C0C5016ED9F60142
:10186000E358FF4F9081891708F06EC00E94C61B95
:1018700029E431E03F932F931F9221E02F931F9291
:1018800023E02F939F938F937F936F931F921F92C9
:101890008E898F938D898F934E0185E0880E911CE0
:1018A0009F928F928EE191E09F938F93AADA8DE2BF
:1018B00090E0E9D66C010CA51DA52EA53FA588A535
:1018C00099A5AAA5BBA54FA1FB806D897E895C81E6
:1018D000F601F0825183738B628B44A385A396A398
:1018E000A7A3B0A7D60101A712A723A734A71296D2
:1018F00080E1F40101900D928A95E1F750E0BE017C
:10190000695E7F4FC60144960E94AF20F501408179
:101910000FB6F894DEBF0FBECDBF80E090E0841715
:1019200088F49C01220F331FD5011196ED91FC9193
:101930001297E20FF31F019620813181232B79F753
:10194000D182C0825ADDDDC00E94C61BBDE6CB0E2F
:10195000D11CC114D10419F428E331E001C096016F
:1019600049E451E05F934F931F9241E04F931F92E0
:101970001F929F938F937F936F931F9289E08F9312
:101980001F9282E08F933F932F938AEC90E09F9376
:101990008F9337DA0FB6F894DEBF0FBECDBFB1C05C
:1019A0008B81D8018C935801B2E0AB0EB11C40E1A1
:1019B00050E0B501CE0105960E94CC20892B49F05C
:1019C00080E1FE013596D50101900D928A95E1F7EF
:1019D00014DD8FA1F80184A34FA150E0BE01695E20
:1019E0007F4FC80144960E94AF2088A599A5AAA55B
:1019F000BBA5F80185A396A3A7A3B0A74CA55DA599
:101A00006EA57FA541A752A763A774A7B1E8CB0E27
:101A1000D11CF6018081882309F473C0EEDCD60165
:101A20001C926FC085309105A1F4F601E457FF4F79
:101A30008081882309F465C01082C6018E579F4FAC
:101A40000E943304BE016D5F7F4F8BEF91E0F3D1B5
:101A500058C0089709F055C0F601E457FF4F808140
:101A6000882381F3E9CFA12CB12C4601BEE78B0E70
:101A7000911C53E0652E712CC4015FD890E0A8162C
:101A8000B9060CF03EC0FA2C6A2DC40144D8FC0102
:101A90001181C6010E94861A181779F110E06F2D86
:101AA000C40139D8FC0124A1121738F5FC0124E047
:101AB000129FE00DF11D11244489558966897789AB
:101AC0008B819C81AD81BE81481759076A077B07CE
:101AD00091F47A8269826F2DC4011DD86CE0E62EE4
:101AE00000E02AE7AE014F5F5F4FDC0111966C9179
:101AF000C6010E94581A1F5FD2CFFFEFAF1ABF0A6C
:101B0000BBCFC658DF4F0FB6F894DEBF0FBECDBFB8
:101B1000DF91CF911F910F91FF90EF90DF90CF90C9
:101B2000BF90AF909F908F907F906F9008956CEED4
:101B300071E08EE691E086DD8091FA018823A9F1BB
:101B400080EF91E00E940D04882379F11092FA0150
:101B500080EF91E00E9433040E94C61B2BED31E020
:101B6000232B79F12BED31E049E451E05F934F9362
:101B70001F921F921F921F929F938F937F936F9339
:101B80001F9284E08F931F9282E08F933F932F9355
:101B900082E791E09F938F9334D98DB79EB7429699
:101BA0000FB6F8949EBF0FBE8DBF6CEE71E08EE64F
:101BB00091E058D88EE691E008DE8FE891E00C9431
:101BC000F61A28E331E0D0CFCF93DF931F92CDB741
:101BD000DEB76983DC01ED91FC910280F381E02D99
:101BE00041E050E0BE016F5F7F4F09950F90DF919C
:101BF000CF910895CF93DF93EC018C859D8597FF5E
:101C000004C082E02FD29D878C878C859D85DF91D3
:101C1000CF91089583E089C4FC018485958597FD63
:101C200005C082E0C9D190E00196089582E0C4D158
:101C300090E00895FC018485958597FD05C02FEF00
:101C40003FEF35872487089582E00CC2CF93DF935E
:101C5000EC0180911101882329F083E032D218161B
:101C6000190634F081E090E09B838A8380E090E065
:101C7000DF91CF910895FC0120812E5F208342E403
:101C800050E061E576E080E8B4C2FC01218180810A
:101C9000813A51F4213209F05AC047E050E06AE03D
:101CA00071E080E0A6D266C0813209F050C02332D4
:101CB00089F4838190E0982F88273281832BA0E0DC
:101CC000B0E08093060190930701A0930801B093C0
:101CD00009010EC0203231F467E070E08AE091E043
:101CE000B8D20AC0223221F482818093110104C04B
:101CF0002D7F203209F03EC080910A0190910B01A6
:101D0000A0910C01B0910D01803B9440A105B1055B
:101D100001F58091110180FD1CC080910008909117
:101D200001089093FF0A8093FE0A87E797E7909354
:101D30000108809300082BE088E190E00FB6F8944A
:101D4000A895809360000FBE2093600013C080E0D0
:101D5000089588E10FB6F8948093600010926000B7
:101D60000FBEA8958091FE0A9091FF0A90930108FA
:101D70008093000881E008952FEF3FEFFC01358745
:101D8000248708951092FE011092FD0188EE93E0E1
:101D9000A0E0B0E08093FF0190930002A0930102C5
:101DA000B09302028FE491E09093FC018093FB01D9
:101DB0008FEF9FEF909308028093070208956115BB
:101DC000710581F0DB010D900020E9F7AD01415074
:101DD0005109461B570BDC01ED91FC910280F38108
:101DE000E02D099480E090E00895EF92FF920F9328
:101DF0001F93CF93DF938C017B01C0E0D0E0F7010C
:101E0000EC0FFD1F6491662359F0F801A081B181A8
:101E1000ED91FC91C8010995892B11F02196EFCF26
:101E2000CE01DF91CF911F910F91FF90EF90089518
:101E30006BE571E0C4CF0F931F93CF93DF93EC0159
:101E4000BEDF8C01CE01F4DF800F911FDF91CF91B7
:101E50001F910F910895615030F02091F100FC0125
:101E600020830196F8CF289884E680935402089541
:101E700040914F025091500220914D0230914E02FC
:101E800042175307B4F49091E8009570E1F39091F4
:101E9000E80092FD19C08093F10080914F0290916B
:101EA000500201968F739927892B19F48EEF809336
:101EB000E80080914F029091500201969093500259
:101EC00080934F0281E0089580E00895CF92DF92E1
:101ED000EF92FF920F931F93CF93DF931F92CDB793
:101EE000DEB7082F162FF42E862F880F8E5F99836A
:101EF000BFDF83E0BDDFE02EC02E9981D92E8C2D6F
:101F00008E19811788F4F601F7FE02C0849101C092
:101F10008081AEDF082F80E0ABDF8023FFEFCF1A98
:101F2000DF0A8111ECCF01C081E00F90DF91CF91EA
:101F30001F910F91FF90EF90DF90CF9008958091C7
:101F4000D70081608093D70080EA8093D80089B55C
:101F5000806189BD89B5826089BD09B400FEFDCF6D
:101F600061E070E080E090E00DD48091D8008F7C3B
:101F700080618093D8008091E000807F8093E000B2
:101F80000895CF93DF931F92CDB7DEB71982CE01AC
:101F9000019671DEF9D4BE016F5F7F4F6ED48981E7
:101FA0000F90DF91CF9108952FB7FC012083F89413
:101FB00067706093E9000895CF93DF931F92CDB7C8
:101FC000DEB7682FCE010196EFDF8091F200998194
:101FD0009FBF0F90DF91CF910895FF920F931F93B2
:101FE000CF93DF9300D0CDB7DEB7F62E8A01909164
:101FF0005302992311F057FF03C08FEF9FEF2AC0C0
:10200000682FCE0101967A83CFDF8091F20090E0B5
:10201000A8017A81801791070CF4AC01EF2DF72FFE
:10202000F40E84E6FE1639F02898809354029091BD
:10203000F1009193F7CF4115510521F08091F20005
:10204000882321F089818FBFCA0104C08BE6809369
:10205000E800F8CF0F900F90DF91CF911F910F9173
:10206000FF900895CF93DF931F92CDB7DEB741E085
:1020700050E0BE016F5F7F4FB0DF019719F4898197
:1020800090E002C08FEF9FEF0F90DF91CF91089506
:10209000CF93DF931F92CDB7DEB7682FCE010196A5
:1020A00083DF9091E800892F807295FF04C09091A2
:1020B000F20080E4891B99819FBF0F90DF91CF913F
:1020C00008956F927F928F929F92AF92BF92CF921C
:1020D000DF92EF92FF920F931F93CF93DF931F92A4
:1020E000CDB7DEB7782E7B01C42EB52E809153027A
:1020F000882369F0042F152F8AEFD82E872D807240
:10210000982E9AE3A92E872D8074882E0FC08FEF0A
:102110009FEF54C0872DBCDF682E81110BC0DA946D
:10212000B1F361E070E080E090E02CD3011511057F
:1021300089F73AC0282F30E0021713070CF4602EFD
:10214000672DCE01019630DF8091E80085FF29C020
:10215000262D30E0021B130B992039F06A948FEF83
:102160006816B1F01092F100F9CFF701862D77FED5
:1021700007C0815058F094919093F1003196F9CFB7
:10218000815020F091919093F100FACFE20EF31E6E
:102190008091E80085FF0FC00115110511F4811031
:1021A0000AC089818FBFC2CF5D9884E680935502B3
:1021B0008C2D9B2D03C0A092E800F3CF0F90DF91F0
:1021C000CF911F910F91FF90EF90DF90CF90BF9034
:1021D000AF909F908F907F906F9008951092E9003C
:1021E0001092500210924F0290934E0280934D0233
:1021F0000895CF92DF92FF920F931F93CF93DF93B7
:1022000000D0CDB7DEB7F82E8A016B01011511059C
:10221000A9F0F601F7FE02C0849101C080814983D4
:102220005A8326DE01501109FFEFCF1ADF0A4981D8
:102230005A818111EBCF8FEF9FEF01C0CA010F9040
:102240000F90DF91CF911F910F91FF90DF90CF9072
:1022500008951F93CF93DF931F92CDB7DEB7162F4C
:102260002091E80022FFFCCF612F7983F4DD8BEF12
:102270008093E800812F7981972F0F90DF91CF9184
:102280001F9108951F920F920FB60F921124DF92A3
:10229000EF92FF920F931F932F933F934F935F9370
:1022A0006F937F938F939F93AF93BF93EF93FF931E
:1022B000CF93DF93CDB7DEB76C97DEBFCDBF109263
:1022C000E9008091E80083FF12C168E0CE014596E5
:1022D000C2DD82EF8093E8003D8937FF05C0809121
:1022E000E80080FFFCCF03C08EEF8093E800832FCF
:1022F000807609F0E4C02E894F89D88C21110CC05A
:10230000303829F4809152028093F10002C010927B
:10231000F1001092F100E4C0842F90E09D2921305B
:1023200049F43111DDC0019709F0DAC08091520201
:102330008D7F0AC0233059F43111D2C0019709F0C2
:10234000CFC080915202826080935202C9C0253072
:1023500041F48091E80080FFFCCF40684093E300A7
:10236000BFC0263009F081C0EB8CFC8C22E0D21279
:1023700027C080E090E032DF04DE99E08E010F5F3D
:102380001F4FF801292F11922A95E9F79983DA82D4
:1023900091E09E8390EA98879AEF998720914F0267
:1023A00030915002275F3F4F3C832B838D83C701C1
:1023B00015DF49E050E0B80180E01BDFE2DD90C0AE
:1023C000C7010CDFE1D2BE016B5E7F4F7FD2009769
:1023D00019F00CF085C088C081E0D8120EC08B8D3A
:1023E0009C8D089719F481E080934C0280914C02F7
:1023F00081112CC065EA76E02EC0E3E0DE1274C0E5
:102400008F89882331F1823029F440E860E183EC40
:1024100096E01AC0813029F440E86BE087EB96E043
:1024200013C0833009F060C0AFD28E010F5F1F4F21
:10243000B8016BD2F80101900020E9F73197E01B59
:10244000F10B40E06E2FC80141DD48C063E976E042
:1024500002C064ED76E06115710509F445C0FB0129
:10246000449150E080E8C5DE3BC0273009F43CC011
:10247000283021F481E08093F10032C0293081F5C9
:10248000337091F5E3E1F1E081E021E036E3908102
:10249000992361F08093E9002093EB009191909350
:1024A000EC003093ED008F5F873089F78EE78093E3
:1024B000EA001092EA008F898093530211C08B8D3D
:1024C0009C8D8CDE898D811104C0CE014596DDDBAB
:1024D00005C05AD2BE016B5E7F4F36D2882321F0F1
:1024E0008EEF8093E80003C081E28093EB006C964E
:1024F0000FB6F894DEBF0FBECDBFDF91CF91FF9135
:10250000EF91BF91AF919F918F917F916F915F916B
:102510004F913F912F911F910F91FF90EF90DF907E
:102520000F900FBE0F901F9018958093E900809137
:10253000F200882319F08AE38093E80008951F923F
:102540000F920FB60F9211242F933F934F935F93E7
:102550006F937F938F939F93AF93BF93CF93EF939B
:10256000FF93C091E1008091E100837F8093E100BF
:102570008093E100C3FF0FC01092E90081E08093D7
:10258000EB001092EC0082E38093ED001092530276
:1025900088E08093F000C2FF18C083E0C6DF80911E
:1025A0005502882339F0809155028150809355025D
:1025B000882389F180915402882339F08091540254
:1025C000815080935402882341F1C4FF10C0809150
:1025D000E2008E7E81608093E2008091E1008F7E38
:1025E0008093E100809151028E7E806111C0C0FF16
:1025F00016C08091E2008E7E80618093E20080911F
:10260000E1008E7E8093E100809151028E7E816098
:102610008093510204C05D9ACDCF289AD6CFFF9106
:10262000EF91CF91BF91AF919F918F917F916F91DA
:102630005F914F913F912F910F900FBE0F901F9080
:10264000189510925302109252021092510277DCA8
:10265000E1EEF0E080818E7E80838DE08093E20069
:10266000559A209A08950895B2D0FDDF8BE492E048
:10267000E8DF0E94C904C0E0D0E059DA2097E9F30E
:102680000E940000FACF0C94621E0C94621E0C94FF
:10269000FA1E1F920F920FB60F9211242F933F93A1
:1026A0008F939F93AF93BF9380915702909158025D
:1026B000A0915902B0915A023091560223E0230FA3
:1026C0002D3720F40196A11DB11D05C026E8230F6A
:1026D0000296A11DB11D209356028093570290933C
:1026E0005802A0935902B0935A0280915B029091D4
:1026F0005C02A0915D02B0915E020196A11DB11D28
:1027000080935B0290935C02A0935D02B0935E02A3
:10271000BF91AF919F918F913F912F910F900FBEDD
:102720000F901F9018952FB7F894609157027091F1
:1027300058028091590290915A022FBF08953FB7D5
:10274000F89480915B0290915C02A0915D02B0913F
:102750005E0226B5A89B05C02F3F19F00196A11D6A
:10276000B11D3FBF6627782F892F9A2F620F711DE9
:10277000811D911D42E0660F771F881F991F4A95A2
:10278000D1F70895CF92DF92EF92FF92CF93DF932C
:102790006B017C01D4DFEB01C114D104E104F1042D
:1027A00079F006D1CCDF6C1B7D0B683E7340A0F343
:1027B00081E0C81AD108E108F108C851DC4FECCF1C
:1027C000DF91CF91FF90EF90DF90CF9008957894B4
:1027D00084B5826084BD84B5816084BD85B5826026
:1027E00085BD85B5816085BDEEE6F0E080818160C4
:1027F0008083E1E8F0E010828081826080838081C4
:1028000081608083E0E8F0E0808181608083E1E99D
:10281000F0E0808182608083808181608083E0E954
:10282000F0E0808181608083E1ECF0E08081846071
:102830008083808182608083808181608083E3ECFB
:10284000F0E0808181608083E0ECF0E08081826054
:102850008083E2ECF0E0808181608083EAE7F0E051
:1028600080818460808380818260808380818160B8
:1028700080838081806880830895EF92FF920F9318
:102880001F93CF93DF937B01FC01C281D38100E0D2
:1028900010E0209781F0E881F9810280F381E02D3A
:1028A000B701CE01099597FD08C0080F191F0884CC
:1028B000D985C02DEECFC80102C08FEF9FEFDF9109
:1028C000CF911F910F91FF90EF9008950F931F9359
:1028D000CF93DF938B01FC01C281D381209771F0EC
:1028E000E881F9810480F581E02DB801CE010995D8
:1028F000009731F40884D985C02DF0CF80E090E0B6
:10290000DF91CF911F910F9108950F931F93CF9354
:10291000DF938B01FC01C281D381209771F0E881A4
:10292000F9810680F781E02DB801CE010995080FE5
:10293000111D0884D985C02DF0CFF8011082DF91D8
:10294000CF911F910F9108950F931F93CF93DF9312
:102950008B01FC01C281D381209771F0E881F9815C
:102960000190F081E02DB801CE010995811106C0DA
:102970000884D985C02DF0CF80E001C081E0DF91CF
:10298000CF911F910F9108958091630281110DC025
:1029900082E080935F0284E0809360021092620282
:1029A0001092610281E0809363028FE592E00895C6
:1029B00008958627682F62956827062E6695669586
:1029C0006025062E669560256770082E892F66950E
:1029D00007946795902D86270694679590258627FE
:1029E00008952F923F924F925F926F927F928F92B3
:1029F0009F92AF92BF92CF92DF92EF92FF920F938E
:102A00001F93CF93DF9300D000D000D0CDB7DEB7B7
:102A1000882309F448C1E0916E02809105039091EA
:102A20000603A0910703B09108030196A11DB11DF3
:102A30008093050390930603A0930703B0930803C4
:102A4000F0E0E159FD4F80839183A283B3838091AD
:102A50006E028095837090916E02980F90936E0233
:102A6000E0916E02F0E0E159FD4F90819F739083F9
:102A7000E0916E02F0E0E159FD4F208100E4809F7B
:102A8000C0011124282B208380916E028F5F8093D8
:102A90006E0220916E022695269522300CF457C2C4
:102AA000332727FD30951901220C331C220C331CCF
:102AB000B10165597D4F1B01FB0180819181A2818C
:102AC000B38140E050E0BA018901015011091C8333
:102AD0000B8347545648684C71468A019B01E2E0DB
:102AE0003695279517950795EA95D1F7E02FE3706E
:102AF000EE831D820D81202F30E04C015D01F4E05A
:102B0000880C991CAA1CBB1CFA95D1F76C017D019D
:102B100015E0F694E794D794C7941A95D1F7EB8112
:102B2000FC812E173F070CF062C02F5F3F4F220F32
:102B3000331F220F331FF901E159FD4F40805180AF
:102B400062807380890105591D4F1A83098393019F
:102B50008201E3E03695279517950795EA95D1F719
:102B6000082519252A253B2553014201F2E0880C4E
:102B7000991CAA1CBB1CFA95D1F78C249D24AE2469
:102B8000BF24080D191D2A1D3B1DED81E370FE2E8B
:102B9000FE81FF26E4E0FE9E70011124F701EB5058
:102BA000FD4FC080D180E280F3808C259D25AE252D
:102BB000BF254426552666267726840D951DA61D1D
:102BC000B71D80279127A227B327E981FA810081C9
:102BD000118122813381800F911FA21FB31F808337
:102BE0009183A283B383FD81FF5FFD8383CF009137
:102BF0006F02109170022091710230917202FD817A
:102C0000F370EE81FE27E4E0FE9F30011124F30112
:102C1000EB50FD4F40805180628073808425952564
:102C2000A625B7252A013B01402651266226732698
:102C3000840D951DA61DB71D28013901F3E076947A
:102C4000679457944794FA95D1F7482459246A24F5
:102C50007B24E2E0000F111F221F331FEA95D1F7FA
:102C60000C251D252E253F25400E511E621E731E6C
:102C700084259525A625B725F101008111812281A2
:102C80003381800F911FA21FB31F80839183A28382
:102C9000B3834635FAED5F07FCE46F07F5EB7F077A
:102CA00009F017CF54C18091F1029091F202892B63
:102CB00009F04DC140916E024695469542300CF4A4
:102CC00028C180916F0290917002A0917102B09121
:102CD000720204E0409F10011124910125593D4FDB
:102CE000190106E51AED2CE435EB41504B83B9018F
:102CF000A801E2E07695679557954795EA95D1F753
:102D0000E42FE370ED83FB81FE836E81462F50E05C
:102D10004150504C440F551F440F551FFA01E159C3
:102D2000FD4FC080D180E280F380FA01ED58FD4F65
:102D3000FA83E983B701A601E4E0440F551F661F3B
:102D4000771FEA95D1F74C015D01F3E0B694A794A3
:102D500097948794FA95D1F7482559256A257B25BC
:102D600046015701E5E0B694A79497948794EA95B5
:102D7000D1F72C013D01F2E0440C551C661C771C78
:102D8000FA95D1F784249524A624B724480D591D1B
:102D90006A1D7B1DFE81F370ED81FE27E4E0FE9F3E
:102DA00050011124F501EB50FD4F80809180A280ED
:102DB000B3808C249D24AE24BF2480279127A22792
:102DC000B327880E991EAA1EBB1E482559256A25C1
:102DD0007B25E981FA8180819181A281B381841B65
:102DE000950BA60BB70B80839183A283B383FE81DF
:102DF000F150FE83F11189CFF101C080D180E280D2
:102E0000F380AC01BD01E3E0769567955795479552
:102E1000EA95D1F746015701F4E0880C991CAA1CE9
:102E2000BB1CFA95D1F7482559256A257B254C010D
:102E30005D01E2E0880C991CAA1CBB1CEA95D1F745
:102E400026013701F5E07694679457944794FA95F4
:102E5000D1F784249524A624B724480D591D6A1D52
:102E60007B1D80279127A227B327ED81F4E0EF9FF8
:102E700050011124F501EB50FD4F80809180A2801C
:102E8000B3808C249D24AE24BF24880D991DAA1DD7
:102E9000BB1D482759276A277B2780916F02909195
:102EA0007002A0917102B0917202841B950BA60B67
:102EB000B70B80936F0290937002A0937102B0934E
:102EC0007202095B194727433E4909F010CFE09190
:102ED0006E02E150E0936E02F0E0E159FD4F408157
:102EE0004295469546954370E0916E02F0E0E159B7
:102EF000FD4F80818F7390E0A0E0B0E080930903E4
:102F000090930A03A0930B03B0930C0320E030E0EE
:102F100003C04423E1F0DBCF421789F0E0916E0259
:102F2000E150E0936E02F0E0E159FD4F5081BA2F7D
:102F3000A92F982F88272F5F3F4F852BEDCF8093A8
:102F4000090390930A03A0930B03B0930C032696F6
:102F50000FB6F894DEBF0FBECDBFDF91CF911F91AA
:102F60000F91FF90EF90DF90CF90BF90AF909F9028
:102F70008F907F906F905F904F903F902F9008952B
:102F800025B181E090E0A0E0B0E0AC01BD0100908F
:102F90000F0304C0440F551F661F771F0A94D2F712
:102FA000242B25B924B100900F0304C0880F991F6A
:102FB000AA1FBB1F0A94D2F7282B24B961E08AE02C
:102FC0001ED661E08AE0E2D561E080E1DFD560E015
:102FD0008EE0DCD561E08FE0D9D580E58CBD8DB584
:102FE00081608DBD60E080E0D1D561E080E007C602
:102FF0008EBD0DB407FEFDCF8EB50895CF92DF9242
:10300000EF92FF921F93CF93DF93182F2CB521607F
:103010002CBD85B1C12CD12C7601C394B701A6017A
:1030200000900F0304C0440F551F661F771F0A94BA
:10303000D2F74095482345B9892FDADFC82FD0E071
:10304000DC2FCC27812FD4DF95B100900F0304C073
:10305000CC0CDD1CEE1CFF1C0A94D2F79C2995B900
:103060009CB59E7F9CBD9E01282BC901DF91CF910D
:103070001F91FF90EF90DF90CF900895CF92DF9255
:10308000EF92FF92CF93C82F85B1C12CD12C76013E
:10309000C394B701A60100900F0304C0440F551F4D
:1030A000661F771F0A94D2F74095482345B9892FA8
:1030B0009FDF8C2F9DDF85B100900F0304C0CC0CE7
:1030C000DD1CEE1CFF1C0A94D2F78C2985B9CF9128
:1030D000FF90EF90DF90CF900895CF9380E090E045
:1030E000CDDF8091F302853081F580E090EB86DFC3
:1030F000682F8091F402811104C090910D03911109
:1031000071C0E091F40281E08E0F8093F402F0E050
:10311000E559FD4F60838091F1029091F20249DC04
:103120009093F2028093F10280916E022091F4025A
:1031300090E0059630E0821793070CF45EC0809112
:10314000F402863808F059C05CC08091F30287FF12
:1031500019C0E0916E028091F30291E0980F909374
:10316000F302EC5FE80FF0E0E559FD4FC08180917C
:10317000F1029091F2026C2F1CDC9093F20280938A
:10318000F1022CC08091F30291E0980F9093F3022A
:10319000833001F154F48823B9F08130F1F4809147
:1031A000F1029091F202C92F19C0893059F08A308A
:1031B000A1F4C0910D0390916E028DEF891B809355
:1031C000F3020CC0CDE20AC08091F1029091F202AC
:1031D000C82F04C08DE092E851DFCAEA8C2F90E03E
:1031E00098540DC0E091F40281E08E0F8093F402B8
:1031F000F0E0E559FD4F908384CF8DE092E8CF91C8
:103200003DCFCF910895EF920F93CF93C42F36E027
:1032100030930F0360930E0320930D03B1DE80E023
:1032200090E02CDF85E092E829DF80E098EB26DF54
:1032300080E01AD5892B19F480E090E0F8CF20E1E6
:10324000C29FC0011124876C906818DF80E496EA61
:1032500015DF8E2D90E09A5311DF82EA94E90EDF9C
:103260008CEA92EC0BDF80910D03882341F083E818
:103270009AEC04DF80910D0390E09E6C05C08BE812
:103280009AECFCDE8DE29EECF9DE83E894ECF6DE4F
:10329000083028F4802F90E08065986902C087E5A7
:1032A00098E9ECDE87E79CECE9DE80E090EEE6DE74
:1032B00080E098ECE3DE83E490ECE0DE84E0809351
:1032C000F30280910E03882349F040E050E06DE660
:1032D00078E180E0CF910F91EF90E9C280E0CF914B
:1032E0000F91EF9034C310926E021092F4028FEFA0
:1032F0009FEF9093F2028093F10260910D03662399
:1033000029F057DB9093F2028093F10285E08093DD
:10331000F3028DED92E8B2CE2091F302253039F51B
:1033200020916E024091F40230E02B5F3F4F50E05D
:103330002417350724F02091F4022638C0F024E049
:103340002093F30220916E02213830F021E030E02A
:103350003093F2022093F10220916C022F7771F0EA
:1033600020916C022F7730910E03231739F02091B2
:10337000F302243009F4B7DF80E008952091F102D0
:103380003091F202232B41F4DC01ED91FC91309756
:1033900019F080E009950BC08FEF9FEFDC0180935F
:1033A000090390930A03A0930B03B0930C0381E0ED
:1033B00008958091F302853079F48091F4028111AF
:1033C0000BC016DE80FD08C08DE092E857DE84E079
:1033D0008093F30281E0089580E00895222311F0A4
:1033E00020E801C020E0262B20936C0230910E03D0
:1033F000442311F020E801C020E0232B20936D022C
:10340000DC01ED91FC91309711F081E009958FEF8F
:103410009FEF9093F2028093F1028091F1029091DC
:10342000F20260910D03C5DA9093F2028093F102EB
:1034300086E08093F3028DE392E820CE8091F30240
:103440008430B9F06623D1F383B7817F633021F0F4
:10345000623021F49CE003C094E001C090E0892B2D
:1034600083BF83B7816083BF889583B78E7F83BF17
:10347000E5CF0895CF92EF920F931F93CF93DF93F1
:10348000EC01162FBA0120936E02422F50E08FE616
:1034900092E065D62E2D402F612FCE019FDF6C2D3F
:1034A000CE01DF91CF911F910F91EF90CF90C6CFBA
:1034B0008F929F92AF92BF92CF92EF920F93CF9342
:1034C000DF9300D0CDB7DEB74C015A01C4012A8387
:1034D00069836FDF2A816981811107C0C4012A8352
:1034E00069831ADF69812A81F1CFCE2CE12CA501F5
:1034F000C401C0DF0F900F90DF91CF910F91EF903B
:10350000CF90BF90AF909F908F90089580916D0263
:103510008F770895DC011496ED91FC9115978081C9
:1035200008956115710589F0DB0125EF32E0F9019D
:103530005E2F521B541718F45D915193F9CF21EF70
:1035400034E1FC01318320830895FC011182108253
:103550000895FC01718360831382128214821682A3
:1035600015828AE08783DF01A65BBF4F1D921C9204
:103570001086E75BFF4F10820895EF92FF920F9342
:103580001F93CF93DF93EC017B018A018C8190E044
:10359000019623E1289FB001299F700D11248A8193
:1035A0009B81B7D49B838A832C8140E150E0B70193
:1035B00033E1239F800D911D1124C2D58C81EA81B6
:1035C000FB8193E1899FE00DF11D1124128B018B8A
:1035D0008C818F5F8C83DF91CF911F910F91FF9032
:1035E000EF900895FC017683658308952F923F92B2
:1035F0004F925F926F927F928F929F92AF92BF9203
:10360000CF92DF92EF92FF920F931F93CF93DF93AE
:10361000EC017C0129E4E20EF11C1C018AE4280E75
:10362000311C2E01A8E04A0E511C88819981DC01D1
:10363000ED91FC910480F581E02D0995181619068D
:103640000CF058C088819981DC01ED91FC910680D5
:10365000F781E02D0995182F8F81181332C0A10131
:1036600067E471E0C201A6D53C01009731F18C807E
:10367000912CA12CB12CC12CD12CC814D904C4F488
:103680000A811B810A0D1B1D40E150E0B801C301F6
:1036900083D5B3E1AB0EB11C892B31F4D80151961F
:1036A000ED91FC91529708C0BFEFCB1ADB0AE5CF32
:1036B000ED81FE81309709F009951886F701108297
:1036C000B4CF812F992787FD90952BD5892B09F4AD
:1036D000ACCFD7018C91803408F0A7CF91E0980F40
:1036E0009C93FE01E80FF11D1087FE01E90FF11D0B
:1036F00010869BCFDF91CF911F910F91FF90EF909C
:10370000DF90CF90BF90AF909F908F907F906F9001
:103710005F904F903F902F900895AC01465B5F4FB4
:1037200067E471E080E090E045C50F931F936093DC
:103730001C0370931D0380931E0390931F0300913D
:10374000190110911A0120911B0130911C01060FE3
:10375000171F281F391F009314031093150320937C
:1037600016033093170382E090E090931303809345
:1037700012030E94931360931803709319038093AC
:103780001A0390931B031F910F910895CF92DF921C
:10379000EF92FF920F931F930E949313C090180310
:1037A000D0901903E0901A03F0901B036C197D0967
:1037B0008E099F0900911C0310911D0320911E0387
:1037C00030911F03683E734081059105D8F00F5F6B
:1037D0001F4F2F4F3F4F00931C0310931D03209347
:1037E0001E0330931F0348EEC40E43E0D41EE11CB9
:1037F000F11CC0921803D0921903E0921A03F092C0
:103800001B03CACF8091140390911503A091160356
:10381000B0911703081719072A073B07C0F1E09179
:103820001003F0911103309791F10995611571051D
:103830008105910511F079DF2AC0809119019091DD
:103840001A01A0911B01B0911C0140911C035091E1
:103850001D0360911E0370911F03840F951FA61F07
:10386000B71F8093140390931503A0931603B0938E
:10387000170381E090E02091120330911303232B72
:1038800011F480E090E09093130380931203609111
:103890001C0370911D0380911E0390911F031F91C3
:1038A0000F91FF90EF90DF90CF90089508958530AD
:1038B00008F04CC0E82FF0E0EE0FFF1FE35EFE4F74
:1038C000718360838230E1F018F4813069F004C0C4
:1038D000833019F1843071F1809169008C7F842BE1
:1038E00080936900E89A089580916900440F551FFC
:1038F000440F551F837F842B80936900E99A0895B4
:103900008091690034E0440F551F3A95E1F78F7CB0
:10391000842B80936900EA9A08958091690026E0DB
:10392000440F551F2A95E1F78F73842B809369000C
:10393000EB9A089580916A0094E0440F551F9A9580
:10394000E1F78F7C842B80936A00EE9A089585308E
:10395000E8F4823061F018F4813039F004C083302B
:1039600041F0843041F0E89807C0E99805C0EA9832
:1039700003C0EB9801C0EE98E82FF0E0EE0FFF1FB8
:10398000E35EFE4F86E59CE19183808308951F925C
:103990000F920FB60F9211242F933F934F935F9383
:1039A0006F937F938F939F93AF93BF93EF93FF9307
:1039B000E0911D01F0911E010995FF91EF91BF91DA
:1039C000AF919F918F917F916F915F914F913F91B7
:1039D0002F910F900FBE0F901F9018951F920F926E
:1039E0000FB60F9211242F933F934F935F936F93D2
:1039F0007F938F939F93AF93BF93EF93FF93E09148
:103A00001F01F09120010995FF91EF91BF91AF91B6
:103A10009F918F917F916F915F914F913F912F91E6
:103A20000F900FBE0F901F9018951F920F920FB618
:103A30000F9211242F933F934F935F936F937F9334
:103A40008F939F93AF93BF93EF93FF93E0912101E7
:103A5000F09122010995FF91EF91BF91AF919F9154
:103A60008F917F916F915F914F913F912F910F9027
:103A70000FBE0F901F9018951F920F920FB60F92C6
:103A800011242F933F934F935F936F937F938F9363
:103A90009F93AF93BF93EF93FF93E0912301F09136
:103AA00024010995FF91EF91BF91AF919F918F9163
:103AB0007F916F915F914F913F912F910F900FBE2A
:103AC0000F901F9018951F920F920FB60F9211240E
:103AD0002F933F934F935F936F937F938F939F9316
:103AE000AF93BF93EF93FF93E0912501F0912601EF
:103AF0000995FF91EF91BF91AF919F918F917F9128
:103B00006F915F914F913F912F910F900FBE0F904A
:103B10001F90189590E0FC013197EF30F105A8F562
:103B2000EA5AFF4FC9C0809180008F7703C080910F
:103B300080008F7D80938000089580918000877F32
:103B4000F9CF84B58F7702C084B58F7D84BD089589
:103B5000809190008F7707C0809190008F7D03C087
:103B600080919000877F8093900008958091C0009D
:103B70008F7703C08091C0008F7D8093C00008952F
:103B80008091C200877F8093C2000895CF93DF9316
:103B900090E0FC01E950F94F2491FC01EA5EF84FF6
:103BA0008491882349F190E0880F991FFC01EF5A16
:103BB000F84FA591B4918D5B984FFC01C591D491BC
:103BC0009FB7611108C0F8948C91209582238C9343
:103BD000888182230AC0623051F4F8948C91322F8C
:103BE000309583238C938881822B888304C0F8943A
:103BF0008C91822B8C939FBFDF91CF9108950F936F
:103C00001F93CF93DF931F92CDB7DEB7282F30E0FD
:103C1000F901E852F94F8491F901E950F94F1491F3
:103C2000F901EA5EF84F04910023C1F0882319F0EE
:103C3000698370DF6981E02FF0E0EE0FFF1FED5B1D
:103C4000F84FA591B4919FB7F8948C91611103C07E
:103C50001095812301C0812B8C939FBF0F90DF9122
:103C6000CF911F910F910895CF93DF93282F30E0CC
:103C7000F901E852F94F8491F901E950F94FD491D3
:103C8000F901EA5EF84FC491CC2389F0811142DF3B
:103C9000EC2FF0E0EE0FFF1FEB5CF84FA591B49115
:103CA0002C912D2381E090E021F480E002C080E09F
:103CB00090E0DF91CF910895EE0FFF1F0590F491F2
:103CC000E02D0994CF93DF938230910510F482E0C8
:103CD00090E0E0912203F091230320E030E0A0E0A7
:103CE000B0E0309739F14081518148175907B8F059
:103CF0004817590771F482819381109729F0139620
:103D00009C938E9312972CC090932303809322034D
:103D100027C02115310531F04217530718F0A901CA
:103D2000DB0101C0EF019A01BD01DF010280F381D7
:103D3000E02DD7CF21153105F9F0281B390B2430A0
:103D4000310580F48A819B816115710521F0FB01A9
:103D50009383828304C09093230380932203FE0104
:103D6000329644C0FE01E20FF31F819391932250DB
:103D70003109398328833AC02091200330912103EF
:103D8000232B41F420910201309103013093210350
:103D9000209320032091000130910101211531056C
:103DA00041F42DB73EB74091040150910501241B09
:103DB000350BE0912003F0912103E217F307A0F403
:103DC0002E1B3F0B2817390778F0AC014E5F5F4F71
:103DD0002417350748F04E0F5F1F5093210340937F
:103DE00020038193919302C0E0E0F0E0CF01DF91E6
:103DF000CF910895CF93DF93009709F487C0FC011A
:103E0000329713821282C0912203D091230320970C
:103E100081F420813181280F391F809120039091F6
:103E200021038217930779F5F0932103E093200390
:103E30006DC0DE0120E030E0AE17BF0750F41296EF
:103E40004D915C9113979D014115510509F1DA01DE
:103E5000F3CFB383A28340815181840F951F8A17CA
:103E60009B0771F48D919C911197840F951F029679
:103E70009183808312968D919C9113979383828373
:103E80002115310529F4F0932303E09322033EC06A
:103E9000D9011396FC93EE9312974D915D91A40F67
:103EA000B51FEA17FB0779F480819181840F951F74
:103EB0000296D90111969C938E93828193811396D9
:103EC0009C938E931297E0E0F0E08A819B810097AB
:103ED00019F0FE01EC01F9CFCE010296288139815B
:103EE000820F931F20912003309121032817390757
:103EF00069F4309729F4109223031092220302C030
:103F000013821282D0932103C0932003DF91CF91BB
:103F10000895A0E0B0E0EEE8FFE158C4EC01CB0169
:103F2000209711F4CFDEB4C0FE01E60FF71F9E010B
:103F300022503109E217F30708F4A8C0D9010D9106
:103F40001C91119706171707B0F00530110508F4FA
:103F50009BC0A801445051094617570708F494C064
:103F600002501109061B170B019311936D937C935B
:103F7000CF0140DF89C05B01A01AB10A4E01800E5B
:103F8000911EA0912203B0912303612C712C60E05B
:103F900070E0109709F449C0A815B905C9F5ED906E
:103FA000FC901197670142E0C40ED11CCA14DB04D7
:103FB00078F147018A189B08640142E0C40ED11CC5
:103FC0001296BC9012971396AC91B5E0CB16D10423
:103FD00040F0B282A38391828082D9018D939C9319
:103FE00009C00E5F1F4F0E0D1F1DF90111830083C5
:103FF000EB2DFA2F6115710531F0DB011396FC935F
:10400000EE93129741C0F0932303E09322033CC048
:104010006D917C9111976616770608F43B01BD01FE
:1040200012960D90BC91A02DB4CF60912003709199
:10403000210368157905E9F468167906D0F44091F2
:104040000001509101014115510541F44DB75EB792
:104050006091040170910501461B570BE417F507A9
:10406000A8F4F0932103E0932003F9019183808366
:104070000BC028DE7C01009749F0A801BE016FD07B
:10408000CE01B8DEC70104C0CE0102C080E090E0DE
:10409000CDB7DEB7EEE0B6C3FC0188279927E894D8
:1040A00021912032E9F3293010F02E30C8F32B3261
:1040B00039F02D3231F4689403C0B8D0820F911DCD
:1040C000219120532A30C8F31EF4909581959F4F7B
:1040D00008951F93FC0199278827BC01E89411914A
:1040E0001032E9F3193010F01E30C8F31B3249F0DA
:1040F0001D3241F4689405C084D0610F711D811D8B
:10410000911D119110531A30B8F33EF4909580959B
:10411000709561957F4F8F4F9F4F1F91089580320B
:1041200009F09111A6C280528F55E0F70895FB0166
:10413000DC0102C005900D9241505040D8F708951F
:10414000FB01DC014150504048F005900D920020E9
:10415000C9F701C01D9241505040E0F70895FB019E
:10416000DC0102C001900D9241505040D8F70895F3
:10417000FB01DC010D900020E9F7119701900D92F1
:104180000020E1F70895FB01DC018D910190801979
:104190000110D9F3990B0895FB01DC014150504007
:1041A00030F08D910190801919F40020B9F7881B27
:1041B000990B0895FA01A191B081009719F4109715
:1041C000E1F0CD01DC01CD010D90002011F4C00122
:1041D00013C0FB012191222319F02015D9F7F3CF49
:1041E000FB012191201519F41E92119606C022237D
:1041F000C1F70D900020A1F7D001FA01A193B0837F
:104200000895592F482F372F262F660F771F881FA5
:10421000991F660F771F881F991F620F731F841FD6
:10422000951F660F771F881F991F08957AE0979F43
:10423000902D879F802D910D11240895AEE0B0E060
:10424000E3E2F1E2CDC28C01CA014EE04C831A8355
:10425000098377FF02C060E070E8615071097E83D6
:104260006D83A901BC01CE01019611D04D815E8103
:1042700057FD0AC02F813885421753070CF49A0165
:10428000F801E20FF31F10822E96E4E0C5C2ACE005
:10429000B0E0ECE4F1E296C27C016B018A01FC0122
:1042A00017821682838181FFB0C1CE0101964C0135
:1042B000F7019381F60193FD859193FF81916F0141
:1042C000882309F49EC1853239F493FD859193FFCB
:1042D00081916F01853221F4B70190E0E3D1E8CFFD
:1042E000512C312C20E02032A0F48B3269F030F4D4
:1042F000803259F0833269F420612CC08D3239F05C
:10430000803339F4216026C02260246023C02860F5
:1043100021C027FD27C030ED380F3A3078F426FF52
:1043200006C0FAE05F9E300D1124532E13C08AE0C0
:10433000389E300D1124332E20620CC08E3221F4B1
:1043400026FD5FC1206406C08C3611F4206802C0CF
:10435000883641F4F60193FD859193FF81916F01B9
:104360008111C1CF982F9F7D9554933028F40C5F15
:104370001F4FFFE3F9830DC0833631F0833771F0AF
:10438000833509F057C021C0F801808189830E5F11
:104390001F4F44244394512C540114C03801F2E0BF
:1043A0006F0E711CF801A080B18026FF03C0652D3F
:1043B00070E002C06FEF7FEFC5012C8768D12C0140
:1043C00083012C852F77222E16C03801F2E06F0E64
:1043D000711CF801A080B18026FF03C0652D70E03C
:1043E00002C06FEF7FEFC5012C8746D12C012C85D1
:1043F0002068222E830123FC19C0832D90E04816EB
:104400005906A0F4B70180E290E04CD13A94F5CF80
:10441000F50127FC859127FE81915F01B70190E0AE
:1044200041D131103A94F1E04F1A5108411451042E
:1044300079F7DEC0843611F0893631F5F80127FFAF
:1044400007C060817181828193810C5F1F4F08C01A
:1044500060817181882777FD8095982F0E5F1F4FAF
:104460002F76B22E97FF09C0909580957095619533
:104470007F4F8F4F9F4F2068B22E2AE030E0A4017B
:1044800043D1A82EA81843C0853729F42F7EB22E19
:104490002AE030E025C0F22FF97FBF2E8F36C1F021
:1044A00018F4883579F0ADC0803719F0883721F0DD
:1044B000A8C02F2F2061B22EB4FE0DC08B2D8460BA
:1044C000B82E09C024FF0AC09F2F9660B92E06C0DF
:1044D00028E030E005C020E130E002C020E132E019
:1044E000F801B7FE07C060817181828193810C5F02
:1044F0001F4F06C06081718180E090E00E5F1F4F0A
:10450000A40102D1A82EA818FB2DFF77BF2EB6FE5E
:104510000BC02B2D2E7FA51450F4B4FE0AC0B2FCA4
:1045200008C02B2D2E7E05C07A2C2B2D03C07A2C93
:1045300001C0752C24FF0DC0FE01EA0DF11D808124
:10454000803311F4297E09C022FF06C0739473944E
:1045500004C0822F867809F0739423FD12C020FFD7
:1045600006C05A2C731418F4530C5718732C731478
:1045700060F4B70180E290E02C8794D073942C858E
:10458000F6CF731410F4371801C0312C24FF11C07A
:10459000B70180E390E02C8785D02C8522FF16C0E0
:1045A00021FF03C088E590E002C088E790E0B701F2
:1045B0000CC0822F867851F021FD02C080E201C03C
:1045C0008BE227FD8DE2B70190E06CD0A51430F4AA
:1045D000B70180E390E066D05A94F8CFAA94F40132
:1045E000EA0DF11D8081B70190E05CD0A110F6CFFB
:1045F000332009F45DCEB70180E290E053D03A94C5
:10460000F7CFF7018681978102C08FEF9FEF2C963D
:10461000E2E1F4C0DC01CB01FC01F999FECF06C058
:10462000F2BDE1BDF89A319600B40D924150504070
:10463000B8F70895F999FECF92BD81BDF89A9927F0
:1046400080B50895DC01CB0102C02D9105D0415009
:104650005040D8F70895262FF999FECF1FBA92BD82
:1046600081BD20BD0FB6F894FA9AF99A0FBE019653
:104670000895992788270895FC010590615070409E
:104680000110D8F7809590958E0F9F1F0895FC011B
:104690006150704001900110D8F7809590958E0F71
:1046A0009F1F08950F931F93CF93DF93182F092F08
:1046B000EB018B8181FD03C08FEF9FEF20C082FF54
:1046C00010C04E815F812C813D81421753077CF4DD
:1046D000E881F9819F012F5F3F4F39832883108341
:1046E00006C0E885F985812F0995892B29F72E8148
:1046F0003F812F5F3F4F3F832E83812F902FDF918C
:10470000CF911F910F910895FA01AA27283051F1F6
:10471000203181F1E8946F936E7F6E5F7F4F8F4FF2
:104720009F4FAF4FB1E03ED0B4E03CD0670F781F51
:10473000891F9A1FA11D680F791F8A1F911DA11D36
:104740006A0F711D811D911DA11D20D009F468946F
:104750003F912AE0269F11243019305D3193DEF617
:10476000CF010895462F4770405D4193B3E00FD0CD
:10477000C9F7F6CF462F4F70405D4A3318F0495DB8
:1047800031FD4052419302D0A9F7EACFB4E0A6959B
:104790009795879577956795BA95C9F700976105BD
:1047A000710508959B01AC010A2E06945795479513
:1047B00037952795BA95C9F7620F731F841F951F08
:1047C000A01D08952F923F924F925F926F927F9219
:1047D0008F929F92AF92BF92CF92DF92EF92FF9211
:1047E0000F931F93CF93DF93CDB7DEB7CA1BDB0BBD
:1047F0000FB6F894DEBF0FBECDBF09942A88398862
:1048000048885F846E847D848C849B84AA84B98468
:10481000C884DF80EE80FD800C811B81AA81B98174
:10482000CE0FD11D0FB6F894DEBF0FBECDBFED0188
:10483000089517E0C4E6D7E003C0FE013FDA2296F0
:0A484000C636D107D1F7F894FFCF78
:10484A00000024038000FFFFFFFF00E100000000DA
:10485A00000000C180810000002C010000561C5697
:10486A001C561C561C561C41424344414243444177
:10487A0042434441424344006E6F64654255494C89
:10488A00445F54494D45002000300000000000E418
:10489A000D260E0C0E1A0EFA0D0A0E0D0A006E6186
:0C48AA006E00696E66006F7666002E00DE
:00000001FF
