:100000005BC0000074C0000072C0000070C000003F
:100010006EC000006CC000006AC0000068C0000034
:1000200066C0000064C0000062C0000060C0000044
:100030005EC000005CC000005AC0000058C0000054
:1000400057C1000054C0000052C0000050C0000062
:100050004EC000004CC000004AC0000048C0000074
:1000600046C0000044C0000000000008000201007B
:100070000003040700000000000000000102040863
:100080001020408001020408102001020408102002
:10009000040404040404040402020202020203032E
:1000A0000303030300000000250028002B000000CC
:1000B0000000240027002A0011241FBECFEFD8E043
:1000C000DEBFCDBF11E0A0E0B1E0E4E2F6E002C0A7
:1000D00005900D92A031B107D9F721E0A0E1B1E080
:1000E00001C01D92AD31B207E1F7F7D099C288CFB8
:1000F000492F441F4427441F29F097FF03C09195BF
:1001000081959109FB012AE030E08A3091052CF0BD
:10011000B9015FD28193CB01F8CF8083442311F0E2
:100120008BE081830895FF920F931F93CF93DF930A
:10013000F62EC0E0D0E0082F10E0CF1598F460E074
:100140008BE011D2C8010C2E02C0959587950A94B8
:10015000E2F7682F617089E006D261E08BE003D29C
:100160002196EBCFDF91CF911F910F91FF900895D2
:10017000CF93DF93C82FD62F60E08AE0F4D164E0FC
:1001800081E001C0880FDA95EAF7CDDF68E08C2FB7
:10019000CADF61E08AE0DF91CF91E5C1FF920F9362
:1001A0001F93CF93DF9300D000D0CDB7DEB74CE0E4
:1001B0005CE0BA0149835A836B837C83BE016F5F25
:1001C0007F4F96DF8E010F5F1F4FF12CD801ED910D
:1001D0008D01F0E0EE5FFE4F6F2D8081C9DFF3945B
:1001E000B4E0FB12F3CF0F900F900F900F90DF91C0
:1001F000CF911F910F91FF9008950F931F93C2D03D
:100200000091100110911101209112013091130100
:10021000601B710B820B930B643671058105910590
:1002200018F18091000190910101803127E292073D
:100230001CF029E18CEF02C0282F892F20930001A8
:10024000809301019FD060931001709311018093FE
:100250001201909313018091000190910101019688
:100260009093010180930001809100019091010120
:1002700095DF81E02091000130910101203137426A
:100280000CF080E01F910F9108951F93CF93DF939F
:1002900010E0C2E0D1E0612F89916ADF68EC70E084
:1002A00080E090E09ED081E0CF30D807A1F71F5FBB
:1002B000143079F7DF91CF911F91089561E089E0C3
:1002C00019D161E08AE016D161E08BE013C1DDDF76
:1002D00094DF8111FDCF08950895A8D0FDDFEEDFF2
:1002E000C0E0D0E0F4DF2097E9F30E940000FACFED
:1002F0001F920F920FB60F9211242F933F938F935B
:100300009F93AF93BF938091150190911601A09197
:100310001701B09118013091140123E0230F2D37FC
:1003200020F40196A11DB11D05C026E8230F0296F9
:10033000A11DB11D20931401809315019093160106
:10034000A0931701B09318018091190190911A019F
:10035000A0911B01B0911C010196A11DB11D8093BC
:10036000190190931A01A0931B01B0931C01BF9136
:10037000AF919F918F913F912F910F900FBE0F9052
:100380001F9018952FB7F894609115017091160180
:1003900080911701909118012FBF08953FB7F894ED
:1003A0008091190190911A01A0911B01B0911C013B
:1003B00026B5A89B05C02F3F19F00196A11DB11DC0
:1003C0003FBF6627782F892F9A2F620F711D811DDD
:1003D000911D42E0660F771F881F991F4A95D1F73C
:1003E0000895CF92DF92EF92FF92CF93DF936B014C
:1003F0007C01D4DFEB01C114D104E104F10479F0F4
:10040000E7D0CCDF6C1B7D0B683E7340A0F381E02E
:10041000C81AD108E108F108C851DC4FECCFDF91D0
:10042000CF91FF90EF90DF90CF900895789484B5AE
:10043000826084BD84B5816084BD85B5826085BDE0
:1004400085B5816085BDEEE6F0E0808181608083C6
:10045000E1E8F0E0108280818260808380818160A9
:100460008083E0E8F0E0808181608083E1EBF0E070
:10047000808184608083E0EBF0E080818160808314
:10048000EAE7F0E0808184608083808182608083FD
:100490008081816080838081806880831092C10028
:1004A0000895833081F028F4813099F08230A1F0F2
:1004B00008958730A9F08830B9F08430D1F4809164
:1004C00080008F7D03C0809180008F7780938000B3
:1004D000089584B58F7702C084B58F7D84BD08955B
:1004E0008091B0008F7703C08091B0008F7D8093A2
:1004F000B0000895CF93DF9390E0FC01E458FF4FE4
:100500002491FC01E057FF4F8491882349F190E04A
:10051000880F991FFC01E255FF4FA591B4918C55AE
:100520009F4FFC01C591D4919FB7611108C0F89409
:100530008C91209582238C93888182230AC062301B
:1005400051F4F8948C91322F309583238C938881C9
:10055000822B888304C0F8948C91822B8C939FBF4C
:10056000DF91CF9108950F931F93CF93DF931F9245
:10057000CDB7DEB7282F30E0F901E859FF4F84915D
:10058000F901E458FF4F1491F901E057FF4F04912E
:100590000023C1F0882319F0698383DF6981E02F8C
:1005A000F0E0EE0FFF1FEC55FF4FA591B4919FB700
:1005B000F8948C91611103C01095812301C0812BA7
:1005C0008C939FBF0F90DF91CF911F910F91089552
:1005D000089597FB072E16F4009406D077FD08D0F7
:1005E0000BD007FC05D03EF4909581959F4F089560
:1005F000709561957F4F0895AA1BBB1B51E107C001
:10060000AA1FBB1FA617B70710F0A61BB70B881FA2
:10061000991F5A95A9F780959095BC01CD01089531
:04062000F894FFCF7C
:1006240019FC039F250D9949411F0109FEFDFF0097
:00000001FF
