:1000000080C0A4C0A3C0A2C0C7C7A0C09FC09EC0DC
:100010009DC051C29BC09AC099C098C097C096C05D
:1000200095C094C093C000000000000000000003D1
:100030000406000000000000000001020408102077
:10004000408001020408102001020408102004046A
:100050000404040404040202020202020303030370
:1000600003030000000036003300300000000000F1
:100070003800350032000000000037003400310045
:100080007E306D79335B5F707F7B771F4E3D4F47CE
:100090000000000000000000000000000000000060
:1000A00000002200000000204E7800000401000043
:1000B0007E306D79335B5F707F7B00000000000055
:1000C00000771F4E3D4F475E373038000E00157EDB
:1000D0006F73055B0F3E0000003B004E0078000888
:1000E00002771F0D3D6F475E171038003000151D59
:1000F0006773055B0F1C000000000000000000009B
:100100002E0211241FBECFE5D4E0DEBFCDBF10E02C
:10011000A0E6B0E0E4EDF6E102C005900D92A8374C
:10012000B107D9F721E0A8E7B0E001C01D92A638D9
:10013000B207E1F711E0C2E0D1E003C02297FE016F
:10014000F1D7C030D107D1F783D1C2CA59CF80913E
:100150006901181624F481508093690108958BE396
:100160008093690180916801181624F4815080936E
:10017000680108951092690181E0809367010895F4
:10018000109269011092680110926701B4D660E084
:100190008DE05AD284E080936F010895F1CF61E041
:1001A0008DE052D2ACD681E080936F0108958091AA
:1001B0006F01833041F480916901811103C0809106
:1001C00068018111ECCF089530916F013130D1F089
:1001D000FC013081772767FD7095630F711D37FD36
:1001E0007A95E42FF0E06E177F0714F4642F05C0B2
:1001F00030E0261737070CF4B901FC01608383E077
:1002000080936F0108952BE340E061E089E691E07F
:10021000DBCF2BE340E06FEF89E691E0D5CF23E61B
:1002200040E061E088E691E0CFCF23E640E06FEF69
:1002300088E691E0C9CF8F92AF92CF92EF920F9361
:1002400063E071E08CE491E073D369E071E081E3F5
:1002500091E06ED36FE071E086E191E069D365E1F2
:1002600071E08BEF90E064D36EEC70E080EE90E094
:100270005FD367ED70E085EC90E05AD381E08F9317
:1002800088E08F9387E08F9386E08F9385E08F934C
:1002900084E08F9383E0882E92E0A92E29E0C22E7D
:1002A0003AE0E32E0BE02CE044E061E08CE790E0E4
:1002B00048D460E58CE790E070D447EA50E068EEFF
:1002C00073E080E090E0CDD561E08DE084D10F90C7
:1002D0000F900F900F900F900F900F91EF90CF9085
:1002E000AF908F904DCF0F931F9361E08CE491E01E
:1002F000EBD261E081E391E0E7D261E086E191E059
:10030000E3D261E08BEF90E0DFD261E080EE90E03D
:10031000DBD261E085EC90E0D7D217D10091780074
:100320001091790020917A0030917B00601B710B55
:10033000820B930B643671058105910508F43FC06B
:1003400004D1609378007093790080937A00909341
:100350007B006CED75E08CE491E0C0D2882331F035
:100360002BE340E061E089E691E02EDF6CED75E083
:1003700081E391E0B3D2882331F02BE340E06FEFCB
:1003800089E691E021DF6CED75E086E191E0A6D28F
:10039000882331F023E640E061E088E691E014DF55
:1003A0006CED75E08BEF90E099D2882341F023E665
:1003B00040E06FEF88E691E01F910F9105CF1F910C
:1003C0000F91089580916F01823071F128F4882394
:1003D00031F0813039F02DC0853058F503C064E626
:1003E00070E024C020916901822F992787FD9095A4
:1003F0009F932F9320916801822F992787FD9095D5
:100400009F932F9389E690E09F938F938AE691E0E4
:100410009F938F939ED68DB79EB708960FB6F8948C
:100420009EBF0FBE8DBF05C062E770E08AE691E017
:1004300089D640E06AE671E08CE790E0E2C3809103
:100440006701882321F09CDE82E080936F0108958C
:1004500091D0F1DE48DFB6DFF2DFFCCF0F931F93C0
:1004600002E310E021E042E062E18CE491E052D14D
:1004700021E042E06EE081E391E04CD121E042E0F6
:1004800060E186E191E046D121E042E061E18BEF5D
:1004900090E040D121E042E06FE080EE90E03AD180
:1004A00021E042E063E185EC90E034D18CE790E01C
:1004B0001F910F9141C21F920F920FB60F921124FC
:1004C0002F933F938F939F93AF93BF93809171012D
:1004D00090917201A0917301B091740130917001FB
:1004E00026E0230F2D3720F40296A11DB11D05C073
:1004F00029E8230F0396A11DB11D2093700180935D
:10050000710190937201A0937301B0937401809173
:10051000750190917601A0917701B09178010196D3
:10052000A11DB11D8093750190937601A093770171
:10053000B0937801BF91AF919F918F913F912F918F
:100540000F900FBE0F901F9018952FB7F8946091E1
:1005500071017091720180917301909174012FBFAC
:1005600008958330910528F0880F991F049701970B
:10057000F1F70895789483B7826083BF83B7816071
:1005800083BF89B7816089BF1EBC8EB582608EBD76
:100590008EB581608EBD8FB581608FBD85B584605D
:1005A00085BD85B5806485BD329A319A3098379A79
:1005B0001AB80895843039F0863049F0833051F408
:1005C0008FB58F7702C08FB58F7D8FBD089585B5AC
:1005D0008F7D85BD0895CF93DF9390E0FC01E65CAD
:1005E000FF4F2491FC01E25BFF4F8491882349F186
:1005F00090E0880F991FFC01EA58FF4FA591B49134
:1006000084599F4FFC01C591D4919FB7611108C0D7
:10061000F8948C91209582238C93888182230AC040
:10062000623051F4F8948C91322F309583238C935F
:100630008881822B888304C0F8948C91822B8C93C0
:100640009FBFDF91CF9108950F931F93CF93DF93B7
:100650001F92CDB7DEB7282F30E0F901EA5DFF4FDA
:100660008491F901E65CFF4F1491F901E25BFF4FC1
:1006700004910023C1F0882319F069839BDF69810D
:10068000E02FF0E0EE0FFF1FE459FF4FA591B4916A
:100690009FB7F8948C91611103C01095812301C01C
:1006A000812B8C939FBF0F90DF91CF911F910F9162
:1006B0000895CF93DF93282F30E0F901EA5DFF4FD3
:1006C0008491F901E65CFF4FD491F901E25BFF4FA1
:1006D000C491CC2389F081116DDFEC2FF0E0EE0F97
:1006E000FF1FEE59FF4FA591B4912C912D2381E06E
:1006F00090E021F480E002C080E090E0DF91CF91B3
:10070000089521E0FC012183623019F461E08081C9
:100710009BCF0895EF92FF920F931F93CF93DF9398
:1007200000D0CDB7DEB77C01862FF701608360E093
:1007300029834A8350DF2981F7012383178706879E
:1007400004DFF70162877387848795874A814111A7
:1007500002C0118203C0642FC701D3DFF7011282E8
:100760008181811102C081E08283F701118A108AA0
:10077000138A128A158A148A178A168A118E108E85
:1007800081E0828F0F900F90DF91CF911F910F9199
:10079000FF90EF900895CF92DF92EF92FF920F9328
:1007A0001F93CF93DF93EC018A8180FF02C08260A8
:1007B00001C08D7F8A8388817CDF298130E04A8176
:1007C0008217930711F44E7F01C041604A834A812A
:1007D000242F30E0C901959587958227932780FFC4
:1007E00042C0B3DECA84DB84EC84FD842B812223E7
:1007F00049F08B010C191D098E859F850817190773
:1008000008F459C0A2DE6A877B878C879D878A811E
:1008100080FF12C0888D998D0196998F888FE88905
:10082000F989309711F0CE0109958FDE6C837D83B5
:100830008E839F831A8E13C0EA89FB89309711F04B
:10084000CE010995EC89FD89309711F0CE0109950B
:100850004FEF5FEFBA014C835D836E837F838A81A4
:1008600084608A8328C04B7F4A834C815D816E817E
:100870007F814F3F5F4F6F4F7F4FE9F08A8D81112E
:100880001AC063DE0C811D812E813F81601B710BBC
:10089000820B930B0885198520E030E006171707B7
:1008A0002807390740F4EE89FF89309721F0CE01FF
:1008B000099581E08A8FDF91CF911F910F91FF9071
:1008C000EF90DF90CF900895CF93DF93EC0161110B
:1008D00062DF8A818170DF91CF910895CF92DF929C
:1008E000EF92FF920F931F93CF93DF93EC018B0155
:1008F00061E0EADF882389F028DECC80DD80EE80AD
:10090000FF806C197D098E099F0920E030E041E0ED
:10091000061717072807390708F040E0842FDF91F2
:10092000CF911F910F91FF90EF90DF90CF9008959E
:10093000FC01758B648B0895885B9F4FFC011082CE
:1009400008956F927F928F92AF92CF92DF92EF9243
:10095000FF920F931F93CF93DF93CDB7DEB73C0188
:10096000FF84F889E9897A895B893C899D898E8928
:10097000DF88188DD30155964C93559715962C9377
:10098000159716960C9316971796EC92179718963C
:10099000CC92189719968C9219971A96AC921A972E
:1009A0001D96FC921D971E96FC931E971F96EC9326
:1009B0001F9750967C93509751965C9351975296FF
:1009C0003C93529753969C93539754968C93549779
:1009D0001B961C931B971C96DC921C976C936623AA
:1009E00069F041E011964C93119712961C92129760
:1009F00013961C92139714964C930DC0D301119625
:100A00001C92119741E012964C93129713964C93B7
:100A1000139714961C92D30158962C935897599675
:100A20000C9359975A96EC925A975B96CC925B9797
:100A30005C96FC925C975D96FC935D975E96EC935A
:100A40005E975F967C935F9790965C939097919654
:100A50003C93919792969C93929793968C93F12CBA
:100A6000D30155968C91F81678F483010F0D111D62
:100A7000F3016281D80158968C91E6DD61E0F801BE
:100A8000808DA9DDF394ECCF00E010E07301E00E5F
:100A9000F11EF3016481D7015C968C91D5DD61E094
:100AA000F701848D98DD0F5F1F4F0830110571F736
:100AB000D3011A968C911A978F3F91F012966C91F0
:100AC000C3DD61E0F301828586DDD30114966C916C
:100AD00014971C968C91B8DD61E0F30184857BDD71
:100AE000D30119968C9119978F3FF1F012966C9162
:100AF000ABDD61E0F30181856EDDD30114966C916D
:100B000014971B968C91A0DD61E0F3018385DF9142
:100B1000CF911F910F91FF90EF90DF90CF90AF900A
:100B20008F907F906F9057CDDF91CF911F910F9154
:100B3000FF90EF90DF90CF90AF908F907F906F906D
:100B400008958F92AF92CF92EF920F93CF93DF934E
:100B5000CDB7DEB73FEF3F933F933F853F933E8551
:100B60003F933D853F933C853F933B853F933A853B
:100B70003F938F92AF9288248A94AA24AA94E1DEAC
:100B80000FB6F894DEBF0FBECDBFDF91CF910F91AE
:100B9000EF90CF90AF908F900895AF92BF92CF9289
:100BA000DF92EF92FF920F931F93CF93DF93EC01AD
:100BB000653608F064E670E080E090E01F921F92D6
:100BC00027E02F9320ED2F93A12CB12C650114E683
:100BD000E12EF12C00E010E020E030E0A90104D289
:100BE0007F8B6E8B0F900F900F900F90DF91CF91B6
:100BF0001F910F91FF90EF90DF90CF90BF90AF903B
:100C000008956F927F928F929F92AF92BF92CF92F0
:100C1000DF92EF92FF920F931F93CF93DF93EC013C
:100C20004B01642E77247394C42ED12C31EDA32E66
:100C300037E0B32EE72CF12C8D8990E08E159F05BF
:100C40000CF4C6C022E0721689F0271530F031E0AE
:100C5000731212C069818D810EC083E0781649F04D
:100C600094E0791209C06981888505C069818E8107
:100C700002C069818F81E8DCF401EE0DFF1D319720
:100C8000008107FF21C000FF03C06B818D85DCDC84
:100C900001FF03C06B818E85D7DC02FF03C06B812F
:100CA0008F85D2DC03FF03C06B818889CDDC04FF14
:100CB00003C06B818989C8DC05FF03C06B818A8909
:100CC000C3DC06FF35C031C010E000581F4FF801EB
:100CD000849186FF03C06B818D85B6DCF801849119
:100CE00085FF03C06B818E85AFDCF801849184FFA2
:100CF00003C06B818F85A8DCF801849183FF03C05A
:100D00006B818889A1DCF801849182FF03C06B812B
:100D100089899ADCF801849181FF03C06B818A89FB
:100D200093DCF801049100FF03C06B818B898CDC9C
:100D3000F1E0EF1AF108960102C035952795EA9483
:100D4000E2F720FF06C034E0371518F06B818C897C
:100D50007BDC8E899F89019604DC6C818D8574DC37
:100D60006C818E8571DC6C818F856EDC6C818889ED
:100D70006BDC6C81898968DC6C818A8965DC6C81BB
:100D80008B8962DC6C818C895FDC82E0781689F06B
:100D9000871530F091E0791212C06A818D810EC002
:100DA000E3E07E1649F0F4E07F1209C06A8188858D
:100DB00005C06A818E8102C06A818F8145DC8E897F
:100DC0009F899501281B390BC901CBDB739432CF66
:100DD0008A858F3F19F499859F3FA1F164FE05C074
:100DE000698132DC6B818C852FDC65FE06C06981F0
:100DF00089852ADC6B818B8527DC8E899F8901960A
:100E0000B0DB6A818A8520DC6C818C851DDC6A817F
:100E100089851ADC6C818B8517DC2E893F8981EDF1
:100E200097E0821B930BDF91CF911F910F91FF9061
:100E3000EF90DF90CF90BF90AF909F908F907F907A
:100E40006F908FCBDF91CF911F910F91FF90EF901B
:100E5000DF90CF90BF90AF909F908F907F906F90DA
:100E60000895611571058105910569F481E090E0AF
:100E7000A0E0B0E08093820190938301A09384016D
:100E8000B093850108C060938201709383018093C1
:100E9000840190938501509381014093800189B72B
:100EA0008F7B89BF85B5877B85BD89B78F7789BFE4
:100EB00082B5877F82BD85B5846085BD85B58C7F11
:100EC00085BD83E890E090937A018093790108953D
:100ED00010927C0110927D0110927E0110927F0190
:100EE00010927B018091790190917A0184BD89B73C
:100EF000806489BF089589B78F7B89BF0895FBDF20
:100F0000E7CF80917C0190917D01A0917E01B0910D
:100F10007F010196A11DB11D80937C0190937D01FD
:100F2000A0937E01B0937F0180917C0190917D011F
:100F3000A0917E01B0917F01409182015091830187
:100F4000609184017091850184179507A607B70702
:100F500010F180917B0181111EC081E080937B01A3
:100F600080917C0190917D01A0917E01B0917F01E3
:100F7000841B950BA60BB70B80937C0190937D018E
:100F8000A0937E01B0937F01E0918001F0918101F7
:100F9000099510927B0108951F920F920FB60F9240
:100FA00011242F933F934F935F936F937F938F936E
:100FB0009F93AF93BF93EF93FF93809179019091AB
:100FC0007A0184BD9EDFFF91EF91BF91AF919F9118
:100FD0008F917F916F915F914F913F912F910F90E2
:100FE0000FBE0F901F9018954F925F926F927F9255
:100FF000AF92BF92CF92DF92EF92FF920F931F9327
:10100000CF93DF93CDB7DEB729013A01621B730B93
:10101000840B950B29893A894B895C892A193B09EC
:101020004C095D09298B3A8B4B8B5C8B9B01AC0186
:1010300069897A898B899C891CD0E418F50806098E
:101040001709A801970124D02A0D3B1D4C1D5D1DD9
:10105000CA01B901DF91CF911F910F91FF90EF90DD
:10106000DF90CF90BF90AF907F906F905F904F9048
:101070000895DB018F939F9327D0BF91AF91A29FDB
:10108000800D911DA39F900DB29F900D1124089586
:10109000052E97FB16F400940FD057FD05D01ED0F7
:1010A00007FC02D046F408C0509540953095219534
:1010B0003F4F4F4F5F4F0895909580957095619584
:1010C0007F4F8F4F9F4F089531D0A59F900DB49FB4
:1010D000900DA49F800D911D11240895A1E21A2E58
:1010E000AA1BBB1BFD010DC0AA1FBB1FEE1FFF1FCC
:1010F000A217B307E407F50720F0A21BB30BE40B1C
:10110000F50B661F771F881F991F1A9469F7609562
:101110007095809590959B01AC01BD01CF0108951C
:10112000EE0FFF1F0590F491E02D0994A29FB001EE
:10113000B39FC001A39F01D0B29F700D811D1124E8
:10114000911D0895FB01DC0101900D920020E1F753
:101150000895AEE0B0E0EEEAF8E091C20D891E8994
:1011600086E08C831A8309838FEF9FE79E838D83AC
:10117000AE01475E5F4F6F89788DCE01019608D032
:10118000EF81F885E00FF11F10822E96E4E093C204
:10119000ACE0B0E0EDECF8E064C27C016B018A01E8
:1011A000FC0117821682838181FFB0C1CE010196B6
:1011B0004C01F7019381F60193FD859193FF819195
:1011C0006F01882309F49EC1853239F493FD85911E
:1011D00093FF81916F01853221F4B70190E0B1D185
:1011E000E8CF512C312C20E02032A0F48B3269F072
:1011F00030F4803259F0833269F420612CC08D3292
:1012000039F0803339F4216026C02260246023C085
:10121000286021C027FD27C030ED380F3A3078F420
:1012200026FF06C0FAE05F9E300D1124532E13C036
:101230008AE0389E300D1124332E20620CC08E328D
:1012400021F426FD5FC1206406C08C3611F42068AD
:1012500002C0883641F4F60193FD859193FF819198
:101260006F018111C1CF982F9F7D9554933028F441
:101270000C5F1F4FFFE3F9830DC0833631F08337D6
:1012800071F0833509F057C021C0F801808189834E
:101290000E5F1F4F44244394512C540114C0380155
:1012A000F2E06F0E711CF801A080B18026FF03C030
:1012B000652D70E002C06FEF7FEFC5012C8736D13E
:1012C0002C0183012C852F77222E16C03801F2E0E5
:1012D0006F0E711CF801A080B18026FF03C0652D40
:1012E00070E002C06FEF7FEFC5012C8714D12C0195
:1012F0002C852068222E830123FC19C0832D90E0C9
:1013000048165906A0F4B70180E290E01AD13A9449
:10131000F5CFF50127FC859127FE81915F01B7018B
:1013200090E00FD131103A94F1E04F1A5108411476
:10133000510479F7DEC0843611F0893631F5F801B1
:1013400027FF07C060817181828193810C5F1F4FED
:1013500008C060817181882777FD8095982F0E5F86
:101360001F4F2F76B22E97FF09C0909580957095EC
:1013700061957F4F8F4F9F4F2068B22E2AE030E05B
:10138000A40111D1A82EA81843C0853729F42F7EB7
:10139000B22E2AE030E025C0F22FF97FBF2E8F3623
:1013A000C1F018F4883579F0ADC0803719F088376E
:1013B00021F0A8C02F2F2061B22EB4FE0DC08B2DBE
:1013C0008460B82E09C024FF0AC09F2F9660B92EF2
:1013D00006C028E030E005C020E130E002C020E196
:1013E00032E0F801B7FE07C060817181828193818C
:1013F0000C5F1F4F06C06081718180E090E00E5F3E
:101400001F4FA401D0D0A82EA818FB2DFF77BF2E08
:10141000B6FE0BC02B2D2E7FA51450F4B4FE0AC0CF
:10142000B2FC08C02B2D2E7E05C07A2C2B2D03C0BC
:101430007A2C01C0752C24FF0DC0FE01EA0DF11DB0
:101440008081803311F4297E09C022FF06C0739485
:10145000739404C0822F867809F0739423FD12C020
:1014600020FF06C05A2C731418F4530C5718732C11
:10147000731460F4B70180E290E02C8762D073941B
:101480002C85F6CF731410F4371801C0312C24FFCB
:1014900011C0B70180E390E02C8753D02C8522FF48
:1014A00016C021FF03C088E590E002C088E790E005
:1014B000B7010CC0822F867851F021FD02C080E276
:1014C00001C08BE227FD8DE2B70190E03AD0A51470
:1014D00030F4B70180E390E034D05A94F8CFAA9466
:1014E000F401EA0DF11D8081B70190E02AD0A1102E
:1014F000F6CF332009F45DCEB70180E290E021D031
:101500003A94F7CFF7018681978102C08FEF9FEF62
:101510002C96E2E1C2C0FC010590615070400110C0
:10152000D8F7809590958E0F9F1F0895FC0161500C
:10153000704001900110D8F7809590958E0F9F1FF5
:1015400008950F931F93CF93DF93182F092FEB016B
:101550008B8181FD03C08FEF9FEF20C082FF10C001
:101560004E815F812C813D81421753077CF4E881D5
:10157000F9819F012F5F3F4F39832883108306C075
:10158000E885F985812F0995892B29F72E813F81DF
:101590002F5F3F4F3F832E83812F902FDF91CF917D
:1015A0001F910F910895FA01AA27283051F1203197
:1015B00081F1E8946F936E7F6E5F7F4F8F4F9F4FE7
:1015C000AF4FB1E03ED0B4E03CD0670F781F891F29
:1015D0009A1FA11D680F791F8A1F911DA11D6A0FF7
:1015E000711D811D911DA11D20D009F468943F91AA
:1015F0002AE0269F11243019305D3193DEF6CF01A9
:101600000895462F4770405D4193B3E00FD0C9F76E
:10161000F6CF462F4F70405D4A3318F0495D31FDDB
:101620004052419302D0A9F7EACFB4E0A69597952E
:10163000879577956795BA95C9F700976105710504
:1016400008959B01AC010A2E06945795479537954E
:101650002795BA95C9F7620F731F841F951FA01DA8
:1016600008952F923F924F925F926F927F928F9246
:101670009F92AF92BF92CF92DF92EF92FF920F9321
:101680001F93CF93DF93CDB7DEB7CA1BDB0B0FB62B
:10169000F894DEBF0FBECDBF09942A8839884888E8
:1016A0005F846E847D848C849B84AA84B984C8847E
:1016B000DF80EE80FD800C811B81AA81B981CE0F75
:1016C000D11D0FB6F894DEBF0FBECDBFED0108955A
:0416D000F894FFCFBC
:1016D4000100000069646C650025303264253032F5
:0816E4006400646F6E650000F4
:00000001FF
