:10FC00001F92CDB7DEB7112484B714BE81FD06C0A4
:10FC100083FF03C08983F4D08981DED185E080939E
:10FC2000810082E08093C00088E18093C10096E06B
:10FC30009093C20090E19093C400809360008EE0A6
:10FC400080936000579A86E020E33CEF91E0309388
:10FC500085002093840096BBB09BFECF4F9AA89559
:10FC60008150A9F7612C712C08E128E0F22EEE24D6
:10FC7000E39435E0D32E41E1C42E13E086D18134E4
:10FC800069F483D189838FD189818238F9F08138F1
:10FC900011F485E001C083E071D17BC0823411F49E
:10FCA00084E103C0853419F485E089D172C08535BB
:10FCB00049F46BD1B82E69D16B2C712C782A660C63
:10FCC000771C66C0863521F484E079D180E0E4CFEA
:10FCD000843609F03FC059D158D1982E56D16114BD
:10FCE00080EE780618F4F30117BFE895A12CBB2429
:10FCF000B3944BD1F50181935F019E12FACF611449
:10FD0000F0EE7F0618F0F30117BFE8954CD107B667
:10FD100000FCFDCFA301A0E0B1E08C9112969D0103
:10FD200021503109F901208190E0922BFA010C0158
:10FD3000E7BEE89511244E5F5F4FA115F2E0BF07C3
:10FD400061F7F301D7BEE89507B600FCFDCFC7BE4B
:10FD5000E8951FC0843769F418D117D1B82E15D192
:10FD600022D1F30185913F0109D1BA94B110F9CFA5
:10FD700010C0853739F417D18EE100D186E9FED065
:10FD80008AE08ACF813521F400936000F092600010
:10FD90000AD180E1F3D072CF8EBD0DB407FEFDCF46
:10FDA0008EB50895289885E0F7DF80E0F5DF289A82
:10FDB00081700895CF93C82F662321F060E086E01C
:10FDC000F9DF289AEFDF8111FDCF28988C2FCF9192
:10FDD000E3CFCF92DF92EF92FF926B017C0160E064
:10FDE00083E0E8DF8E2DD8DF8D2DD6DF8C2DD4DF9C
:10FDF00080E0D2DF289AFF90EF90DF90CF900895B7
:10FE00009F92AF92BF92CF92DF92EF92FF920F93A9
:10FE10001F93CF93DF9388E180936000109260007E
:10FE200084B1816B84B9289A2C9A8CB580658CBD7D
:10FE300028988FE9B1DF80E0AFDF289A81508E3FAC
:10FE400008F090C061E081E0B5DF80E0A5DF289A8E
:10FE500060E070E0CB01BDDF863409F083C061E073
:10FE600070E080E090E0B5DF8C3409F07BC062E0A8
:10FE700070E080E090E0ADDF883509F073C066E0A7
:10FE800070E080E090E0A5DF8A3309F06BC069E0A4
:10FE900070E080E090E09DDF8A3309F063C067E0A6
:10FEA00070E080E090E095DFC82F68E070E080E0CF
:10FEB00090E08FDFD0E0DC2FCC27C82BC0FD52C0F4
:10FEC0004F9AC12CD12C00E010E0BB24B39483E006
:10FED000A82E95E0992E0C171D0748F5B801665F0E
:10FEE0007F4F80E090E075DFE82EF12CB801655F70
:10FEF0007F4F80E090E06DDFF82AF8010701B7BE80
:10FF0000E89511240E5F1F4F002319F00C171D07F1
:10FF100011F7F601A7BEE89507B600FCFDCFF60184
:10FF200097BEE89507B600FCFDCFD394D4CF4F9889
:10FF300081E187BFE8952A9661E0C130D04810F48E
:10FF400082E501C088ED36DF80E026DF80E024DF37
:10FF500080E022DF289A88E18093600088E0809327
:10FF60006000FFCFDF91CF911F910F91FF90EF9035
:10FF7000DF90CF90BF90AF909F9008959091C00078
:10FF800095FFFCCF8093C60008954F9A8091C000E2
:10FF900087FFFCCF8091C00084FD01C0A8958091AF
:10FFA000C6004F9A0895F1DF803239F088E18093DE
:10FFB000600088E080936000FFCF84E1DFCFCF93C3
:10FFC000C82FE3DFC150E9F7CF91EDCFE0E6F0E0D5
:10FFD00098E1908380830895282EE0E6F0E088E1A0
:0AFFE00080831082EE27FF270994AA
:02FFFE000005FC
:040000030000FC00FD
:00000001FF
