:100000003FC059C058C057C083C555C08BC353C0EB
:1000100052C054C250C04FC04EC04DC04CC04BC067
:100020004AC049C048C000000000000000000003B2
:100030000406000000000000000001020408102077
:10004000408001020408102001020408102004046A
:100050000404040404040202020202020303030370
:1000600003030000000036003300300000000000F1
:100070003800350032000000000037003400310045
:1000800011241FBECFE5D4E0DEBFCDBF10E0A0E657
:10009000B0E0EEE2F0E102C005900D92A037B107AA
:1000A000D9F721E0A0E7B0E001C01D92AB35B2075F
:1000B000E1F7EFD1BAC7A4CFAF92BF92DF92EF9230
:1000C000FF920F931F93CF93DF931F92CDB7DEB7AD
:1000D0005C01D42E79018AE690E0F501918380835A
:1000E0008CE090E06983E8D18C01698158D0F501FA
:1000F00013830283B501C80191D085E090E0DCD183
:100100008C01A7016D2D5CD1F501158304830F903F
:10011000DF91CF911F910F91FF90EF90DF90BF90F3
:10012000AF900895EC018A819B81F1D0FCCFFC0156
:10013000433084EC58078BE2680787E77807C1F003
:1001400030F4493758406E48734479F008954F3D74
:100150008AE458078DE068078FE8780769F04D3327
:100160005544604F7A4E31F008958481958176C16F
:1001700060E003C061E001C062E08481958177D1D5
:10018000009709F0FDC00895FB01BA01A901EF2B0A
:1001900009F4CDCF089581E0809371000895EF9226
:1001A000FF920F931F93CF93DF931F92CDB7DEB7CC
:1001B0007C0181E090E069837FD18C0169818FD2DD
:1001C000F70111830083C8018FD261E0F7018081BC
:1001D0009181A0D28EE090E06FD12EE0FC011192CF
:1001E0002A95E9F7F701938382831386128682E0CA
:1001F00090E09583848316821782108611864BECDB
:1002000050E068E572E080E090E0EDD30F90DF9180
:10021000CF911F910F91FF90EF901CC46115710554
:1002200019F0FC01738762870895CF93DF93EC0187
:100230008A859B850097C1F06C817D816230710554
:1002400099F0DC01ED91FC912E813F814885598523
:100250000190F081E02D099582E090E09D838C83F0
:100260001E821F8218861986DF91CF910895CF9242
:10027000DF92EF92FF92CF93DF93EC016A817B8153
:100280008881998196D3882351F0EA81FB81C480CB
:10029000D580E680F78088819981E2D203C0C12CA5
:1002A000D12C7601C701B601DF91CF91FF90EF907D
:1002B000DF90CF900895CF93DF93EC01D8DF6115E5
:1002C00071058105910549F0209170002F5F209301
:1002D00070006E837F83888799878091710088235F
:1002E00099F0809170009FEF980F923018F41D8262
:1002F0001C8206C0853020F081E090E09D838C83D5
:100300001092700010927100DF91CF910895CF93F9
:10031000DF93EC01F894CFDFCE0187DF7894DF9193
:10032000CF910895CF93DF93EC01862F688361E02E
:1003300040D181E090E09A838983DF91CF91089545
:10034000CF93DF93EC0189819A81892B29F061E0B9
:10035000888168D11A821982DF91CF910895CF9355
:10036000DF93EC0189819A81019739F060E08881FF
:1003700059D181E090E09A838983DF91CF910895EC
:10038000FC0121813281232B09F0DACFE8CF1F93C2
:10039000CF93DF93EC0110E08881181768F49B81FC
:1003A0008C81E92FF82FE10FF11DE10FF11D808104
:1003B0009181C6DF1F5FF0CFDF91CF911F9108952C
:1003C000DF92EF92FF920F931F93CF93DF93EC0195
:1003D00068835A834983862F90E0880F991F6DD0D8
:1003E0009C838B83D12C8881D816B0F483E090E075
:1003F00063D08C01ED2CF12CE981FA81EE0DFF1D0B
:10040000608190DFEE0CFF1CEB81FC81EE0DFF1D87
:1004100011830083D394E7CFCE01DF91CF911F9159
:100420000F91FF90EF90DF90B2CF1F93CF93DF93A8
:10043000EC0110E08881181768F49B818C81E92F0A
:10044000F82FE10FF11DE10FF11D8081918187DF10
:100450001F5FF0CFDF91CF911F910895209172001F
:1004600031E0232720937200211191CFDECFFC01D0
:100470008081681758F493818481E92FF82FE60F63
:10048000F11DE60FF11D80819181089580E090E0DB
:100490000895CF93DF935CD086E090E00DD0EC011F
:1004A0002CE630E043E064E007DECE013BDE80E096
:1004B00090E0DF91CF91089591C490C41F920F9264
:1004C0000FB60F9211242F933F938F939F93AF9367
:1004D000BF938091740090917500A0917600B091C7
:1004E00077003091730026E0230F2D3720F4029619
:1004F000A11DB11D05C029E8230F0396A11DB11D43
:10050000209373008093740090937500A0937600FD
:10051000B09377008091780090917900A0917A0053
:10052000B0917B000196A11DB11D8093780090933E
:100530007900A0937A00B0937B00BF91AF919F9117
:100540008F913F912F910F900FBE0F901F90189594
:10055000789483B7826083BF83B7816083BF89B794
:10056000816089BF1EBC8EB582608EBD8EB58160F4
:100570008EBD8FB581608FBD85B5846085BD85B525
:10058000806485BD329A319A3098379A1AB80895A6
:10059000843039F0863049F0833051F48FB58F774D
:1005A00002C08FB58F7D8FBD089585B58F7D85BDC8
:1005B0000895CF93DF9390E0FC01E65CFF4F249118
:1005C000FC01E25BFF4F8491882349F190E0880FA2
:1005D000991FFC01EA58FF4FA591B49184599F4F90
:1005E000FC01C591D4919FB7611108C0F8948C911A
:1005F000209582238C93888182230AC0623051F433
:10060000F8948C91322F309583238C938881822BA0
:10061000888304C0F8948C91822B8C939FBFDF91C8
:10062000CF9108950F931F93CF93DF931F92CDB770
:10063000DEB7282F30E0F901EA5DFF4F8491F90120
:10064000E65CFF4F1491F901E25BFF4F0491002338
:10065000C1F0882319F069839BDF6981E02FF0E006
:10066000EE0FFF1FE459FF4FA591B4919FB7F89487
:100670008C91611103C01095812301C0812B8C9353
:100680009FBF0F90DF91CF911F910F910895CF934E
:10069000DF93282F30E0F901EA5DFF4F8491F901E3
:1006A000E65CFF4FD491F901E25BFF4FC491CC238C
:1006B00089F081116DDFEC2FF0E0EE0FFF1FEE5996
:1006C000FF4FA591B4912C912D2381E090E021F46E
:1006D00080E002C080E090E0DF91CF9108956093C8
:1006E0007C0010927E000895F8941FBC89E08EBDB6
:1006F00080E991E09BBD8ABD1DBC1CBC80E189BF27
:10070000789482E080937D001092490180917C0072
:1007100060E04FCF60937E00662319F061E08DE0CA
:1007200048CF08951F920F920FB60F9211242F9366
:100730003F934F935F936F937F938F939F93AF9369
:10074000BF93EF93FF9380917C00A1DF20917F0006
:10075000309180002F5F3F4F3093800020937F00C7
:1007600090914901943618F095E090937D00909116
:100770007D009330B9F018F4923039F057C09430BE
:1007800059F1953009F44CC051C081114FC02091EE
:100790007F00309180002436310508F443C0109268
:1007A00049011CC0813009F041C0E091490191E04C
:1007B0009E0F90934901F0E020917F0030918000DE
:1007C000EE0FFF1FE458FF4F368325831092800001
:1007D00010927F0094E021C0811117C0E09149017F
:1007E00091E09E0F90934901F0E020917F003091BD
:1007F0008000EE0FFF1FE458FF4F368325831092D1
:10080000800010927F0093E008C020917F0030911B
:1008100080002536310550F095E090937D0006C0AC
:10082000811104C01092800010927F0090917E0090
:10083000992329F0811102C0C59A01C0C598FF9182
:10084000EF91BF91AF919F918F917F916F915F9148
:100850004F913F912F910F900FBE0F901F901895C1
:1008600082E080937D001092490108958F929F92BB
:10087000AF92BF92CF92DF92EF92FF927B01BA01CB
:1008800080E090E096D14B015C01B70180E090E000
:1008900090D16B017C012DEC3CEC4CE45FE33BD24E
:1008A0009B01AC01C501B40180D187FD15C02DECC1
:1008B0003CEC4CE45FE3C501B4012DD29B01AC01DB
:1008C000C701B60172D1992787FD90958827990FA6
:1008D000881F9927019602C080E090E0FF90EF907A
:1008E000DF90CF90BF90AF909F908F9008958F92A0
:1008F0009F92AF92BF92CF92DF92EF92FF920F93AF
:100900001F93CF93DF936C01EB01EC84FD8486E0B1
:10091000E816F1040CF43FC0EE0CFF1C06E010E0FA
:1009200045EC842E4DE9942E4CE1A42E41E8B42EE2
:100930008A859B85FC01E00FF11F40815181F80100
:100940003497E80FF91F60817181C6018FDFFC01C8
:10095000A501940163E971E080E091E001D14F01CC
:10096000AA2497FCA094BA2C86269726A826B926F6
:100970000E5F1F4F0E151F05D9F68C829D82AE8229
:10098000BF8280E290E0998788878FEF9FEF9983FD
:10099000888381E001C080E0DF91CF911F910F91AA
:1009A000FF90EF90DF90CF90BF90AF909F908F908F
:1009B000089521E830E0FB01338722872091490127
:1009C00030E03587248720917D00253041F48FDF8A
:1009D000811107C082E080937D001092490180E080
:1009E000089581E00895611571058105910569F407
:1009F00081E090E0A0E0B0E0809353019093540137
:100A0000A0935501B093560108C0609353017093B1
:100A10005401809355019093560150935201409395
:100A2000510189B78F7B89BF85B5877B85BD89B724
:100A30008F7789BF82B5877F82BD85B5846085BD8C
:100A400085B58C7F85BD83E890E090934B018093C2
:100A50004A01089510924D0110924E0110924F01DB
:100A60001092500110924C0180914A0190914B01DB
:100A700084BD89B7806489BF089580914D019091AC
:100A80004E01A0914F01B09150010196A11DB11DE1
:100A900080934D0190934E01A0934F01B09350016C
:100AA00080914D0190914E01A0914F01B091500164
:100AB000409153015091540160915501709156013C
:100AC00084179507A607B70710F180914C01811193
:100AD0001EC081E080934C0180914D0190914E01A8
:100AE000A0914F01B0915001841B950BA60BB70B41
:100AF00080934D0190934E01A0934F01B09350010C
:100B0000E0915101F0915201099510924C01089524
:100B10001F920F920FB60F9211242F933F934F9372
:100B20005F936F937F938F939F93AF93BF93EF9355
:100B3000FF9380914A0190914B0184BD9EDFFF910C
:100B4000EF91BF91AF919F918F917F916F915F9145
:100B50004F913F912F910F900FBE0F901F901895BE
:100B6000DB018F939F930BD0BF91AF91A29F800D1C
:100B7000911DA39F900DB29F900D1124089509D04F
:100B8000A59F900DB49F900DA49F800D911D1124E1
:100B90000895A29FB001B39FC001A39F01D0B29F4F
:100BA000700D811D1124911D089540D008F481E03D
:100BB0000895E89409C097FB3EF490958095709550
:100BC00061957F4F8F4F9F4F9923A9F0F92F96E999
:100BD000BB279395F695879577956795B795F1110E
:100BE000F8CFFAF4BB0F11F460FF1BC06F5F7F4FAB
:100BF0008F4F9F4F16C0882311F096E911C07723BD
:100C000021F09EE8872F762F05C0662371F096E8C5
:100C1000862F70E060E02AF09A95660F771F881F94
:100C2000DAF7880F9695879597F90895990F000838
:100C3000550FAA0BE0E8FEEF16161706E807F907AE
:100C4000C0F012161306E407F50798F0621B730B49
:100C5000840B950B39F40A2661F0232B242B252BCA
:100C600021F408950A2609F4A140A6958FEF811D6D
:100C7000811D089597F99F6780E870E060E008950E
:100C80009FEF80EC089500240A94161617061806A4
:100C90000906089500240A94121613061406050680
:100CA0000895092E0394000C11F4882352F0BB0F11
:100CB00040F4BF2B11F460FF04C06F5F7F4F8F4F74
:100CC0009F4F089557FD9058440F551F59F05F3FAF
:100CD00071F04795880F97FB991F61F09F3F79F05E
:100CE00087950895121613061406551FF2CF4695E0
:100CF000F1DF08C0161617061806991FF1CF869562
:100D00007105610508940895E894BB276627772745
:100D1000CB0197F908950BD0C4CFB5DF28F0BADF27
:100D200018F0952309F0A6CFABCF1124EECFCADF80
:100D3000A0F3959FD1F3950F50E0551F629FF001EE
:100D4000729FBB27F00DB11D639FAA27F00DB11D47
:100D5000AA1F649F6627B00DA11D661F829F2227D0
:100D6000B00DA11D621F739FB00DA11D621F839F57
:100D7000A00D611D221F749F3327A00D611D231F2D
:100D8000849F600D211D822F762F6A2F11249F577B
:100D900050408AF0E1F088234AF0EE0FFF1FBB1F9E
:100DA000661F771F881F91505040A9F79E3F51053D
:100DB00070F060CFAACF5F3FECF3983EDCF38695EE
:100DC00077956795B795F795E7959F5FC1F7FE2BE8
:100DD000880F911D9695879597F90895CF93DF9386
:100DE0008230910510F482E090E0E0915901F09199
:100DF0005A0120E030E0A0E0B0E0309739F14081C6
:100E0000518148175907B8F04817590771F4828182
:100E10009381109729F013969C938E9312972CC070
:100E200090935A018093590127C02115310531F063
:100E30004217530718F0A901DB0101C0EF019A0125
:100E4000BD01DF010280F381E02DD7CF21153105EF
:100E5000F9F0281B390B2430310580F48A819B81FD
:100E60006115710521F0FB019383828304C0909387
:100E70005A0180935901FE01329644C0FE01E20FEF
:100E8000F31F8193919322503109398328833AC00B
:100E90002091570130915801232B41F42091620099
:100EA00030916300309358012093570120916000E6
:100EB000309161002115310541F42DB73EB74091C5
:100EC000640050916500241B350BE0915701F091AF
:100ED0005801E217F307A0F42E1B3F0B2817390720
:100EE00078F0AC014E5F5F4F2417350748F04E0F86
:100EF0005F1F50935801409357018193919302C013
:100F0000E0E0F0E0CF01DF91CF910895CF93DF9340
:100F1000009709F487C0FC01329713821282C091B6
:100F20005901D0915A01209781F420813181280FF5
:100F3000391F80915701909158018217930779F5D5
:100F4000F0935801E09357016DC0DE0120E030E0DE
:100F5000AE17BF0750F412964D915C9113979D0107
:100F60004115510509F1DA01F3CFB383A283408122
:100F70005181840F951F8A179B0771F48D919C9165
:100F80001197840F951F02969183808312968D91FD
:100F90009C911397938382832115310529F4F09353
:100FA0005A01E09359013EC0D9011396FC93EE9388
:100FB00012974D915D91A40FB51FEA17FB0779F4C5
:100FC00080819181840F951F0296D90111969C937F
:100FD0008E938281938113969C938E931297E0E077
:100FE000F0E08A819B81009719F0FE01EC01F9CFB6
:100FF000CE01029628813981820F931F20915701DB
:10100000309158012817390769F4309729F4109264
:101010005A011092590102C013821282D0935801D2
:0E102000C0935701DF91CF910895F894FFCF50
:10102E0000005B01800000000000C4000506070000
:00000001FF
