:100000005CC000007FC000007DC000007BC000001D
:1000100079C0000077C0000075C0000073C0000008
:1000200071C000006FC000006DC000006BC0000018
:1000300069C0000067C0000065C0000063C0000028
:100040008DC100005FC000005DC000005BC000000B
:1000500059C0000057C0000055C0000053C0000048
:1000600051C000004FC00000000000080002010065
:100070000003040700000000000000000102040863
:100080001020408001020408102001020408102002
:10009000040404040404040402020202020203032E
:1000A0000303030300000000250028002B000000CC
:1000B0000000240027002A00D60011241FBECFEF25
:1000C000D8E0DEBFCDBF11E0A0E0B1E0E6EDF7E0A3
:1000D00002C005900D92A831B107D9F721E0A8E13F
:1000E000B1E001C01D92AE33B207E1F710E0CAEBF8
:1000F000D0E003C02297FE0168D3C83BD107D1F7F7
:1001000022D167C37DCF0F931F9372D10091180145
:100110001091190120911A0130911B01601B710B84
:10012000820B930B643671058105910518F180915E
:10013000000190910101803127E292071CF029E132
:100140008CEF02C0282F892F20930001809301019A
:100150004FD1609318017093190180931A01909305
:100160001B01809100019091010101969093010182
:100170008093000160910001709101014AE050E01C
:100180008CE191E0D8D081E0209100013091010113
:10019000203137420CF080E01F910F9108958CE1DF
:1001A00091E003C2B0DF8111FDCF08950F9304E009
:1001B0002AE04BE069E08CE191E061D10F91089574
:1001C0006115710581F0DB010D900020E9F7AD01AB
:1001D00041505109461B570BDC01ED91FC91028007
:1001E000F381E02D099480E090E00895DC01ED9129
:1001F000FC910190F081E02D09948F929F92AF9233
:10020000BF92CF92DF92EF92FF920F931F93CF9303
:10021000DF93CDB7DEB7A1970FB6F894DEBF0FBE60
:10022000CDBF7C01C42EE52FCB01D22E19A221E037
:100230002D1510F02AE0D22E8E010F5D1F4F8D2C50
:10024000912CA12CB12C6C2D7E2FA501940199D25B
:100250008C2DD29E80191124015011098A3014F47A
:10026000805D01C0895CF80180832115310541055D
:10027000510521F0C22EE32FCA01E5CFB801C70115
:100280009FDFA1960FB6F894DEBF0FBECDBFDF9102
:10029000CF911F910F91FF90EF90DF90CF90BF9083
:1002A000AF909F908F900895CF92DF92EF92FF9240
:1002B0000F931F93CF93DF93EC016A017B0121150C
:1002C000310579F4E881F9810190F081E02D642F06
:1002D000DF91CF911F910F91FF90EF90DF90CF9022
:1002E00009942A303105D9F477FF18C06DE27EDF1A
:1002F0008C0144275527BA014C195D096E097F0905
:100300002AE0CE017ADF800F911FDF91CF911F91FC
:100310000F91FF90EF90DF90CF9008952AE0B70102
:10032000A601CE01DF91CF911F910F91FF90EF9029
:10033000DF90CF9062CF9A01AB01662757FD6095A1
:10034000762FB2CF089560D0FDDF29DFC0E0D0E086
:1003500029DF2097E9F30E940000FACF1F920F9245
:100360000FB60F9211242F933F938F939F93AF93C8
:10037000BF938091360190913701A0913801B091DF
:1003800039013091350123E0230F2D3720F40196F8
:10039000A11DB11D05C026E8230F0296A11DB11DA8
:1003A000209335018093360190933701A093380153
:1003B000B093390180913A0190913B01A0913C01A9
:1003C000B0913D010196A11DB11D80933A0190931A
:1003D0003B01A0933C01B0933D01BF91AF919F9130
:1003E0008F913F912F910F900FBE0F901F901895F6
:1003F0002FB7F894609136017091370180913801E0
:10040000909139012FBF0895789484B5826084BD9E
:1004100084B5816084BD85B5826085BD85B5816008
:1004200085BDEEE6F0E0808181608083E1E8F0E068
:100430001082808182608083808181608083E0E897
:10044000F0E0808181608083E1EBF0E08081846076
:100450008083E0EBF0E0808181608083EAE7F0E078
:1004600080818460808380818260808380818160DC
:1004700080838081806880831092C10008950F93EB
:10048000CF93DF93EC011B821A8283E191E0998381
:1004900088838DE0E2E0F1E0DE01199601900D9293
:1004A0008A95E1F78CE08E8B8BE08F8B8AE0888FCA
:1004B0006C834D832E830F83085F0887DF91CF9174
:1004C0000F910895CF92DF92EF92FF920F931F93B7
:1004D000CF93DF931F92CDB7DEB78C01C12CD12C07
:1004E000E62EF12CC416C8F460E0F801858149833A
:1004F00013D1B7010C2C02C0759567950A94E2F7E9
:100500006170F801848108D161E0F801858104D12E
:10051000FFEFCF1ADF0A4981E5CF0F90DF91CF912E
:100520001F910F91FF90EF90DF90CF900895EF9281
:10053000FF921F93CF93DF931F92CDB7DEB77C015D
:10054000162F60E0FC0186814983E6D061E070E00F
:10055000498101C0660F4A95EAF7F7014781C70153
:10056000B1DF48E0612FC701ADDF61E0F7018681AF
:100570000F90DF91CF911F91FF90EF90CDC01F930F
:10058000CF93DF93EC0110E08F81181750F48E8920
:10059000FE01E80FF11D412F6185CE01C8DF1F5F0D
:1005A000F3CFDF91CF911F910895CF93DF93EC01AB
:1005B00061E08C8178D061E08D8175D061E08E81C1
:1005C00072D0CE01DF91CF91DACFCF92DF92EF924E
:1005D000FF920F931F93CF93DF937C016B01EA018E
:1005E000FC01878190E084179507C8F000E010E0D7
:1005F000C80199270F5F1F4F8C179D0770F4F601F4
:10060000E80FF91F80818053F701E80FF11D4C2F8F
:10061000401B6185C7018BDFEBCFCE0102C080E0BC
:1006200090E0DF91CF911F910F91FF90EF90DF90BD
:10063000CF9008956D3259F4FC01478141502789CC
:10064000E20FF11D618573DF81E090E0089580E0A5
:1006500090E00895833081F028F4813099F0823061
:10066000A1F008958730A9F08830B9F08430D1F432
:10067000809180008F7D03C0809180008F77809370
:100680008000089584B58F7702C084B58F7D84BDC6
:1006900008958091B0008F7703C08091B0008F7D66
:1006A0008093B0000895CF93DF9390E0FC01E4586D
:1006B000FF4F2491FC01E057FF4F8491882349F1BB
:1006C00090E0880F991FFC01E255FF4FA591B4916E
:1006D0008C559F4FFC01C591D4919FB7611108C003
:1006E000F8948C91209582238C93888182230AC070
:1006F000623051F4F8948C91322F309583238C938F
:100700008881822B888304C0F8948C91822B8C93EF
:100710009FBFDF91CF9108950F931F93CF93DF93E6
:100720001F92CDB7DEB7282F30E0F901E859FF4F0F
:100730008491F901E458FF4F1491F901E057FF4FFC
:1007400004910023C1F0882319F0698383DF698154
:10075000E02FF0E0EE0FFF1FEC55FF4FA591B49195
:100760009FB7F8948C91611103C01095812301C04B
:10077000812B8C939FBF0F90DF91CF911F910F9191
:100780000895A1E21A2EAA1BBB1BFD010DC0AA1FD2
:10079000BB1FEE1FFF1FA217B307E407F50720F0EA
:1007A000A21BB30BE40BF50B661F771F881F991F65
:1007B0001A9469F760957095809590959B01AC01AE
:1007C000BD01CF010895EE0FFF1F0590F491E02DBC
:0607D0000994F894FFCF2C
:1007D60019FC039F250D9949411F0109FEFDFF00E4
:0807E6000000001A03E5020007
:00000001FF
